S00F00006963655F6963652E7372656354
S11300000C94B8130C94D5130C94D5130C94D513E9
S11300100C94D5130C94D5130C94D5130C94D513BC
S11300200C94D5130C94D5130C94D5130C94D513AC
S11300300C94D5130C94D5130C94D5130C94D5139C
S11300400C94D5130C94D5130C94D5130C94D5138C
S11303600000000000000000000000000000000188
S11303700101010101010100000000000000000072
S11303800000000000000000000000000000000069
S11303900000000000000000000000000000000059
S11303A00000000000000000000000000000000049
S11303B00000000000000000000000000000000039
S11303C00000000000000000000000000000000029
S11303D0000000010101010101000001010101010E
S11303E00101000000000000000000000000000007
S11303F000000101010101010101000000000000F1
S113040000000000000000000000000000000000E8
S113041000000000000000000000000000000000D8
S113042000000000000000000000000000000000C8
S113043000000000000000000001010100000000B5
S113044000000000000000000001010101000000A4
S11304500000000000000001010101010100000191
S11304600101010101000000000000000000000083
S11304700000000000000000000000000000000078
S11304800000000000000000000000000000000068
S11304900000000000000000000000000000000157
S11304A00101000000000000000000000000000046
S11304B00000000001010100000000000001010132
S11304C00100000000000000000000000101010024
S11304D00000000000000000000000000000000018
S11304E00000000000000000000000000000000008
S11304F000000000000000000000000000000000F8
S113050000000000000001010000000000000000E5
S113051000000000000000000000000000000101D5
S113052000000001010100000000000000000000C4
S113053000000000000001010000000000000000B5
S113054000000000000000000000000000000000A7
S11305500000000000000000000000000000000097
S11305600000000000000000000000000101010084
S11305700000000000000000000000000000000077
S11305800000000000000001010101010000000062
S11305900000000000000000000000000000000057
S11305A00101000000000000000000000000000045
S11305B00000000000000000000000000000000037
S11305C00000000000000000000000000000000027
S11305D00000000101010000000000000000000014
S11305E00000000000000000000000000000000007
S11305F000010100000000000000000000000000F5
S113060000000000000000000001010000000000E4
S113061000000000000000000000000000000000D6
S113062000000000000000000000000000000000C6
S113063000000000000000000000010100000000B4
S113064000000000000000000000000000000000A6
S11306500000000000000000000101000000000094
S11306600000000000000000000000000000000086
S11306700000010000000000000000000000000075
S11306800000000000000000000000000000000066
S11306900000000000000000000000000000000056
S11306A00000010000000000000000000000000045
S11306B00000000000000000000000000000000036
S11306C00000010100000000000000000000000024
S11306D00000000000000000000001010000000014
S11306E00000000000000000000000000000000006
S11306F000000000000000000000000000000000F6
S113070000000000000000000001000000000000E4
S113071000000000000000000000000000000000D5
S113072000000000000000000000000100000000C4
S113073000000000000000000000000000000000B5
S113074000000001010000000000000000000000A3
S11307500000000000000000000000000000000095
S11307600000000000000000000000000000000085
S11307700101000000000000000000000000000073
S1130780000101010101010101010101000000005A
S11307900000000101000000000000000000000053
S11307A00000000000000000000000000100000044
S11307B00000000000000000000000000000000035
S11307C00000000000000000000000000000000025
S11307D00000000000000001010000000000000013
S11307E000000000000001010101010100000000FF
S11307F000000101010101000000000001000000EF
S113080000000000000000000000000000000000E4
S113081000000000010000000000000000000000D3
S113082000000000000000000000000000000000C4
S113083000000000000000000000000000000001B3
S1130840000000000000000000000001010101019F
S11308500000000000000000000000000000010192
S11308600101000001000000000000000000000081
S11308700000000000000000000000000101000072
S11308800000000000000000000000000000000064
S11308900000000000000000000000000000000054
S11308A00000000000000101000000000000000042
S11308B00000010101000000000000000000000031
S11308C0000000000000000001010100010100011E
S11308D00101010101010101010101010101010104
S11308E001010101010100000000000000000000FE
S11308F000000000000000000000000000000000F4
S113090000000000000000000000000000010100E1
S113091000000000000000000101010000000000D0
S113092000000000000000000000000000000000C3
S113093000000101010101010101010000000000AA
S1130940000000000000000000000101010101019D
S11309500100000000000000000000000000000092
S11309600000000000000000000000000000000083
S11309700000000000010000000000000000000072
S11309800100000000000000000000000000000062
S11309900000000000000000000000000101000051
S11309A00000000000000000000000000000000043
S11309B00000000000000000010101000000000030
S11309C00000000000000000000000000000000023
S11309D00000000000000000000000000101000011
S11309E00000000000000000000000000000000003
S11309F000000000000000000000000000000000F3
S1130A0000000000000101000000000000000000E0
S1130A1000000000000000000000000000000000D2
S1130A2000000101000000000000000000000000C0
S1130A3000000000000000000000000000000000B2
S1130A4000000000010100000000000000000000A0
S1130A500000000000000000000000000000000092
S1130A600000000000000000000000000000010180
S1130A700000000000000000000000000000000072
S1130A800000000000000000000000010100000060
S1130A900000000000000000000000000000000052
S1130AA00000000000000000000000000100000041
S1130AB00000000000000000000000000000000032
S1130AC0000000000000000000000101010101011C
S1130AD00101010101010101010100000000000008
S1130AE000000000000101010101010101010101F7
S1130AF001010100010100000000000000000000ED
S1130B0000000000000000000000000000000000E1
S1130B1000000001010000000000000000000000CF
S1130B2000000000000000000000000000000101BF
S1130B3001010101010100000000000000000001AA
S1130B400101010000000000000101010101010197
S1130B500100000000000001010101010101010088
S1130B600000000000000000000000000000000081
S1130B70000000000000000000000001010000006F
S1130B800000000000000000000000000000000061
S1130B90000000010101010101000000000000004B
S1130BA0000000000000000000000101000001013D
S1130BB00101000000000001010101010101010126
S1130BC0010101000001010101000000000000001A
S1130BD00000000000000000000000000000000011
S1130BE00000000100000000000000000000000000
S1130BF000000000000000000001010101000000ED
S1130C0000000000000101010101010101010101D5
S1130C1000000001010101010000010101010101C5
S1130C2001010100010100000101010101010000B5
S1130C3001010000000000000000000000000000AE
S1130C40000000000000000000000101000000009E
S1130C50000000000000000000000000000000018F
S1130C600101010000000000000101010101010176
S1130C700100000001010101010101010101010163
S1130C80010101010000000000000000000000005C
S1130C90000000000101010101010000000000004A
S1130CA00000000000000000000000000000000040
S1130CB0010101010000000000000000000000002C
S1130CC0000000000001010100000000000101011A
S1130CD0010101000000000000000000000000000D
S1130CE000000101010101010000000000000000FA
S1130CF000000000000000000000000000000001EF
S1130D0001010000000000000000000000000000DD
S1130D1000000000000001010100010100000000CA
S1130D2000000000000000000000010101010000BB
S1130D3000010101010100000000000000000000AA
S1130D40000000000000000000000000000000009F
S1130D500000000000000000000001010101010189
S1130D600101010101010000000101000000000077
S1130D70000000000000000000000000000101006D
S1130D80000001000000000000000000000000005E
S1130D900001010101010101010100000000000046
S1130DA0000000000000000000000000000101013C
S1130DB00101010101000000000000000001010127
S1130DC00101010100000000000000000001010118
S1130DD0010001010000000000000000000000000C
S1130DE000000000010100000000010000000000FC
S1130DF000000000000000000101010101010100E8
S1130E0000000000000000000000000000000000DE
S1130E1001010101010101000000000001010000C5
S1130E2000000101010100000000000000010101B7
S1130E3001010000000000000101010100000000A8
S1130E40000000000000000000000001010000009C
S1130E50000101000000000000000000000000018B
S1130E60010100000000000000000000000000007C
S1130E700000000101010101010000000000000068
S1130E800000000000010001010101000000000059
S1130E900000010101010101010101010000000044
S1130EA0000000010000000000000000000000003D
S1130EB0000000010000000000010100000000002B
S1130EC0000000000000000100000000000000001D
S1130ED00000000000000000010101010101010106
S1130EE001010101010100000000000000010100F6
S1130EF000000000000000000001010100010101E8
S1130F0001010101010000000000000100000000D7
S1130F1000000000000000000000010100000000CB
S1130F2000010100000000000000000000000001BA
S1130F3001000000000000000000000101010101A7
S1130F400100000101010101010101010101010090
S1130F50000000000001000000000000000000008C
S1130F600101010000010101010101010100000072
S1130F70000000010000000000000000000000006C
S1130F800000010100000000000101000000000059
S1130F900000000000000000010101010101010145
S1130FA00101010100000000000001010100000135
S1130FB00101010101010101000000000001000024
S1130FC00000000000000001010101010101010114
S1130FD00001010101010000000000010000000007
S1130FE000000000000000000001010000000000FB
S1130FF000000000000000000000000000000000ED
S113100000000101010101000000000000000000D7
S113101000000101010100010101010101010101BF
S113102000000000000100000000000000000001BA
S113103001010101010101000000010101010000A1
S1131040000001010000000000000000000000009A
S1131050000100000000000000000000000000008B
S1131060000000000000000000000000000001017A
S11310700000000000000000000101010101010165
S11310800101000001010101010000000100000054
S11310900000000000000001010101010101010044
S11310A00000010101010000010101000000000035
S11310B0000000000000000000010000000000002B
S11310C0000000000000000000000000000000001C
S11310D0000000000000000001010000000000000A
S11310E000010101010101010101000001010101EF
S11310F001000101010100000000000000000101E5
S113110001010100010101010101010101010101CC
S113111001010000000000000000000000000000C9
S113112001000000000000000000000000000000BA
S113113000000000000000000000000000000000AB
S11311400000010100000000000101010101000193
S1131150010101010101010101010100010101017C
S11311600100000000000101010101010101010170
S11311700101010101010100000100000000000063
S1131180000000000000000001000000000000005A
S1131190000000000000000000000000000000004B
S11311A00000000000010101010000000101010034
S11311B0000101010101010101010101010101011C
S11311C00100000001000001010101010101010110
S11311D00101010101010101010000000000010100
S11311E001000000000000000000000000000001F9
S11311F001000000000000000000000000000000EA
S113120000000000000000000000000000000001D9
S113121001010100000001010101010101010101BD
S113122001010101010000000000000101000000B3
S113123000000000000000000000000000000000AA
S11312400000000000010100000000000000000098
S11312500000000000000001000000000000000089
S1131260000000000000000000000000000000007A
S11312700000000000000000000001010101010164
S1131280000000000000000000000000000000005A
S11312900101010100000000000000000000000046
S11312A00000000000000000000000000001000039
S11312B00000000000000000000000000000010128
S11312C0000000000000000000000000000000001A
S11312D0000000000000000000000000000000000A
S11312E000000000000001010101010101010101F0
S11312F001010101010101010101000000000000E0
S113130000000000000000000000000000000000D9
S113131000000000010100000000000000000000C7
S113132000000000000001000000000000000000B8
S113133000000000000000000000000000000000A9
S11313400000000000000000000000000000000099
S11313500000000001010101010101010000000081
S11313600000000000000000000000000000000079
S11313700000000000000000000000010100000067
S11313800000000000000000000000000001010057
S11313900000000000000000000000000000000049
S11313A00000000000000000000000000000000039
S11313B00000000000000000000000000000000029
S11313C00000000000010100000000000000000017
S11313D00000000000000000000000000000000009
S11313E000010101000000000000000000000000F6
S11313F000000000000100000000000000000000E8
S113140000000000000000000000000000000000D8
S113141000000000000000000000000000000000C8
S113142000000000000000000000000101010000B5
S113143000000000000001010000000000000000A6
S11314400000000000000001010100000000000095
S11314500000000000000000000000000101000086
S11314600000000000000000000000000000000078
S11314700000000000000000000000000000000068
S11314800000000000000000000000000000000058
S11314900001010100000000000000000000000144
S11314A00101010000000000000000010101010130
S11314B00100000000000000000000000000000027
S11314C00000000001000000000000000000000017
S11314D00000000000000000000000000000000008
S11314E000000000000000000000000000000000F8
S11314F000000000000000010101000000000000E5
S113150000000000000000000000010101010101D1
S113151001010101010100010100000000000000BF
S113152000000000000000000000000101000000B5
S113153000000000000000000000000000000000A7
S11315400000000000000000000000000000000097
S11315500000000000000000000000000101010183
S11315600000000000000000000000000000000077
S11315700000000001010100000000000000000064
S11315800101000000000000000000000000000055
S11315900000000100000000000000000000000046
S11315A00000000000000000000000000000000037
S11315B00000000000000000000000000000000027
S11315C00000010101000000000000000000000014
S11315D00000000000000000000000000001010005
S11315E000000000000000000001010000000000F5
S11315F000000000000000000000010100000000E5
S113160000000000000000000000000000000000D6
S113161000000000000000000000000000000000C6
S113162000000000000000000001010000000000B4
S113163000000000000000000000000000000000A6
S11316400000000000000000000000000000000096
S11316500000010100000000000000000000000084
S11316600000010000000000000000000000000075
S11316700000000000000000000000000000000066
S11316800000000000000000000000000000000056
S11316900000000000000000000000000000000046
S11316A00000000000000000000000000000000036
S11316B00000000000000000000000010000000025
S11316C00000000000000000000101000000000014
S11316D00000000000000000000000000000000006
S11316E000000000000000000000000000000000F6
S11316F000000000000000000000000000000000E6
S113170000000000000000000000000000000000D5
S113171000000000000000000000000000000000C5
S113172000000001010000000000000000000000B3
S113173000010000000000000000000000000000A4
S11317400000000000000000000000000000000095
S11317500000000000000000000000000000000085
S11317600000000000000000000000000000000075
S11317700000000000000000000000000000000065
S11317800000000000000000000000000100000054
S11317900000000000000000000100000000000044
S11317A00000000000000000000000000000000035
S11317B00000000000000000000000000000000025
S11317C00000000000000000000000000000000015
S11317D00000000000000000000000000000000005
S11317E000000000000000000000000000000000F5
S11317F000000000010100000000000000000000E3
S113180001010000000000000000000000000000D2
S113181000000000000000000000000000000000C4
S113182000000000000000000000000000000000B4
S113183000000000000000000000000000000000A4
S11318400000000000000000000000000000000094
S11318500000000000000000000000000001000083
S11318600000000000000000010100000000000072
S11318700000000000000000000000000000000064
S11318800000000000000000000000000000000054
S11318900000000000000000000000000000000044
S11318A00000000000000000000000000000000034
S11318B00000000000000000000000000000000024
S11318C00000000000010100000000000000000012
S11318D00100000000000000000000000000000003
S11318E000000000000000000000000000000000F4
S11318F000000000000000000000000000000000E4
S113190000000000000000000000000000000000D3
S113191000000000000000000000000000000000C3
S113192000000000000000000000000000010100B1
S113193000000000000000000100000000000000A2
S11319400000000000000000000000000000000093
S11319500000000000000000000000000000000083
S11319600000000000000000000000000000000073
S11319700000000000000000000000000000000063
S11319800000000000000000000000000000000053
S11319900000000000000100000000000000000042
S11319A00100000000000000000000000000000032
S11319B00000000000000000000000000000000023
S11319C00000000001010101010101010101010008
S11319D00000000000000000000000000000000003
S11319E000000000000000000000000000000000F3
S11319F000000000000000000000000000010100E1
S1131A0000000000000000000100000000000000D1
S1131A1000000000000000000000000000000000C2
S1131A2000000000000000000001010101010101AB
S1131A300101010101010101010101010000000096
S1131A400000000000000000000000000000000092
S1131A500000000000000000000000000000000082
S1131A60000000010101010100000000000000006D
S1131A700101000000000000000000000000000060
S1131A800000000000000000000000000000000052
S1131A90010101000000000000000000000000003F
S1131AA0000101010101010101000000000000002A
S1131AB00000000000000000000000000000000022
S1131AC0000000000000000001010101000000010D
S1131AD00000000000000000010100000000000000
S1131AE000000000000000000000000000000000F2
S1131AF000000000000000000100000000000000E1
S1131B0000000000000000000000000000000101CF
S1131B1001010101010101000000000000000000BA
S1131B2000000000000000000000000001010101AD
S1131B30010100000000000101000000000000009D
S1131B40010100000000000000000000000000008F
S1131B500000000000000000000000000000000180
S1131B600100000000000000000000000000000070
S1131B70000000000000000000000001010101015C
S1131B800101010101010100000101000001010145
S1131B90010101010101000000000000000000013A
S1131BA0010000000000000000010000000000002F
S1131BB00000000000000000000000000000000021
S1131BC0000000000000000101000000010101010B
S1131BD001010101010101010101010000000000F6
S1131BE000000000000000000101010101010101E9
S1131BF001010101010101010100000000000000D8
S1131C0000000000000001010000000000000000CE
S1131C1000010000000000000000000000000000BF
S1131C2000000000000000000000000000000001AF
S1131C30010000000101010100000000000000019A
S1131C400101010101010100000000000000000089
S1131C500000000000000000000000000000000080
S1131C60000000000000000000000000000101006E
S1131C70000000000000000000010100000000005E
S1131C800000000000000000000000000000000050
S1131C90000000000000000101000000000000003E
S1131CA0000000000000000000000000010101012C
S1131CB0010101010000000000000000000000001C
S1131CC00000000000000000000000000000000010
S1131CD000010101010100000000000000000000FB
S1131CE000000100000000000000000000000000EF
S1131CF000000000000000000000000000000001DF
S1131D0001000000000000000000000000000000CE
S1131D1000000000000000000001010101010101B8
S1131D2001010101010001000000000000000101A7
S1131D300101010101010101010101010100000092
S1131D40000000000000000000000101000000008D
S1131D50000000000000000000000000000000007F
S1131D60000000000000000101000000000000006D
S1131D70000000000000000000000000000000005F
S1131D800000000000000001010101010101010146
S1131D900101010101010101010101010000000033
S1131DA0000000010100000000000000000000002D
S1131DB0000000010000000000000000000000001E
S1131DC0000000000000000000000101000000000D
S1131DD001010101010101010101010000000000F4
S1131DE000000000000000000000000000000000EF
S1131DF000000000000000000000000000000000DF
S1131E0000000000000000000000000101000000CC
S1131E1000000000000000000000000101000000BC
S1131E2000000000000000000000000000000000AE
S1131E30000001010000000000000000000001019A
S1131E400101010101010101010100000000000084
S1131E50000000000000000000000000000000007E
S1131E60000000000000000000000000000000006E
S1131E70000000010100000000000000000000005C
S1131E80000000000101000000000000000000004C
S1131E90000000000000000000000001000000003D
S1131EA0000000000000000000000000000000012D
S1131EB00101010101010101010100000000000014
S1131EC0000000000000000000000000000000000E
S1131ED000000000000000000000010100000000FC
S1131EE000000000000000000000000000010100EC
S1131EF000000000000000000000000000000000DE
S1131F0000000001010000000000000000000000CB
S1131F1000000000000000000000000000010101BA
S1131F2001010101010101010101000000000000A3
S1131F30000000000000000000000000000000009D
S1131F40000101010000000000000000000000008A
S1131F50000000000000010000000000000000007C
S1131F60000000000000000000000000010101006A
S1131F70000000000000000000000000000000005D
S1131F800000000000000000000000000101010149
S1131F90010101010101010101010101010101012D
S1131FA00101010101010101010100000000000023
S1131FB0000000000000000000000000000000011C
S1131FC0010000000000000000000000000000000C
S1131FD000000000000001010101000000000000F9
S1131FE000000000000000000000000000000000ED
S1131FF000000000000000000000000000000000DD
S113200000000001010000000001000101010100C5
S113201000000000000000000000000000000000BC
S113202000000000000000000101000000000000AA
S1132030000000000000000000000000000000009C
S1132040000000000000000000000000000000008C
S1132050000000000000000000000000000000007C
S1132060000000000000000000000000000000006C
S1132070000001010000000000000000000000005A
S1132080000000000000000000000000000000004C
S11320900001010100000000000000000000000039
S11320A0000000000000000000000000000000002C
S11320B0000000000000000000000000000000001C
S11320C0000000000000000000000000000000000C
S11320D000000000000000000001010000000000FA
S11320E000000000000000000000000000000000EC
S11320F000000000000000000000000101010000D9
S113210000000000000000000000000000000000CB
S113211000000000000000000000000000000000BB
S113212000000000000000000000000000000000AB
S1132130000000000000000000000000000000019A
S1132140010000000000000000000000000000008A
S1132150000000000000000000000000000000007B
S11321600000000000010101000000000000000068
S1132170000000000000000000000000000000005B
S1132180000000000000000000000000000000004B
S1132190000000000000000000000000000000003B
S11321A00000000000010101000000000000000028
S11321B0000000000000000000000000000000001B
S11321C0000000000000000000000000000000010A
S11321D001010100000000000000000000000000F8
S11321E000000000000000000000000000000000EB
S11321F000000000000000000000000000000000DB
S113220000000000000000000000000101010000C7
S113221000000000000000000000000000000000BA
S113222000000000000000000000000000000000AA
S11322300000000000000000000001010101000096
S1132240000000000000000000000000000000008A
S1132250000000000000000000000000000000007A
S1132260000000000000000000000000000000006A
S11322700001010101000000000000000000000056
S1132280000000000000000000000000000000004A
S1132290000000000000000000000000000000003A
S11322A00000000000010101010101010000000023
S11322B0000000000000000000000000000000001A
S11322C0000000000000000000000000000000000A
S11322D000000000000001010101010000000000F5
S11322E000000000000000000000000000000000EA
S11322F000000000000000000000000000000000DA
S113230000000000000000000000000000000000C9
S113231000000101010101010101000000000000B1
S113232000000000000000000000000000000000A9
S11323300000000000000000000001010101010094
S11323400000000000000000000000000000000089
S11323500000000000000000000000000000000079
S11323600000000000000000000000000000000069
S11323700000000000000000000000000000000158
S1132380010101010101010101010100000000003E
S11323900000000000000000000000010101010134
S11323A00101010100000000000000000000000025
S11323B00000000000000000000000000000000019
S11323C00000000000000000000000000000000009
S11323D000000000000000000000000000000000F9
S11323E000000000000000000000000000000001E8
S11323F001010101010101010101010101010101C9
S113240001010101010101000000000000000000C1
S113241000000000000000000000000000000000B8
S113242000000000000000000000000000000000A8
S11324300000000000000000000000000000000098
S11324400000000000000000000000000000000088
S113277011241FBECFEFD4E0DEBFCDBF11E0A0E037
S1132780B1E0E2E7F7E302C005900D92AE3BB1077A
S1132790D9F721E0AEEBB1E001C01D92A83CB2072D
S11327A0E1F70E943E140C94B71B0C940000FC014A
S11327B020910B01261790F430E070E0621B730B3C
S11327C054E6569FC001579F900D11246FEF70E09F
S11327D0621B730B0E942C16608312C0621780F474
S11327E0A22FB0E0262F30E02A1B3B0B54E6529F69
S11327F0C001539F900D1124BD010E942C166083CB
S113280060910A01641798F4262F30E050E0421BCF
S1132810530B64E6649FC001659F900D11246FEF14
S113282070E0621B730B0E942C1661830895461797
S113283068F470E050E0461B570B24E6249FC00167
S1132840259F900D11240E942C1661830895CF9327
S1132850DF93FC0124E6269FC0011124CFEFD0E0D2
S1132860BE010E942C166083249FC0011124BE0166
S11328700E942C166183DF91CF910895CF93DF934B
S113288000D000D0CDB7DEB7E0900C01F0900D0180
S113289085B7806885BF80B7877F80BF80B78F7E0C
S11328A080BF80B7806280BF8AB388618ABB8FE1B2
S11328B090E00E941C160E94C81587EA91E60197D1
S11328C0F1F700C00000C7010E94C514C7010E94AF
S11328D0011567E0C7010E94F31420E330E048E6E5
S11328E050E060E770E0C7010E9426150CE510E097
S11328F08AE090E00E94111701501109C9F787017D
S11329000F5F1B4F6894BB24B2F80F2EFEE0CF2E4E
S1132910F1E0DF2EF02DF801B08260814081A080CB
S11329209080F0B2E0B250E070E0CE0101960E94D7
S1132930D713492D6A2DCE0103960E9427148E2D9C
S113294080721F928F938F2D80711F928F938C8131
S11329501F928F938B811F928F938A81282F082E29
S1132960000C330B3F938F938981282F082E000C82
S1132970330B3F938F93DF92CF920E94FB160FB6D7
S1132980F894DEBF0FBECDBFC6CFE0E0F0E18EEA23
S1132990808381EA80838AED808382E1808388EC6E
S11329A0808388EA80838FE3808385ED808380E859
S11329B0808381E8808380E5808389ED808381E260
S11329C0808380E2808382E080838BED808380E358
S11329D080838DEA8083108284EA808386EA808300
S11329E08FEA808308956055609300100895862FC0
S11329F08F70E0E0F0E1808362956F70605F6083C8
S1132A000895CF92DF92EF92FF921F93CF93DF93BB
S1132A106C0110EBE12C6894FF24F4F8C0E0D2E1DF
S1132A20F701108360E0C6010E94F71480E890E08B
S1132A3018820197E9F71F5F183B91F7DF91CF9157
S1132A401F91FF90EF90DF90CF9008952F923F92C7
S1132A504F925F926F927F928F929F92AF92BF92AA
S1132A60CF92DF92EF92FF920F931F93CF93DF9356
S1132A70CDB7DEB728970FB6F894DEBF0FBECDBF33
S1132A809A8389834B016A01332314F4295F3F4FEE
S1132A90C9019595879595958795959587959C8377
S1132AA08B83181619060CF05AC0F601EE0FFF1F9F
S1132AB0EE0FFF1FEE0FFF1FFE83ED83E12CF12CC1
S1132AC00F2EF0EB2F2EF02D412C512CD886CF82D7
S1132AD0A12C6894BB24B4F80F2E612CF2E17F2E54
S1132AE0F02D1C141D0414F12CC0849190E0022ECE
S1132AF002C0880F991F0A94E2F7382A2F5F3F4FCC
S1132B008F819885E80FF91F2830310571F7F50199
S1132B102082602F89819A810E94F714F301308208
S1132B200F5F1F4FC016D10619F40BC000E010E070
S1132B30F801EE0DFF1DE80DF91D20E030E0312C09
S1132B40D4CFFFEF4F1A5F0A23948D819E81E80E44
S1132B50F91EEB81FC814E165F0609F0C2CF289660
S1132B600FB6F894DEBF0FBECDBFDF91CF911F919A
S1132B700F91FF90EF90DF90CF90BF90AF909F9018
S1132B808F907F906F905F904F903F902F9008951B
S1132B90EF92FF920F931F93CF93DF938EE491E014
S1132BA00E9418170E94A0167C010E94A516C0E07E
S1132BB0D8E100E010E00E94A0168883988189176C
S1132BC011F00F5F1F4F2196C11580E2D80799F7C6
S1132BD0C7010E94A516C0E0D8E1E12CF12C0E94A7
S1132BE0A0169881981719F08FEFE81AF80A219621
S1132BF0C11580E2D80799F7FF92EF921F930F93C4
S1132C0084E691E09F938F930E94FB160F900F90A0
S1132C100F900F900F900F90DF91CF911F910F9114
S1132C20FF90EF9008955D9BFECF8CB908955F9B54
S1132C30FECF8CB190E0089590BD89B988E18AB93E
S1132C408EE88CBF80B58E7F80BD67E176E183E13D
S1132C5096E10E94B016089597FB072E16F400948F
S1132C6007D077FD09D00E94401607FC05D03EF43A
S1132C70909581959F4F0895709561957F4F089524
S1132C80AA1BBB1B51E107C0AA1FBB1FA617B7078E
S1132C9010F0A61BB70B881F991F5A95A9F78095AA
S1132CA09095BC01CD0108958F929F92AF92BF92EF
S1132CB0CF92DF92EF92FF92CF93DF93EC01688182
S1132CC079818A819B81611571058105910521F4C2
S1132CD064E279ED8BE597E02DE133EF41E050E0DC
S1132CE00E941D1B49015A019B01AC01A7EAB1E4F2
S1132CF00E943C1B6B017C01ACEEB4EFA501940176
S1132D000E944A1BDC01CB018C0D9D1DAE1DBF1D15
S1132D10B7FF03C00197A109B04888839983AA83A8
S1132D20BB839F77DF91CF91FF90EF90DF90CF909F
S1132D30BF90AF909F908F9008950E94541608956D
S1132D4080E091E00E9454160895A0E0B0E08093E2
S1132D50000190930101A0930201B093030108952F
S1132D600F931F93CF93DF93009731F4611571058F
S1132D7019F480E090E03AC08B01EC016EE070E061
S1132D8081E090E00E942919FC01892B91F380E8ED
S1132D9083830115110571F01387028781E883830A
S1132DA08091BE019091BF01892B21F4F093BF0162
S1132DB0E093BE012097C9F0D187C08783818260E8
S1132DC083838091C0019091C101892B71F4F093A8
S1132DD0C101E093C0018091C2019091C301892B8C
S1132DE021F4F093C301E093C201CF01DF91CF91AD
S1132DF01F910F910895A0E0B0E0E1E0F7E10C9499
S1132E005F1BAE014B5F5F4FFA0161917191AF019E
S1132E108091C0019091C1010E944817E2E00C9496
S1132E207B1B6091C0017091C1010E94831A0895B7
S1132E300F931F93CF93DF93E091C001F091C101F1
S1132E40238121FF1BC08C01D0E0C0E0F8018191F7
S1132E508F016091C0017091C101DB011896ED9161
S1132E60FC911997882331F00995892B79F3DFEFC9
S1132E70CFEFECCF8AE00995892B19F08FEF9FEF04
S1132E8002C08D2F9C2FDF91CF911F910F91089538
S1132E90ABE0B0E0EEE4F7E10C944F1B6C017B0176
S1132EA08A01FC0117821682838181FFCCC1CE0185
S1132EB001963C01F6019381F70193FD859193FFFF
S1132EC081917F01882309F4BAC1853239F493FDD5
S1132ED0859193FF81917F01853229F4B60190E0B9
S1132EE00E94831AE7CF912C212C312CFFE1F3159A
S1132EF0D8F08B3279F038F4803279F08332A1F44F
S1132F00232D20611DC08D3261F0803369F4232D9F
S1132F10216016C0832D8260382EE32DE4603E2E9E
S1132F202AC0F32DF8601DC037FC2DC020ED280FFA
S1132F302A3040F08E32B9F436FC81C1232D20644E
S1132F40322E19C036FE06C08AE0989E200D112448
S1132F50922E11C0EAE02E9E200D1124222EF32D74
S1132F60F0623F2E08C08C3621F4832D8068382E01
S1132F7002C0883641F4F70193FD859193FF819156
S1132F807F018111B3CF982F9F7D9554933028F4FE
S1132F900C5F1F4F9FE399830DC0833631F0833755
S1132FA071F0833509F059C021C0F801808189830B
S1132FB00E5F1F4F88248394912C530113C0280162
S1132FC0F2E04F0E511CF801A080B18036FE03C020
S1132FD0692D70E002C06FEF7FEFC5010E94781A7F
S1132FE04C018201F32DFF773F2E16C0280122E009
S1132FF0420E511CF801A080B18036FE03C0692D39
S113300070E002C06FEF7FEFC5010E94661A4C01A9
S1133010F32DF0683F2E820133FC1BC0822D90E01B
S113302088169906B0F4B60180E290E00E94831AF3
S11330302A94F4CFF50137FC859137FE81915F0125
S1133040B60190E00E94831A21102A9421E0821A8A
S113305091088114910471F7E8C0843611F089361F
S113306041F5F80137FE07C0608171818281938147
S11330700C5F1F4F08C060817181072E000C880B04
S1133080990B0E5F1F4FF32DFF763F2E97FF09C05C
S113309090958095709561957F4F8F4F9F4FF06805
S11330A03F2E2AE030E0A3010E94BF1A882E861822
S11330B045C0853731F4232D2F7EB22E2AE030E02F
S11330C025C0932D997FB92E8F36C1F018F4883519
S11330D079F0B5C0803719F0883721F0B0C0E92FF6
S11330E0E061BE2EB4FE0DC0FB2DF460BF2E09C0FE
S11330F034FE0AC0292F2660B22E06C028E030E034
S113310005C020E130E002C020E132E0F801B7FE62
S113311007C060817181828193810C5F1F4F06C05B
S11331206081718180E090E00E5F1F4FA3010E94D7
S1133130BF1A882E8618FB2DFF773F2E36FE0DC052
S1133140232D2E7FA22E891458F434FE0BC032FC9A
S113315009C0832D8E7EA82E05C0B82CA32C03C0D5
S1133160B82C01C0B92CA4FE0FC0FE01E80DF11D5E
S11331708081803321F49A2D997EA92E09C0A2FE64
S113318006C0B394B39404C08A2D867809F0B3942E
S1133190A3FC11C0A0FE06C0B21488F4280C922C23
S11331A09B180EC0B21460F4B60180E290E00E9455
S11331B0831AB394F7CFB21418F42B1802C0982CC6
S11331C0212CA4FE10C0B60180E390E00E94831A73
S11331D0A2FE17C0A1FC03C088E790E002C088E506
S11331E090E0B6010CC08A2D867859F0A1FE02C089
S11331F08BE201C080E2A7FC8DE2B60190E00E9460
S1133200831A891438F4B60180E390E00E94831A8B
S11332109A94F7CF8A94F301E80DF11D8081B601E9
S113322090E00E94831A8110F5CF222009F442CE47
S1133230B60180E290E00E94831A2A94F6CFF60148
S11332408681978102C08FEF9FEF2B96E2E10C9469
S11332506B1B0F931F93CF93DF93869F8001879FF0
S1133260100D969F100D1124C8010E944519EC0100
S1133270009729F0A80160E070E00E94711ACE0165
S1133280DF91CF911F910F9108950F931F93CF93C7
S1133290DF938230910510F482E090E0E091C60162
S11332A0F091C70120E030E0A0E0B0E0309719F1E0
S11332B0408151810281138148175907C8F084174E
S11332C0950769F4109731F012960C9312971396A0
S11332D01C9327C00093C6011093C70122C0211577
S11332E0310519F04217530718F49A01BD01EF0193
S11332F0DF01F801DBCF21153105F9F0281B390B6B
S11333002430310580F48A819B816115710521F097
S1133310FB019383828304C09093C7018093C60109
S1133320FE01329644C0FE01E20FF31F8193919394
S113333022503109398328833AC02091C401309145
S1133340C501232B41F420910601309107013093EC
S1133350C5012093C4012091040130910501211578
S1133360310541F42DB73EB7409108015091090150
S1133370241B350BE091C401F091C501E217F3075A
S1133380A0F42E1B3F0B2817390778F0AC014E5FD1
S11333905F4F2417350748F04E0F5F1F5093C50148
S11333A04093C4018193919302C0E0E0F0E0CF0127
S11333B0DF91CF911F910F910895CF93DF930097E1
S11333C009F481C0FC01329713821282A091C601D4
S11333D0B091C701109781F420813181820F931F2E
S11333E02091C4013091C5012817390751F5F09394
S11333F0C501E093C40167C0ED0120E030E0CE17C1
S1133400DF0740F44A815B819E0141155105F1F0CB
S1133410EA01F5CFD383C28340815181840F951F84
S1133420C817D90759F488819981840F951F02968A
S1133430918380838A819B819383828321153105C3
S113344029F4F093C701E093C6013DC0E901FB8371
S1133450EA8349915991C40FD51FEC17FD0761F414
S113346080819181840F951F0296E9019983888355
S1133470828193819B838A83E0E0F0E012968D91B0
S11334809C911397009719F0FD01DC01F7CF8D9102
S11334909C9111979D012E5F3F4F820F931F2091A6
S11334A0C4013091C5012817390769F4309729F40C
S11334B01092C7011092C60102C013821282B09307
S11334C0C501A093C401DF91CF910895FC0105903B
S11334D0615070400110D8F7809590958E0F9F1F12
S11334E00895DC0101C06D9341505040E0F7089508
S11334F0FC016150704001900110D8F780959095BF
S11335008E0F9F1F08950F931F93CF93DF93FB019B
S1133510238121FD03C08FEF9FEF2CC022FF16C033
S113352046815781248135814217530744F4A08191
S1133530B1819D012F5F3F4F318320838C9326817E
S113354037812F5F3F4F3783268314C08B01EC01F3
S1133550FB010084F185E02D0995892BE1F6D80162
S113356016968D919C911797019617969C938E931E
S11335701697CE01DF91CF911F910F910895FA0113
S1133580AA27283051F1203181F1E8946F936E7F9E
S11335906E5F7F4F8F4F9F4FAF4FB1E03ED0B4E08F
S11335A03CD0670F781F891F9A1FA11D680F791FD0
S11335B08A1F911DA11D6A0F711D811D911DA11DE1
S11335C020D009F468943F912AE0269F11243019F1
S11335D0305D3193DEF6CF010895462F4770405D8C
S11335E04193B3E00FD0C9F7F6CF462F4F70405D3B
S11335F04A3318F0495D31FD4052419302D0A9F796
S1133600EACFB4E0A6959795879577956795BA958F
S1133610C9F700976105710508959B01AC010A2E55
S113362006945795479537952795BA95C9F7620F2C
S1133630731F841F951FA01D0895052E97FB1EF46C
S113364000940E94341B57FD07D00E94861B07FC80
S113365003D04EF40C94341B50954095309521952D
S11336603F4F4F4F5F4F08959095809570956195AA
S11336707F4F8F4F9F4F08950E94A81BA59F900DC9
S1133680B49F900DA49F800D911D11240895B7FF40
S11336900C943C1B0E943C1B821B930B08952F929D
S11336A03F924F925F926F927F928F929F92AF92CE
S11336B0BF92CF92DF92EF92FF920F931F93CF931B
S11336C0DF93CDB7DEB7CA1BDB0B0FB6F894DEBFB2
S11336D00FBECDBF09942A88398848885F846E84D8
S11336E07D848C849B84AA84B984C884DF80EE8022
S11336F0FD800C811B81AA81B981CE0FD11D0FB62B
S1133700F894DEBF0FBECDBFED010895A1E21A2EDD
S1133710AA1BBB1BFD010DC0AA1FBB1FEE1FFF1F71
S1133720A217B307E407F50720F0A21BB30BE40BC1
S1133730F50B661F771F881F991F1A9469F7609508
S11337407095809590959B01AC01BD01CF010895C2
S1133750A29FB001B39FC001A39F700D811D1124CE
S1133760911DB29F700D811D1124911D0895F8942F
S1053770FFCF85
S1133772010000000000C8012000A49C00100D20DC
S11337824A5F783A202534642C204A5F793A20250E
S113379234642C20536C6964657220313A202533D9
S11337A2642C20536C6964657220323A2025336498
S11337B2207C7C7C7C202533642C25336400537468
S11337C2617274696E67205352414D20746573743B
S11337D22E2E2E005352414D207465737420636F54
S11337E26D706C657465642077697468200A253489
S11337F264206572726F727320696E2077726974C5
S11338026520706861736520616E64200A253464E2
S1133812206572726F727320696E207265747269A8
S11138226576616C2070686173650A0A0000A7
S9030000FC
