:100000000C9438000C9455000C9455000C94550039
:100010000C9455000C9455000C9455000C9455000C
:100020000C9455000C9455000C9455000C945500FC
:100030000C9455000C9455000C9455000C945500EC
:100040000C9455000C9455000C9455000C945500DC
:100050000C9455000C9455000C9455000C945500CC
:100060000C9455000C9455000C9455000C945500BC
:1000700011241FBECFEFD4E0DEBFCDBF11E0A0E062
:10008000B1E0E8E3F1E102C005900D92A239B107B9
:10009000D9F721E0A2E9B1E001C01D92A13AB2076F
:1000A000E1F70E94EA010C949A080C9400000E9467
:1000B000080147E067E08BE20E94EA0061E088E225
:1000C0000E94D30065EB89E20E94D30063E48AE2D8
:1000D0000E94D30060E08FE00E94D30008950F9348
:1000E0001F93CF938C01FC01608171817695679598
:1000F0007695679576956795809192018295807F38
:100100008F5C0E94D30082E30E94C500F8016081E9
:100110006295660F607E8F71682B80919201829547
:10012000807F8E5C0E94D30085E30E94C500807FA3
:10013000F8019281682F692B809192018295807FCE
:100140008B5C0E94D300F80182818823A9F0C0E073
:10015000F801EC0FF11D809192019C2F20E1829F0C
:10016000900D1124892F63818A5C0E94D300CF5F98
:10017000F8018281C81760F3809192018F570E9425
:10018000E500CF911F910F910895CF93C82FC49888
:1001900083E00E9412018C2F0E9412010E9416011E
:1001A000C49ACF910895CF93DF93D82FC62FC498C8
:1001B00082E00E9412018D2F0E9412018C2F0E945A
:1001C0001201C49ADF91CF910895C4980E94120140
:1001D000C49A08951F93CF93DF93182FD62FC42F5F
:1001E000C49885E00E941201812F0E9412018D2F78
:1001F0000E9412018C2F0E941201C49ADF91CF91AC
:100200001F910895C49880EC0E941201C49A089529
:100210000E940D010E940201089580EB87BB81E5D9
:100220008DB908958FB9779BFECF089580EF0E9416
:1002300012018FB10895E0E0F4E181E080838081D4
:1002400080930B01808180930A0108950F931F937F
:10025000CF93DF938C01EB01E0E0F4E181E0808358
:10026000408120813081E081A0910B014A1798F0F4
:10027000B0E050E04A1B5B0B64E6649FC001659FE1
:10028000900D11246FEF70E06A1B7B0B0E940F032F
:10029000D8016C930FC06A2F70E050E0461B570BDB
:1002A000F4E6F49FC001F59F900D11240E940F0306
:1002B000D8016C9360910A012617B0F0462F50E0E8
:1002C000622F70E0641B750B24E6269FC001279FF8
:1002D000900D11246FEF70E0641B750B0E940F03EB
:1002E000D80111966C9310C070E0422F50E0461B6D
:1002F000570B24E6249FC001259F900D11240E94D6
:100300000F03D80111966C9324E6239FC00111249A
:100310000FEF10E0B8010E940F0368832E9FC00109
:100320001124B8010E940F036983DF91CF911F91BF
:100330000F910895CF93DF93CDB7DEB72B970FB60C
:10034000F894DEBF0FBECDBF63E971E085E991E0AF
:100350000E94260187E08B8330919501832F032E25
:10036000000C990B99231CF49195819591098C832C
:1003700020919601822F022E000C990B99231CF4D8
:100380009195819591098D8386B382708E833323F5
:1003900014F081E101C080E0222314F091E101C05A
:1003A00090E08F839887E3E9F1E0808189878181FC
:1003B0008A8780E190E09A838983CE0101960E942A
:1003C0006F002B960FB6F894DEBF0FBECDBFDF9146
:1003D000CF910895CF93DF93CDB7DEB72B970FB6AC
:1003E000F894DEBF0FBECDBF85B7806885BF80B7EC
:1003F000877F80BF80B78F7E80BF80B7806280BFDD
:100400008AB388618ABB8FE190E00E94FF020E945C
:10041000AB022FEF8FEF9EE0215080409040E1F73C
:1004200000C000000E9456020E94930287E00E94D2
:1004300084020CE510E08AE090E00E94150501506E
:100440001109C9F70E94570088E08B8381E68C83ED
:1004500082E68D8383E68E8384E68F8385E68887B4
:1004600086E6898787E68A8788E68B8786E090E03C
:100470009A8389830E941B016894FF24F1F80CE0A1
:1004800011E01F92FF921F930F930E94FF04CE0171
:1004900001960E949A018FEF97E10197F1F700C052
:1004A00000000F900F900F900F90EBCFE0E0F0E185
:1004B0008EEA808381EA80838AED808382E1808373
:1004C00088EC808388EA80838FE3808385ED808356
:1004D00080E8808381E8808380E5808389ED808364
:1004E00081E2808380E2808382E080838BED808361
:1004F00080E380838DEA8083108284EA808386EAA9
:1005000080838FEA808308958770805580930010E0
:100510000895982F9F70E0E0F0E1908382958F70AE
:10052000805F808308951F93CF93DF9310E0C0E036
:10053000D2E1812F0E94840280E00E94890280E83B
:1005400090E018820197E9F71F5F183091F7DF916B
:10055000CF911F910895EF92FF920F931F93CF9326
:10056000DF9382E291E00E941C050E94A4047C01BA
:100570000E94A904C0E0D8E100E010E00E94A404B9
:1005800088839881891711F00F5F1F4F2196C1153D
:1005900080E2D80799F7C7010E94A904C0E0D8E11A
:1005A000E12CF12C0E94A4049881981719F08FEF88
:1005B000E81AF80A2196C11580E2D80799F7FF9248
:1005C000EF921F930F9388E391E09F938F930E9484
:1005D000FF040F900F900F900F900F900F90DF91EE
:1005E000CF911F910F91FF90EF9008955D9BFECFEB
:1005F0008CB908955F9BFECF8CB190E0089590BDBB
:1006000089B988E18AB98EE88CBF80B58E7F80BDBC
:100610006AEF72E086EF92E00E94B404089597FBBF
:10062000072E16F4009407D077FD09D00E9423030B
:1006300007FC05D03EF4909581959F4F08957095E5
:1006400061957F4F0895AA1BBB1B51E107C0AA1FEC
:10065000BB1FA617B70710F0A61BB70B881F991F63
:100660005A95A9F780959095BC01CD0108950F93F7
:100670001F93CF93DF938230910510F482E090E0D6
:10068000E0919901F0919A0120E030E0A0E0B0E023
:10069000309719F140815181028113814817590720
:1006A000C8F08417950769F4109731F012960C93EF
:1006B000129713961C9327C00093990110939A01E7
:1006C00022C02115310519F04217530718F49A0179
:1006D000BD01EF01DF01F801DBCF21153105F9F094
:1006E000281B390B2430310580F48A819B816115E8
:1006F000710521F0FB019383828304C090939A01DA
:1007000080939901FE01329644C0FE01E20FF31F6F
:100710008193919322503109398328833AC02091E3
:10072000970130919801232B41F4209102013091DF
:10073000030130939801209397012091000130919B
:1007400001012115310541F42DB73EB74091040157
:1007500050910501241B350BE0919701F091980110
:10076000E217F307A0F42E1B3F0B2817390778F088
:10077000AC014E5F5F4F2417350748F04E0F5F1FE7
:1007800050939801409397018193919302C0E0E0C8
:10079000F0E0CF01DF91CF911F910F910895CF939A
:1007A000DF93009709F481C0FC0132971382128213
:1007B000A0919901B0919A01109781F42081318123
:1007C000820F931F209197013091980128173907C4
:1007D00051F5F0939801E093970167C0ED0120E097
:1007E00030E0CE17DF0740F44A815B819E0141155E
:1007F0005105F1F0EA01F5CFD383C28340815181E5
:10080000840F951FC817D90759F488819981840FDF
:10081000951F0296918380838A819B819383828333
:100820002115310529F4F0939A01E09399013DC017
:10083000E901FB83EA8349915991C40FD51FEC1755
:10084000FD0761F480819181840F951F0296E90173
:1008500099838883828193819B838A83E0E0F0E09F
:1008600012968D919C911397009719F0FD01DC0170
:10087000F7CF8D919C9111979D012E5F3F4F820F75
:10088000931F20919701309198012817390769F437
:10089000309729F410929A011092990102C01382A4
:1008A0001282B0939801A0939701DF91CF910895A0
:1008B0008F929F92AF92BF92CF92DF92EF92FF9270
:1008C000CF93DF93EC01688179818A819B816115E7
:1008D00071058105910521F464E279ED8BE597E0DE
:1008E0002DE133EF41E050E00E94000849015A0138
:1008F0009B01AC01A7EAB1E40E941F086B017C01D7
:10090000ACEEB4EFA50194010E942D08DC01CB01EF
:100910008C0D9D1DAE1DBF1DB7FF03C00197A10922
:10092000B04888839983AA83BB839F77DF91CF9157
:10093000FF90EF90DF90CF90BF90AF909F908F90FF
:1009400008950E945804089586E091E00E9458049A
:100950000895A0E0B0E08093060190930701A09372
:100960000801B093090108950F931F93CF93DF936C
:10097000009731F46115710519F480E090E03AC0F8
:100980008B01EC016EE070E081E090E00E942D07A9
:10099000FC01892B91F380E883830115110571F027
:1009A0001387028781E8838380919B0190919C014A
:1009B000892B21F4F0939C01E0939B012097C9F0CF
:1009C000D187C08783818260838380919D019091CC
:1009D0009E01892B71F4F0939E01E0939D0180911B
:1009E0009F019091A001892B21F4F093A001E09345
:1009F0009F01CF01DF91CF911F910F910895A0E04A
:100A0000B0E0E5E0F5E00C944208AE014B5F5F4FCB
:100A1000FA0161917191AF0180919D0190919E01C8
:100A20000E944C05E2E00C945E0860919D0170917B
:100A30009E010E94660708950F931F93CF93DF9343
:100A4000E0919D01F0919E01238121FF1BC08C014B
:100A5000D0E0C0E0F80181918F0160919D0170911B
:100A60009E01DB011896ED91FC911997882331F0D6
:100A70000995892B79F3DFEFCFEFECCF8AE0099569
:100A8000892B19F08FEF9FEF02C08D2F9C2FDF91E4
:100A9000CF911F910F910895ABE0B0E0E2E5F5E052
:100AA0000C9432086C017B018A01FC0117821682CA
:100AB000838181FFCCC1CE0101963C01F601938177
:100AC000F70193FD859193FF81917F01882309F4BC
:100AD000BAC1853239F493FD859193FF81917F01ED
:100AE000853229F4B60190E00E946607E7CF912C89
:100AF000212C312CFFE1F315D8F08B3279F038F44A
:100B0000803279F08332A1F4232D20611DC08D3213
:100B100061F0803369F4232D216016C0832D82603B
:100B2000382EE32DE4603E2E2AC0F32DF8601DC060
:100B300037FC2DC020ED280F2A3040F08E32B9F45A
:100B400036FC81C1232D2064322E19C036FE06C02A
:100B50008AE0989E200D1124922E11C0EAE02E9E6C
:100B6000200D1124222EF32DF0623F2E08C08C366A
:100B700021F4832D8068382E02C0883641F4F701B5
:100B800093FD859193FF81917F018111B3CF982FC0
:100B90009F7D9554933028F40C5F1F4F9FE39983FA
:100BA0000DC0833631F0833771F0833509F059C0B9
:100BB00021C0F801808189830E5F1F4F88248394B0
:100BC000912C530113C02801F2E04F0E511CF80183
:100BD000A080B18036FE03C0692D70E002C06FEFC7
:100BE0007FEFC5010E945B074C018201F32DFF7767
:100BF0003F2E16C0280122E0420E511CF801A080B1
:100C0000B18036FE03C0692D70E002C06FEF7FEF48
:100C1000C5010E9449074C01F32DF0683F2E820167
:100C200033FC1BC0822D90E088169906B0F4B60103
:100C300080E290E00E9466072A94F4CFF50137FC29
:100C4000859137FE81915F01B60190E00E946607B1
:100C500021102A9421E0821A91088114910471F7DD
:100C6000E8C0843611F0893641F5F80137FE07C037
:100C700060817181828193810C5F1F4F08C0608108
:100C80007181072E000C880B990B0E5F1F4FF32DFF
:100C9000FF763F2E97FF09C09095809570956195DE
:100CA0007F4F8F4F9F4FF0683F2E2AE030E0A30127
:100CB0000E94A207882E861845C0853731F4232D5F
:100CC0002F7EB22E2AE030E025C0932D997FB92ED9
:100CD0008F36C1F018F4883579F0B5C0803719F037
:100CE000883721F0B0C0E92FE061BE2EB4FE0DC000
:100CF000FB2DF460BF2E09C034FE0AC0292F2660E8
:100D0000B22E06C028E030E005C020E130E002C08D
:100D100020E132E0F801B7FE07C060817181828175
:100D200093810C5F1F4F06C06081718180E090E06D
:100D30000E5F1F4FA3010E94A207882E8618FB2D6D
:100D4000FF773F2E36FE0DC0232D2E7FA22E891455
:100D500058F434FE0BC032FC09C0832D8E7EA82EC1
:100D600005C0B82CA32C03C0B82C01C0B92CA4FE1C
:100D70000FC0FE01E80DF11D8081803321F49A2D12
:100D8000997EA92E09C0A2FE06C0B394B39404C0F4
:100D90008A2D867809F0B394A3FC11C0A0FE06C08A
:100DA000B21488F4280C922C9B180EC0B21460F474
:100DB000B60180E290E00E946607B394F7CFB214C8
:100DC00018F42B1802C0982C212CA4FE10C0B601D8
:100DD00080E390E00E946607A2FE17C0A1FC03C05A
:100DE00088E790E002C088E590E0B6010CC08A2D4B
:100DF000867859F0A1FE02C08BE201C080E2A7FC18
:100E00008DE2B60190E00E946607891438F4B601BD
:100E100080E390E00E9466079A94F7CF8A94F301EA
:100E2000E80DF11D8081B60190E00E9466078110F7
:100E3000F5CF222009F442CEB60180E290E00E9474
:100E400066072A94F6CFF6018681978102C08FEF5C
:100E50009FEF2B96E2E10C944E080F931F93CF93D4
:100E6000DF93869F8001879F100D969F100D1124A0
:100E7000C8010E943703EC01009729F0A80160E047
:100E800070E00E945407CE01DF91CF911F910F9126
:100E90000895FC010590615070400110D8F78095CD
:100EA00090958E0F9F1F0895DC0101C06D934150F6
:100EB0005040E0F70895FC0161507040019001102E
:100EC000D8F7809590958E0F9F1F08950F931F93CD
:100ED000CF93DF93FB01238121FD03C08FEF9FEFB1
:100EE0002CC022FF16C046815781248135814217CC
:100EF000530744F4A081B1819D012F5F3F4F31839F
:100F000020838C93268137812F5F3F4F3783268341
:100F100014C08B01EC01FB010084F185E02D0995E3
:100F2000892BE1F6D80116968D919C911797019621
:100F300017969C938E931697CE01DF91CF911F91B8
:100F40000F910895FA01AA27283051F1203181F13B
:100F5000E8946F936E7F6E5F7F4F8F4F9F4FAF4FC1
:100F6000B1E03ED0B4E03CD0670F781F891F9A1FD4
:100F7000A11D680F791F8A1F911DA11D6A0F711D88
:100F8000811D911DA11D20D009F468943F912AE094
:100F9000269F11243019305D3193DEF6CF0108957C
:100FA000462F4770405D4193B3E00FD0C9F7F6CFAD
:100FB000462F4F70405D4A3318F0495D31FD405275
:100FC000419302D0A9F7EACFB4E0A695979587950B
:100FD00077956795BA95C9F70097610571050895EA
:100FE0009B01AC010A2E0694579547953795279596
:100FF000BA95C9F7620F731F841F951FA01D08952E
:10100000052E97FB1EF400940E94170857FD07D089
:101010000E94690807FC03D04EF40C941708509501
:101020004095309521953F4F4F4F5F4F08959095D4
:101030008095709561957F4F8F4F9F4F08950E94C7
:101040008B08A59F900DB49F900DA49F800D911DBE
:1010500011240895B7FF0C941F080E941F08821BDB
:10106000930B08952F923F924F925F926F927F92CF
:101070008F929F92AF92BF92CF92DF92EF92FF92A8
:101080000F931F93CF93DF93CDB7DEB7CA1BDB0B54
:101090000FB6F894DEBF0FBECDBF09942A883988F9
:1010A00048885F846E847D848C849B84AA84B98400
:1010B000C884DF80EE80FD800C811B81AA81B9810C
:1010C000CE0FD11D0FB6F894DEBF0FBECDBFED0120
:1010D0000895A1E21A2EAA1BBB1BFD010DC0AA1F79
:1010E000BB1FEE1FFF1FA217B307E407F50720F091
:1010F000A21BB30BE40BF50B661F771F881F991F0C
:101100001A9469F760957095809590959B01AC0154
:10111000BD01CF010895A29FB001B39FC001A39F5D
:10112000700D811D1124911DB29F700D811D112420
:08113000911D0895F894FFCF12
:101138000000A101200001000000A0A050726F670C
:1011480072616D2072756E6E696E67202564200D60
:101158000A005374617274696E67205352414D20BE
:10116800746573742E2E2E005352414D207465738E
:101178007420636F6D706C6574656420776974683A
:10118800200A253464206572726F727320696E209C
:10119800777269746520706861736520616E642078
:1011A8000A253464206572726F727320696E20722A
:1011B800657472696576616C2070686173650A0A86
:0211C800000025
:00000001FF
