:100000000C94600D0C947D0D0C947D0D0C947D0D65
:100010000C947D0D0C947D0D0C947D0D0C947D0D38
:100020000C947D0D0C947D0D0C947D0D0C947D0D28
:100030000C947D0D0C947D0D0C947D0D0C947D0D18
:100040000C947D0D0C947D0D0C947D0D0C947D0D08
:100050000C947D0D0C947D0D0C947D0D0C947D0DF8
:100060000C947D0D0C947D0D0C947D0D0C947D0DE8
:100070000000000000000000000000000000000080
:100080000000000000000000000000000000000070
:100090000000000000000000000000000000000060
:1000A0000000000000000000000000000000000050
:1000B0000000000000000000000000000000000040
:1000C0000000000000000000000000000000000030
:1000D0000000000000000000000000000000000020
:1000E0000000000000000000000000000000000010
:1000F0000000000000000000000000000000000000
:1001000000000000000000000000000000000000EF
:1001100000000000000000000000000000000000DF
:1001200000000000000000000000000000000000CF
:1001300000000000000000000000000000000000BF
:1001400000000000000000000000000000000000AF
:10015000000000000000000000000000000000009F
:10016000000000000000000000000000000000008F
:10017000000000000000000000000000000000007F
:10018000000000000000000000000000000000006F
:10019000000000000000000000000000000000005F
:1001A000000000000000000000000000000000004F
:1001B000000000000000000000000000000000003F
:1001C000000000000000000000000000000000002F
:1001D000000000000000000000000000000000001F
:1001E000000000000000000000000000000000000F
:1001F00000000000000000000000000000000000FF
:1002000000000000000000000001010101010101E7
:1002100001000000000101010100000000000000D9
:1002200000000000000000000000000000000000CE
:1002300000000000000000000000000000000000BE
:1002400000000000000000000101010101010101A6
:100250000101010101010101010101000000000093
:10026000000000000000000000000000000000008E
:10027000000000000000000000000000000000007E
:100280000000000000000001010101010101010165
:100290000101010101010101010101000000000053
:1002A000000000000000000000000000000000004E
:1002B000000000000000000000000000000000003E
:1002C0000000000000000101010101010101010124
:1002D0000101010101010101010101010000000012
:1002E000000000000000000000000000000000000E
:1002F00000000000000000000000000000000000FE
:1003000000000000000101010101010101010101E2
:1003100001010101010101010101010100000000D1
:1003200000000000000000000000000000000000CD
:1003300000000000000000000000000000000000BD
:1003400000000000000101010101010101010101A2
:10035000010101010101010101010101010100008F
:10036000000000000000000000000000000000008D
:10037000000000000000000000000000000000007D
:100380000000000001010101010101010101010161
:10039000010101010101010101010101010101004E
:1003A000000000000000000000000000000000004D
:1003B000000000000000000000000000000000003D
:1003C0000000000101010101010101010101010120
:1003D000010101010101010101010101010101010D
:1003E000000000000000000000000000000000000D
:1003F00000000000000000000000000000000000FD
:1004000000000101010101010101010101010101DE
:1004100001010000010101010101010101000101CF
:1004200001000000000000000000000000000000CB
:1004300000000000000000000000000000000000BC
:10044000000101010101010101010101000001019F
:100450000101010000000100000101010100000094
:10046000010000000000000000000000000000008B
:10047000000000000000000000000000000000007C
:10048000000101010101010101010100000101015F
:100490000101010000000000000101010100000055
:1004A000000000000000000000000000000000004C
:1004B000000000000000000000000000000000003C
:1004C000010101010101010101010101010001011D
:1004D0000101000000010100000101010100010112
:1004E000010000000000000000000000000000000B
:1004F00000000000000000000000000000000000FC
:1005000001010101010101010101010101010101DB
:1005100001010101010101010101010101010101CB
:1005200000000000000000000000000000000000CB
:1005300000000000000000000000000000000001BA
:10054000010101010101010101010101010101019B
:10055000010101010101010101010101010101008C
:10056000000000000000000000000000000000008B
:10057000000000000000000000000000000000017A
:10058000010101010101010101010101010101015B
:10059000010101010101010101010101010000004E
:1005A000000000000000000000000000000000004B
:1005B000000000000000000000000000000000013A
:1005C000010101010101010101010101010101011B
:1005D000010101010101010101010101010100000D
:1005E000000000000000000000000000000000000B
:1005F00000000000000000000000000000000001FA
:1006000001010101010101010101010101010101DA
:1006100001010101010101010101010101010100CB
:1006200000000000000000000000000000000000CA
:1006300000000000000000000000000000000001B9
:10064000010101010101010101010101010101019A
:10065000010101010101010101010101010101008B
:10066000000000000000000000000000000000008A
:100670000000000000000000000000000000000179
:10068000010101010101010101010101010101015A
:10069000010101010101010101010101010101004B
:1006A000000000000000000000000000000000004A
:1006B0000000000000000000000000000000000139
:1006C000010101010101010101010101010101011A
:1006D000010101010101010101010101010101010A
:1006E000000000000000000000000000000000000A
:1006F00000000000000000000000000000000001F9
:1007000001010101010101010101010101010101D9
:1007100001010101010101010101010101010101C9
:1007200000000000000000000000000000000000C9
:1007300000000000000000000000000000000001B8
:100740000101010101010101010101010101010199
:10075000010101010101010101010101010101008A
:100760000000000000000000000000000000000089
:100770000000000000000000000000000000000178
:100780000101010101010101010101010101010159
:10079000010101010101010101010101010101004A
:1007A0000000000000000000000000000000000049
:1007B0000000000000000000000000000000000039
:1007C0000101010101010101010101010101010119
:1007D000010101010101010101010101010100000B
:1007E0000000000000000000000000000000000009
:1007F00000000000000000000000000000000000F9
:1008000000010101010101010101010101010101D9
:1008100001010101010101010101010100000000CC
:1008200000000000000000000000000000000000C8
:1008300000000000000000000000000000000000B8
:10084000000001010101010101010101010101019A
:10085000010101010101010101010000000000008E
:100860000000000000000000000000000000000088
:100870000000000000000000000000000000000078
:10088000000000000001010101010101010101015D
:100890000101010101010101000000000000000050
:1008A0000000000000000000000000000000000048
:1008B0000000000000000000000000000000000038
:1008C0000000000000000000000000010101010123
:1008D0000101010101000000000000000000000013
:1008E0000000000000000000000000000000000008
:1008F00000000000000000000000000000000000F8
:1009000000000000000000000000000000000000E7
:1009100000000000000000000000000000000000D7
:100B000000000000000000000000000000010101E2
:100B100001010000000000000000000000000000D3
:100B200000000000000000000000000000000000C5
:100B300000000000000000000000000000000000B5
:100B400000000000000000000000010101010100A0
:100B50000001010101000000000000000000000091
:100B60000000000000000000000000000000000085
:100B70000000000000000000000000000000000075
:100B80000000000000000000010101000000000062
:100B90000000000000010100000000000000000053
:100BA0000000000000000000000000000000000045
:100BB0000000000000000000000000000000000035
:100BC0000000000000000001000000000000000024
:100BD0000000000000000101000000000000000013
:100BE0000000000000000000000000000000000005
:100BF00000000000000000000000000000000000F5
:100C000000000000000001000000000000000000E3
:100C100000000000000000000100000000000000D3
:100C200000000000000000000000000000000000C4
:100C300000000000000000000000000000000000B4
:100C400000000000000100000000000000000000A3
:100C50000000000000000000000100000000000093
:100C60000000000000000000000000000000000084
:100C70000000000000000000000000000000000074
:100C80000000000000010000000000000000000063
:100C90000000000000000000000001000000000053
:100CA0000000000000000000000000000000000044
:100CB0000000000000000000000000000000000034
:100CC0000000000001010000000000000000000022
:100CD0000000000000000000000001010000000012
:100CE0000000000000000000000000000000000004
:100CF00000000000000000000000000000000000F4
:100D000000000000010000000000000000000101E0
:100D100001010101010101010100000100000000C9
:100D200000000000000000000000000000000000C3
:100D300000000000000000000000000000000000B3
:100D400000000000010000000000000000000000A2
:100D5000010101010000000000000001000000008E
:100D60000000000000000000000000000000000083
:100D70000000000000000000000000000000000073
:100D8000000000000100000000000000010101015E
:100D9000000000000101010101000001000000004D
:100DA0000000000000000000000000000000000043
:100DB0000000000000000000000000000000000033
:100DC0000000000001000000000000000000000121
:100DD000010100000000000001000000010000000F
:100DE0000000000000000000000000000000000003
:100DF00000000000000000000000000000000000F3
:100E000000000000010000000000000000010100DF
:100E100000000000000000000000010001000000D0
:100E200000000000000000000000000000000000C2
:100E300000000000000000000000000000000000B2
:100E400000000000010000000000000000000000A1
:100E50000000000000000001000000000100000090
:100E60000000000000000000000000000000000082
:100E70000000000000000000000000000000000072
:100E8000000000000100000000000000000001015F
:100E90000100000000000000000000000100000050
:100EA0000000000000000000000000000000000042
:100EB0000000000000000000000000000000000032
:100EC000000000000100000000000000000001011F
:100ED000010101000000000001010100010000000B
:100EE0000000000000000000000000000000000002
:100EF00000000000000000000000000000000000F2
:100F000000000000010000000000000000000101DE
:100F100001010100000000010101010001000000C9
:100F200000000000000000000000000000000000C1
:100F300000000000000000000000000000000000B1
:100F400000000000010000000000000000000000A0
:100F5000000000000000000000000100000100008F
:100F60000000000000000000000000000000000081
:100F70000000000000000000000000000000000071
:100F80000000000000010000000000000000000060
:100F9000000000000000010000000000000100004F
:100FA0000000000000000000000000000000000041
:100FB0000000000000000000000000000000000031
:100FC000000000000001000000010000000000001F
:100FD000000000000000000100000000000100000F
:100FE0000000000000000000000000000000000001
:100FF00000000000000000000000000000000000F1
:1010000000000000000001000001000000000000DE
:1010100000000000000000010100000000010000CD
:1010200000000000000000000000000000000000C0
:1010300000000000000000000000000000000000B0
:10104000000000000000010000000100000000009E
:10105000000001010000000001000000010000008C
:101060000000000000000000000000000000000080
:101070000000000000000000000000000000000070
:10108000000000000000010100000100000000005D
:10109000000001010001000100000000010000004B
:1010A0000000000000000000000000000000000040
:1010B0000000000000000000000000000000000030
:1010C000000000000000010100000101000000001C
:1010D000000000000000000100000001010000000D
:1010E0000000000000000000000000000000000000
:1010F00000000000000000000000000000000000F0
:1011000000000000000001010000010100000000DB
:1011100000000000000000000000000100000000CE
:1011200000000000000000000000000000000000BF
:1011300000000000000000000000000000000000AF
:10114000000000000000010100000100010000009B
:101150000001010101010101000001000000000087
:10116000000000000000000000000000000000007F
:10117000000000000000000000000000000000006F
:10118000000000000000010000000100000101005B
:10119000000000000000000000000100000000004E
:1011A000000000000000000000000000000000003F
:1011B000000000000000000000000000000000002F
:1011C000000000000000010000000000000001011C
:1011D000000000000000000000010100000000000D
:1011E00000000000000000000000000000000000FF
:1011F00000000000000000000000000000000000EF
:1012000000000000000001000000000000000001DC
:1012100001000000000000000001000000000000CC
:1012200000000000000000000000000000000000BE
:1012300000000000000000000000000000000000AE
:10124000000000000001000000000000000000009D
:101250000101010000000001010000000000000089
:10126000000000000000000000000000000000007E
:10127000000000000000000000000000000000006E
:10128000000000000001000000010100000000005B
:101290000000010101010100000000000000000049
:1012A000000000000000000000000000000000003E
:1012B000000000000000000000000000000000002E
:1012C000000000000100000001000000000000001C
:1012D000000001000001000000000000000000000C
:1012E00000000000000000000000000000000000FE
:1012F00000000000000000000000000000000000EE
:1013000000010101010000010100000000000000D7
:1013100000000000000001010101010101010000C5
:1013200000000000000000000000000000000000BD
:1013300000000000000000000000000000000001AC
:10134000010000000000000000000000000000009C
:10135000000000000000000000000000000000008D
:10136000000000000000000000000000000000007D
:10137000000000000000000000000000000000006D
:10138000000000000000000000000000000001015B
:10139000000100000000000000000000000000004C
:1013A000000000000000000000000000000000003D
:1013B000000000000000000000000000000000002D
:1013C000000000000000000000000000000000001D
:1013D000010000000000000000000000000000000C
:1013E00000000000000000000000000000000000FD
:1013F00000000000000000000000000000000000ED
:1014000000000000000000000000000000000000DC
:1014100000000000000000000000000000000000CC
:1014200000000000000000000000000000000000BC
:1014300000000000000000000000000000000000AC
:10144000000000000000000000000000000000009C
:10145000000000000000000000000000000000008C
:10146000000000000000000000000000000000007C
:1014700000000000005C00000C000C007C287C28B0
:1014800058DC68002410480028542840000C000054
:10149000007884008478000054385400107C1000D8
:1014A00080400000101010000040000060100C0090
:1014B00038543800487C40004864580044542C009C
:1014C0001C107C005C5424003854240064140C006C
:1014D00068542C0048543800004800008048000040
:1014E000102844002828280044281000045408002C
:1014F00038445C00781478007C5428003844280074
:101500007C4438007C5444007C140400384474004B
:101510007C107C00447C440020403C007C106C002B
:101520007C4040007C187C0078103C003844380037
:101530007C1408003844B8007C1468004854240027
:10154000047C04007C407C003C603C007C307C00DF
:101550006C106C000C700C0064544C00007C440057
:101560000C106000447C00000804080080808000AB
:1015700000040800304878007C48300030484800BB
:1015800030487C00306850001078140090A8780033
:101590007C08700050744000808074007C106800EB
:1015A000447C4000781078007808700030483000A3
:1015B000F82810003048F80078100800505828002B
:1015C000083C4800384078003840380078207800DF
:1015D0004830480098A07800486858001078840087
:1015E000007C00008478100008040804000000005B
:1015F0000000005F00000007000700147F147F1444
:10160000242A7F2A12231308646236495522500087
:1016100005030000001C2241000041221C00082A92
:101620001C2A0808083E0808005030000008080876
:101630000808006060000020100804023E5149457F
:101640003E00427F400042615149462141454B31B5
:101650001814127F1027454545393C4A4949300145
:10166000710905033649494936064949291E00369C
:1016700036000000563600000008142241141414ED
:10168000141441221408000201510906324979411B
:101690003E7E1111117E7F494949363E414141222A
:1016A0007F4141221C7F494949417F090901013E8F
:1016B000414151327F0808087F00417F41002040AE
:1016C000413F017F081422417F404040407F020497
:1016D000027F7F0408107F3E4141413E7F09090996
:1016E000063E4151215E7F09192946464949493143
:1016F00001017F01013F4040403F1F2040201F7FEC
:101700002018207F631408146303047804036151D4
:1017100049454300007F4141020408102041417FB8
:101720000000040201020440404040400001020465
:101730000020545454787F4844443838444444206A
:10174000384444487F3854545418087E090102082C
:101750001454543C7F0804047800447D4000204029
:10176000443D00007F10284400417F40007C041865
:1017700004787C0804047838444444387C141414F5
:1017800008081414187C7C08040408485454542095
:10179000043F4440203C4040207C1C2040201C3C16
:1017A0004030403C44281028440C5050503C446485
:1017B000544C44000836410000007F0000004136D0
:1017C0000800020103020100000000000000000008
:1017D000065F5F060000000007070007070000140F
:1017E0007F7F147F7F1400242E6B6B3A120000461B
:1017F0006630180C666200307A4F5D377A48000414
:1018000007030000000000001C3E634100000000D0
:1018100041633E1C000000082A3E1C1C3E2A0808AA
:10182000083E3E0808000000A0E06000000000083C
:101830000808080808000000006060000000006060
:1018400030180C060301003E7F594D7F3E000042D8
:10185000427F7F40400000627359496F660000225A
:101860006349497F360000181C16137F7F1000273C
:101870006745457D3900003C7E4B497930000003C7
:101880006371190F070000367F49497F3600000653
:101890004F49693F1E000000006C6C000000000012
:1018A000A0EC6C00000000081C366341000000142E
:1018B00014141414140000004163361C08000002C4
:1018C0000351590F0600003E7F415D5D1F1E007CE5
:1018D0007E13137E7C0000417F7F49497F36001CC8
:1018E0003E634141632200417F7F41637F1C004191
:1018F0007F7F495D416300417F7F491D0103001CDB
:101900003E6341517372007F7F08087F7F000000B3
:10191000417F7F41000000307040417F3F01004126
:101920007F7F081C776300417F7F41406070007FAC
:101930007F060C067F7F007F7F060C187F7F001CD0
:101940003E6341633E1C00417F7F49090F06001E34
:101950003F21717F5E0000417F7F19396F4600266D
:10196000674D597B32000003417F7F410300007FB8
:101970007F40407F7F00001F3F60603F1F00007F6F
:101980007F3018307F7F0063771C081C7763000767
:101990004F78784F0700006773594D476371000017
:1019A0007F7F41410000000103060C1830600000F9
:1019B00041417F7F000000080C0603060C080080F0
:1019C0008080808080808000000307040000002069
:1019D0007454543C784000413F7F44447C38003884
:1019E0007C44446C280000307848493F7F400038F0
:1019F0007C54545C180000487E7F49030200009824
:101A0000BCA4A4F87C0400417F7F08047C7800001B
:101A1000447D7D4000000040C484FD7D0000004105
:101A20007F7F10386C440000417F7F400000007CC5
:101A30007C0C180C7C78007C7C04047C78000038DA
:101A40007C44447C38000084FCF8A4243C18001832
:101A50003C24A4F8FC8400447C78441C1800004812
:101A60005C54547424000000043E7F442400003C75
:101A70007C40403C7C40001C3C60603C1C00003CC6
:101A80007C6030607C3C00446C3810386C44009CB6
:101A9000BCA0A0FC7C00004C64745C4C640000089A
:101AA000083E7741410000000000777700000041C8
:101AB00041773E0808000002030103020301000011
:101AC00011241FBECFEFD4E0DEBFCDBF12E0A0E0F7
:101AD000B1E0EAEFF6E302C005900D92A83DB10730
:101AE000D9F722E0A8EDB2E001C01D92AD3EB207E9
:101AF000E1F70E94BD120C947B1B0C9400000E9425
:101B0000300E47E067E08BE20E94120E61E088E24F
:101B10000E94FB0D65EB89E20E94FB0D63E48AE203
:101B20000E94FB0D60E08FE00E94FB0D08950F9373
:101B30001F93CF938C01FC0160817181769567952D
:101B400076956795769567958091D8028295807F86
:101B50008F5C0E94FB0D82E30E94ED0DF801608115
:101B60006295660F607E8F71682B8091D802829596
:101B7000807F8E5C0E94FB0D85E30E94ED0D807FCF
:101B8000F8019281682F692B8091D8028295807F1D
:101B90008B5C0E94FB0DF80182818823A9F0C0E0D4
:101BA000F801EC0FF11D8091D8029C2F20E1829F5B
:101BB000900D1124892F63818A5C0E94FB0DCF5FF9
:101BC000F8018281C81760F38091D8028F570E9474
:101BD0000D0ECF911F910F910895CF93C82FC498E8
:101BE00083E00E94B6118C2F0E94B6110E94BA1198
:101BF000C49ACF910895CF93DF93D82FC62FC4985E
:101C000082E00E94B6118D2F0E94B6118C2F0E9487
:101C1000B611C49ADF91CF910895C4980E94B6116D
:101C2000C49A08951F93CF93DF93182FD62FC42FF4
:101C3000C49885E00E94B611812F0E94B6118D2FA5
:101C40000E94B6118C2F0E94B611C49ADF91CF91D9
:101C50001F910895C49880EC0E94B611C49A08950B
:101C60000E94B1110E942A0E08950E94881348E034
:101C70006DE171E080E00E940E1448E06AE271E0DC
:101C800087E00E940E142FEF8FEF9EE021508040DE
:101C90009040E1F700C00000B199FECF08950E9486
:101CA000881348E250E060E470E080E79AE00E9428
:101CB00003152FEF8FEF9EE0215080409040E1F719
:101CC00000C00000B199FECF08954F925F926F92CD
:101CD0007F928F929F92AF92BF92CF92DF92FF92AC
:101CE0001F93CF93DF930E94881348E06AE371E06B
:101CF00080E00E940E140F2EF8E96F2EFAE07F2E7E
:101D0000F02D5301DD24D394E50110E01DC0849132
:101D100090E0022E02C0880F991F0A94E2F7F82A79
:101D20002F5F3F4F35962830310589F78D2D0E9462
:101D30007913812F0E947E138F2D80950E94481366
:101D40001F5F2196153029F0FE0120E030E0F12CD4
:101D5000DECFD39488E2A80EB11C89E0D812D4CF8C
:101D60000F2EF8E98F2EF0E09F2EF02D5401DD2488
:101D7000D394E50110E01CC0849190E0022E02C0D3
:101D8000880F991F0A94E2F7F82A2F5F3F4F359684
:101D90002830310589F78D2D0E947913812F0E94FB
:101DA0007E138F2D0E9448131F5F2196153029F056
:101DB000FE0120E030E0F12CDFCFD39488E2A80EC2
:101DC000B11C89E0D812D5CF6BED72E08DED92E0B9
:101DD0000E94E11180B380B386B38270B82E609107
:101DE000DD027091DE028C2D0E945512C82E8CEF00
:101DF0008C0D823008F4D0C081E0C81266C00E9409
:101E0000881348E06AE371E080E00E940E14230129
:101E1000DD24D394E20110E01CC0849190E0022EF6
:101E200002C0880F991F0A94E2F7F82A2F5F3F4FEC
:101E300035962830310589F78D2D0E947913812F31
:101E40000E947E138F2D0E9448131F5F219615302C
:101E500029F0FE0120E030E0F12CDFCFD39488E2BE
:101E6000480E511C89E0D812D5CF2401DD24D3942B
:101E7000E20110E01DC0849190E0022E02C0880FA4
:101E8000991F0A94E2F7F82A2F5F3F4F35962830C2
:101E9000310589F78D2D0E947913812F0E947E13C1
:101EA0008F2D80950E9448131F5F2196153029F0D1
:101EB000FE0120E030E0F12CDECFD39488E2480E22
:101EC000511C89E0D812D4CF67C0C11065C00E94F0
:101ED000881348E06AE371E080E00E940E14230159
:101EE000DD24D394E20110E01DC0849190E0022E25
:101EF00002C0880F991F0A94E2F7F82A2F5F3F4F1C
:101F000035962830310589F78D2D0E947913812F60
:101F10000E947E138F2D80950E9448131F5F21968B
:101F2000153029F0FE0120E030E0F12CDECFD39413
:101F300088E2480E511C89E0D812D4CF2401DD2458
:101F4000D394E20110E01CC0849190E0022E02C004
:101F5000880F991F0A94E2F7F82A2F5F3F4F3596B2
:101F60002830310589F78D2D0E947913812F0E9429
:101F70007E138F2D0E9448131F5F2196153029F084
:101F8000FE0120E030E0F12CDFCFD39488E2480E50
:101F9000511C89E0D812D5CF8B2D0E94CA118823FD
:101FA00009F412CFDF91CF911F91FF90DF90CF9076
:101FB000BF90AF909F908F907F906F905F904F9069
:101FC0000895CF93DF93EC0181E390E00E9418160F
:101FD000AAE0B1E0FC014AE151E0118A108A11A2A5
:101FE00010A22D913D9121933193A417B507A9F724
:101FF000FC0110AAD78FC68FDF91CF910895CF93A0
:10200000DF93EC0180E00E947E1388A9E82FF0E0C6
:10201000EE0FFF1FEC0FFD1F6081718148E00E94F1
:10202000B514DF91CF910895FF920F931F93CF9333
:10203000DF93F82ED92F0E94A0130F2D1D2FC0E083
:1020400080E00E947E13F801619171918F0148E058
:102050008C2F0E940E14CF5FC83091F78F2D9D2FCB
:102060000E94FF0FDF91CF911F910F91FF90089574
:102070001F93CF93DF93EC01162F623091F5E88127
:10208000F98180A9815080ABE881F98180A9282F4E
:1020900030E0D901AA0FBB1FAE0FBF1F4D915C915D
:1020A000465D524089F4815080ABE881F98180A976
:1020B000282F30E0D901AA0FBB1FAE0FBF1F4D91D3
:1020C0005C91465D524079F33F932F9382E491E017
:1020D0009F938F930E94E0170F900F900F900F9097
:1020E00033C0633089F5E881F98180A98F5F80ABC7
:1020F000E881F98180A9282F30E0D901AA0FBB1F00
:10210000AE0FBF1F4D915C91465D524089F48F5FC9
:1021100080ABE881F98180A9282F30E0D901AA0F8E
:10212000BB1FAE0FBF1F4D915C91465D524079F3CE
:102130003F932F9388E491E09F938F930E94E01741
:102140000F900F900F900F90E881F98180A988304F
:1021500009F410AAE881F98180A98F3F11F487E082
:1021600080AB1450123020F0888199810E941410A5
:10217000DF91CF911F9108950F931F93CF93DF931A
:10218000EC01E881F98180A9A82FB0E0AA0FBB1F5C
:10219000AE0FBF1F9096ED91FC919197309731F063
:1021A0000995888199810E9414100CC050960D9158
:1021B0001C9151970115110529F0C8010E941410B6
:1021C00019830883DF91CF911F910F91089580E0CB
:1021D00090E00E94E10F9093DA028093D9020E946E
:1021E000E10FEC018091D9029091DA020E94E10F97
:1021F000E091D902F091DA0220E531E031832083C9
:10220000E091D902F091DA0222E631E033832283B1
:1022100025E63EE033A322A326ED32E03583248376
:1022200043E751E05783468345E35EE057A346A367
:1022300042E851E0518740873387228735872487DA
:1022400037872687D18BC08B918F808F82E991E071
:10225000998388838DE991E09B838A8389EA91E061
:102260009D838C8385EB91E09F838E838FE49EE03A
:102270009FA38EA3398728873B872A873D872C8792
:102280008091D9029091DA020E9414100E94BF112D
:1022900001E0C0E00F2EF2ECEF2EF1E0FF2EF02D6A
:1022A0006BED72E08DED92E00E94E11180B390B38E
:1022B000D6B3D2709072202F3C2F923008F42C2F7E
:1022C0003F932F938071902F2C2F823008F49C2FF6
:1022D0002F939F93EBEDF2E081811F928F9380818A
:1022E0001F928F93802F9C2FD1118C2F9F938F93B0
:1022F000EDEDF2E08181282F082E000C330B3F9387
:102300008F938081282F082E000C330B3F938F93DF
:10231000FF92EF920E94E0176091DD027091DE0261
:10232000812F0E945512182F8CEF810F2DB73EB7C9
:10233000205F3F4F0FB6F8943EBF0FBE2DBF8230D7
:1023400028F0612F89ED92E00E9438108D2F0E94B5
:10235000CA11882309F4A4CF89ED92E00E94BC1031
:102360009FCF80EB87BB81E58DB908958FB9779BAF
:10237000FECF089580EF0E94B6118FB10895E0E07E
:10238000F4E181E08083808180931C0180818093CF
:102390001B010895CF9381110BC0C0911A01C13068
:1023A00061F410921A0182E490E00E94F61706C0D0
:1023B00081E080931A01C0E001C0C0E08C2FCF9172
:1023C00008950F931F93CF93DF938C01EB01E0E00F
:1023D000F4E181E08083408120813081E081A0911F
:1023E0001C014A1798F0B0E050E04A1B5B0B64E612
:1023F000649FC001659F900D11246FEF70E06A1B10
:102400007B0B0E94F015D8016C930FC06A2F70E00F
:1024100050E0461B570BF4E6F49FC001F59F900D6A
:1024200011240E94F015D8016C9360911B012617AE
:10243000B0F0462F50E0622F70E0641B750B24E66D
:10244000269FC001279F900D11246FEF70E0641B41
:10245000750B0E94F015D80111966C9310C070E0B6
:10246000422F50E0461B570B24E6249FC001259FB6
:10247000900D11240E94F015D80111966C9324E65A
:10248000239FC00111240FEF10E0B8010E94F01546
:1024900068832E9FC0011124B8010E94F015698342
:1024A000DF91CF911F910F910895962F272F6F5C89
:1024B000633618F47F5C733610F0843051F4903634
:1024C00054F4913A54F0213A54F0203654F484E014
:1024D000089585E0089581E0089580E0089583E0FF
:1024E000089582E00895CF93DF93CDB7DEB72B97A1
:1024F0000FB6F894DEBF0FBECDBF6FED72E081EE78
:1025000092E00E94E11185E08B833091E102832FFC
:10251000032E000C990B99231CF491958195910938
:102520008C832091E202822F022E000C990B9923BA
:102530001CF49195819591098D8386B382708E8369
:10254000332314F081E101C080E0222314F091E1F3
:1025500001C090E08F83988780E190E09A8389831F
:10256000CE0101960E94970D2B960FB6F894DEBF10
:102570000FBECDBFDF91CF910895CF93DF93CDB73D
:10258000DEB72B970FB6F894DEBF0FBECDBF85B771
:10259000806885BF80B7877F80BF80B78F7E80BF10
:1025A00080B7806280BF8AB388618ABB8FE190E088
:1025B0000E94E0150E948C152FEF8FEF9EE02150B6
:1025C00080409040E1F700C000000E944B130E9441
:1025D000881387E00E9479130CE510E08AE090E010
:1025E0000E94F61701501109C9F70E947F0D88E07B
:1025F0008B8381E68C8382E68D8383E68E8384E6FB
:102600008F8385E6888786E6898787E68A8788E6D6
:102610008B8786E090E09A8389830E94E7100E946E
:10262000BF116E01ECE0CE0ED11C0F2EF2E5EF2EA5
:10263000F2E0FF2EF02DCE0101960E9473128E0162
:102640000C5F1F4FF80181918F019A819F939981AF
:102650009F939B811F929F93282F082E000C330B72
:102660003F938F93FF92EF920E94E017FFEF2FEFBF
:1026700082E0F15020408040E1F700C000C00FB67A
:10268000F894DEBF0FBECDBF0C151D05D9F6D3CF14
:10269000809300120895E0E0F0E18EEA808381EA01
:1026A00080838AED808382E1808388EC808388EA5E
:1026B00080838FE3808385ED808380E8808381E859
:1026C000808380E5808389ED808381E2808380E25E
:1026D000808382E080838BED808380E380838DEA3A
:1026E0008083108284EA808386EA80838FEA8083F5
:1026F000089587708055809300100895982F9F70DB
:10270000E0E0F0E1908382958F70805F8083089590
:102710001F93CF93DF9310E0C0E0D2E1812F0E949E
:10272000791380E00E947E1380E890E01882019780
:10273000E9F71F5F183091F7DF91CF911F9108954E
:102740001F93CF93DF9310E0C0E0D2E1812F0E946E
:10275000791380E00E947E1380E890E01882019750
:10276000E9F71F5F183091F7DF91CF911F9108951E
:1027700080526830F1F490E09C01220F331F220F49
:10278000331F220F331F2953384E880F991F880F8C
:10279000991F880F991F8153984EA0E0B2E1F9016B
:1027A000459154914C932F5F3F4F82179307B9F790
:1027B00008956530D1F490E09C01220F331F220F61
:1027C000331F820F931F20E030E0A0E0B2E1F90157
:1027D000E80FF91FE451FA4E459154914C932F5F45
:1027E0003F4F2530310599F708956430B1F490E0FA
:1027F000880F991F880F991F20E030E0A0E0B2E118
:10280000F901E80FF91FE059FB4E459154914C93A3
:102810002F5F3F4F2430310599F708958F929F9293
:10282000AF92BF92CF92DF92EF92FF920F931F93DE
:10283000CF93DF93882E8B01942E0E947913780119
:10284000C0E0D0E0A92CB12C6894CC24C7F8D12CDE
:1028500019C0C601B5010E94F0159B01CE010E946E
:10286000F015892B41F4CE01B9010E94F015882D95
:10287000860F0E947913692DF70181917F010E94D3
:10288000B8132196F80101900020E9F73197E01B79
:10289000F10BCE17DF07E8F280E00E947E13DF9194
:1028A000CF911F910F91FF90EF90DF90CF90BF904D
:1028B000AF909F908F90089580526830F9F490E027
:1028C0009C01220F331F220F331F220F331F295366
:1028D000384E880F991F880F991F880F991F8153B1
:1028E000984EA0E0B2E1F9014591549140954C9386
:1028F0002F5F3F4F82179307B1F708956530D9F4E2
:1029000090E09C01220F331F220F331F820F931F71
:1029100020E030E0A0E0B2E1F901E80FF91FE45156
:10292000FA4E4591549140954C932F5F3F4F25307F
:10293000310591F708956430B9F490E0880F991F3C
:10294000880F991F20E030E0A0E0B2E1F901E80F24
:10295000F91FE059FB4E4591549140954C932F5FE0
:102960003F4F2430310591F708958F929F92AF9297
:10297000BF92CF92DF92EF92FF920F931F93CF936C
:10298000DF93882E8B01942E0E9479137801C0E08A
:10299000D0E0A92CB12C6894CC24C7F8D12C19C054
:1029A000C601B5010E94F0159B01CE010E94F015F1
:1029B000892B41F4CE01B9010E94F015882D860FB4
:1029C0000E947913692DF70181917F010E945C14A7
:1029D0002196F80101900020E9F73197E01BF10BF7
:1029E000CE17DF07E8F280E00E947E13DF91CF91DF
:1029F0001F910F91FF90EF90DF90CF90BF90AF901D
:102A00009F908F9008953F924F925F926F927F9226
:102A10008F929F92AF92BF92CF92DF92EF92FF92EE
:102A20000F931F93CF93DF9300D000D0CDB7DEB7C5
:102A30004C016B01552314F4495F5F4F2A015594F3
:102A400047945594479455944794141415040CF0E6
:102A50004DC0C601880F991F880F991F880F991FB5
:102A60009A838983E12CF12C612C712CDC82CB823E
:102A70000F2EA12CF2E1BF2EF02D1C141D040CF121
:102A80002BC0849190E0022E02C0880F991F0A94F7
:102A9000E2F7382A2F5F3F4F8B819C81E80FF91FA7
:102AA0002830310571F7862D0E947913802F0E94FE
:102AB0007E13F50130820F5F1F4FC016D10619F447
:102AC0000BC000E010E0F801EE0DFF1DE80DF91D50
:102AD00020E030E0312CD5CFFFEF6F1A7F0A8981DB
:102AE0009A81E80EF91E6414750439F60F900F9060
:102AF0000F900F90DF91CF911F910F91FF90EF906A
:102B0000DF90CF90BF90AF909F908F907F906F900D
:102B10005F904F903F900895EF92FF920F931F9315
:102B2000CF93DF9388E692E00E94FD170E948517FD
:102B30007C010E948A17C0E0D8E100E010E00E940A
:102B4000851788839881891711F00F5F1F4F219691
:102B5000C11580E2D80799F7C7010E948A17C0E023
:102B6000D8E1E12CF12C0E9485179881981719F073
:102B70008FEFE81AF80A2196C11580E2D80799F775
:102B8000FF92EF921F930F938EE792E09F938F93A4
:102B90000E94E0170F900F900F900F900F900F90E2
:102BA000DF91CF911F910F91FF90EF9008955D9B62
:102BB000FECF8CB908955F9BFECF8CB190E0089555
:102BC00090BD89B988E18AB98EE88CBF80B58E7FC7
:102BD00080BD6BED75E187ED95E10E949517089535
:102BE00097FB072E16F4009407D077FD09D00E94BA
:102BF000041607FC05D03EF4909581959F4F0895EB
:102C0000709561957F4F0895AA1BBB1B51E107C0CA
:102C1000AA1FBB1FA617B70710F0A61BB70B881F6C
:102C2000991F5A95A9F780959095BC01CD010895FB
:102C30000F931F93CF93DF938230910510F482E0BE
:102C400090E0E091E502F091E60220E030E0A0E0C3
:102C5000B0E0309719F1408151810281138148170A
:102C60005907C8F08417950769F4109731F0129648
:102C70000C93129713961C9327C00093E5021093B0
:102C8000E60222C02115310519F04217530718F446
:102C90009A01BD01EF01DF01F801DBCF21153105FC
:102CA000F9F0281B390B2430310580F48A819B818F
:102CB0006115710521F0FB019383828304C0909319
:102CC000E6028093E502FE01329644C0FE01E20F67
:102CD000F31F8193919322503109398328833AC09D
:102CE0002091E3023091E402232B41F42091020170
:102CF000309103013093E4022093E302209100011C
:102D0000309101012115310541F42DB73EB74091B5
:102D1000040150910501241B350BE091E302F09171
:102D2000E402E217F307A0F42E1B3F0B2817390724
:102D300078F0AC014E5F5F4F2417350748F04E0F17
:102D40005F1F5093E4024093E3028193919302C08A
:102D5000E0E0F0E0CF01DF91CF911F910F91089556
:102D6000CF93DF93009709F481C0FC01329713825F
:102D70001282A091E502B091E602109781F42081C1
:102D80003181820F931F2091E3023091E4022817D2
:102D9000390751F5F093E402E093E30267C0ED01D7
:102DA00020E030E0CE17DF0740F44A815B819E01CE
:102DB00041155105F1F0EA01F5CFD383C28340817B
:102DC0005181840F951FC817D90759F488819981BB
:102DD000840F951F0296918380838A819B819383C0
:102DE00082832115310529F4F093E602E093E50290
:102DF0003DC0E901FB83EA8349915991C40FD51F76
:102E0000EC17FD0761F480819181840F951F029674
:102E1000E90199838883828193819B838A83E0E09F
:102E2000F0E012968D919C911397009719F0FD0197
:102E3000DC01F7CF8D919C9111979D012E5F3F4F43
:102E4000820F931F2091E3023091E4022817390783
:102E500069F4309729F41092E6021092E50202C05C
:102E600013821282B093E402A093E302DF91CF9128
:102E700008958F929F92AF92BF92CF92DF92EF927E
:102E8000FF92CF93DF93EC01688179818A819B81E6
:102E9000611571058105910521F464E279ED8BE5F9
:102EA00097E02DE133EF41E050E00E94E11A490143
:102EB0005A019B01AC01A7EAB1E40E94001B6B011F
:102EC0007C01ACEEB4EFA50194010E940E1BDC0165
:102ED000CB018C0D9D1DAE1DBF1DB7FF03C001971B
:102EE000A109B04888839983AA83BB839F77DF9128
:102EF000CF91FF90EF90DF90CF90BF90AF909F90D9
:102F00008F9008950E943917089586E091E00E94FD
:102F100039170895A0E0B0E080930601909307016F
:102F2000A0930801B093090108950F931F93CF93C5
:102F3000DF93009731F46115710519F480E090E09A
:102F40003AC08B01EC016EE070E081E090E00E94FD
:102F50000E1AFC01892B91F380E88383011511057A
:102F600071F01387028781E883838091E702909153
:102F7000E802892B21F4F093E802E093E70220971E
:102F8000C9F0D187C0878381826083838091E90201
:102F90009091EA02892B71F4F093EA02E093E9023E
:102FA0008091EB029091EC02892B21F4F093EC02DA
:102FB000E093EB02CF01DF91CF911F910F91089524
:102FC000A0E0B0E0E6EEF7E10C94231BAE014B5F0E
:102FD0005F4FFA0161917191AF018091E902909187
:102FE000EA020E942D18E2E00C943F1B6091E90276
:102FF0007091EA020E94471A08950F931F93CF938E
:10300000DF93E091E902F091EA02238121FF1BC0E6
:103010008C01D0E0C0E0F80181918F016091E9025C
:103020007091EA02DB011896ED91FC9119978823C3
:1030300031F00995892B79F3DFEFCFEFECCF8AE000
:103040000995892B19F08FEF9FEF02C08D2F9C2FD0
:10305000DF91CF911F910F910895ABE0B0E0E3E3D2
:10306000F8E10C94131B6C017B018A01FC011782AF
:103070001682838181FFCCC1CE0101963C01F6010D
:103080009381F70193FD859193FF81917F018823BF
:1030900009F4BAC1853239F493FD859193FF81918A
:1030A0007F01853229F4B60190E00E94471AE7CFEC
:1030B000912C212C312CFFE1F315D8F08B3279F0D3
:1030C00038F4803279F08332A1F4232D20611DC0C1
:1030D0008D3261F0803369F4232D216016C0832D79
:1030E0008260382EE32DE4603E2E2AC0F32DF86076
:1030F0001DC037FC2DC020ED280F2A3040F08E3245
:10310000B9F436FC81C1232D2064322E19C036FE5D
:1031100006C08AE0989E200D1124922E11C0EAE08C
:103120002E9E200D1124222EF32DF0623F2E08C07A
:103130008C3621F4832D8068382E02C0883641F405
:10314000F70193FD859193FF81917F018111B3CFA9
:10315000982F9F7D9554933028F40C5F1F4F9FE369
:1031600099830DC0833631F0833771F0833509F0D0
:1031700059C021C0F801808189830E5F1F4F8824C8
:103180008394912C530113C02801F2E04F0E511C7F
:10319000F801A080B18036FE03C0692D70E002C046
:1031A0006FEF7FEFC5010E943C1A4C018201F32DA5
:1031B000FF773F2E16C0280122E0420E511CF80175
:1031C000A080B18036FE03C0692D70E002C06FEFB1
:1031D0007FEFC5010E942A1A4C01F32DF0683F2EA3
:1031E000820133FC1BC0822D90E088169906B0F452
:1031F000B60180E290E00E94471A2A94F4CFF501CC
:1032000037FC859137FE81915F01B60190E00E9405
:10321000471A21102A9421E0821A910881149104FE
:1032200071F7E8C0843611F0893641F5F80137FEB0
:1032300007C060817181828193810C5F1F4F08C03C
:1032400060817181072E000C880B990B0E5F1F4F58
:10325000F32DFF763F2E97FF09C0909580957095CE
:1032600061957F4F8F4F9F4FF0683F2E2AE030E0EF
:10327000A3010E94831A882E861845C0853731F431
:10328000232D2F7EB22E2AE030E025C0932D997F8A
:10329000B92E8F36C1F018F4883579F0B5C0803773
:1032A00019F0883721F0B0C0E92FE061BE2EB4FEDE
:1032B0000DC0FB2DF460BF2E09C034FE0AC0292FBB
:1032C0002660B22E06C028E030E005C020E130E0E4
:1032D00002C020E132E0F801B7FE07C060817181D1
:1032E000828193810C5F1F4F06C06081718180E0F5
:1032F00090E00E5F1F4FA3010E94831A882E86184C
:10330000FB2DFF773F2E36FE0DC0232D2E7FA22EE4
:10331000891458F434FE0BC032FC09C0832D8E7E14
:10332000A82E05C0B82CA32C03C0B82C01C0B92C02
:10333000A4FE0FC0FE01E80DF11D8081803321F451
:103340009A2D997EA92E09C0A2FE06C0B394B3940B
:1033500004C08A2D867809F0B394A3FC11C0A0FEA6
:1033600006C0B21488F4280C922C9B180EC0B2141C
:1033700060F4B60180E290E00E94471AB394F7CF60
:10338000B21418F42B1802C0982C212CA4FE10C0E3
:10339000B60180E390E00E94471AA2FE17C0A1FC8C
:1033A00003C088E790E002C088E590E0B6010CC059
:1033B0008A2D867859F0A1FE02C08BE201C080E21E
:1033C000A7FC8DE2B60190E00E94471A891438F4F8
:1033D000B60180E390E00E94471A9A94F7CF8A944E
:1033E000F301E80DF11D8081B60190E00E94471ABB
:1033F0008110F5CF222009F442CEB60180E290E0A0
:103400000E94471A2A94F6CFF6018681978102C05E
:103410008FEF9FEF2B96E2E10C942F1B0F931F93DE
:10342000CF93DF93869F8001879F100D969F100D8D
:103430001124C8010E941816EC01009729F0A80178
:1034400060E070E00E94351ACE01DF91CF911F91AC
:103450000F910895FC010590615070400110D8F75C
:10346000809590958E0F9F1F0895DC0101C06D938C
:1034700041505040E0F70895FC01615070400190C8
:103480000110D8F7809590958E0F9F1F08950F9388
:103490001F93CF93DF93FB01238121FD03C08FEFA7
:1034A0009FEF2CC022FF16C04681578124813581B1
:1034B0004217530744F4A081B1819D012F5F3F4F14
:1034C000318320838C93268137812F5F3F4F378351
:1034D000268314C08B01EC01FB010084F185E02DF3
:1034E0000995892BE1F6D80116968D919C91179735
:1034F000019617969C938E931697CE01DF91CF91EC
:103500001F910F910895FA01AA27283051F1203117
:1035100081F1E8946F936E7F6E5F7F4F8F4F9F4F67
:10352000AF4FB1E03ED0B4E03CD0670F781F891FA9
:103530009A1FA11D680F791F8A1F911DA11D6A0F77
:10354000711D811D911DA11D20D009F468943F912A
:103550002AE0269F11243019305D3193DEF6CF0129
:103560000895462F4770405D4193B3E00FD0C9F7EF
:10357000F6CF462F4F70405D4A3318F0495D31FD5C
:103580004052419302D0A9F7EACFB4E0A6959795AF
:10359000879577956795BA95C9F700976105710585
:1035A00008959B01AC010A2E0694579547953795CF
:1035B0002795BA95C9F7620F731F841F951FA01D29
:1035C0000895052E97FB1EF400940E94F81A57FDEB
:1035D00007D00E944A1B07FC03D04EF40C94F81A43
:1035E00050954095309521953F4F4F4F5F4F08952F
:1035F00090958095709561957F4F8F4F9F4F08955F
:103600000E946C1BA59F900DB49F900DA49F800DF0
:10361000911D11240895B7FF0C94001B0E94001BFC
:10362000821B930B08952F923F924F925F926F925D
:103630007F928F929F92AF92BF92CF92DF92EF9242
:10364000FF920F931F93CF93DF93CDB7DEB7CA1BC3
:10365000DB0B0FB6F894DEBF0FBECDBF09942A88EE
:10366000398848885F846E847D848C849B84AA8496
:10367000B984C884DF80EE80FD800C811B81AA8123
:10368000B981CE0FD11D0FB6F894DEBF0FBECDBFEE
:10369000ED010895A1E21A2EAA1BBB1BFD010DC06E
:1036A000AA1FBB1FEE1FFF1FA217B307E407F507F2
:1036B00020F0A21BB30BE40BF50B661F771F881FCE
:1036C000991F1A9469F760957095809590959B0164
:1036D000AC01BD01CF010895A29FB001B39FC0010D
:1036E000A39F700D811D1124911DB29F700D811D2E
:0A36F0001124911D0895F894FFCFF6
:1036FA000000ED022000010000000B0214021D026E
:10370A0026022F02380241024A0201A0A048656C33
:10371A006C6F20776F726C6421004A6F79737469D9
:10372A00636B2D72657475726E0043484F4F534533
:10373A002100256420757000256420646F776E006F
:10374A0044656D6F206F662061207375626D656ECA
:10375A00750043686F6F7365206368617261637493
:10376A006572005772697465206772656574696E5F
:10377A00670044656661756C74207375626D656E69
:10378A007500446F206E6F7468696E67004C6F61D4
:10379A00662061726F756E640066756E6E79207749
:1037AA006F6D656E0044726177206120776F6A6180
:1037BA006B000D204A5F783A202534642C204A5F3A
:1037CA00793A202534642C204A5F623A20253364F2
:1037DA0020536C6964657220313A202533642C20A9
:1037EA00536C6964657220323A20253364207C7CEC
:1037FA007C7C202533642C253364004F7074696FF8
:10380A006E2031004F7074696F6E2032004F7074F1
:10381A00696F6E2033004F7074696F6E2034004FE9
:10382A007074696F6E2035004F7074696F6E203640
:10383A00004F7074696F6E2037003C2D204261631F
:10384A006B000D2020202563207C202564207C200D
:10385A0025642020200A0D005374617274696E6712
:10386A00205352414D20746573742E2E2E005352EC
:10387A00414D207465737420636F6D706C65746557
:10388A00642077697468200A253464206572726F2F
:10389A00727320696E20777269746520706861732B
:1038AA006520616E64200A253464206572726F7225
:1038BA007320696E2072657472696576616C207016
:0838CA00686173650A0A000041
:00000001FF
