:100000000C94600D0C947F0D0C947D0D0C947D0D63
:100010000C947D0D0C947D0D0C947D0D0C947D0D38
:100020000C947D0D0C947D0D0C947D0D0C947D0D28
:100030000C947D0D0C947D0D0C947D0D0C947D0D18
:100040000C947D0D0C947D0D0C947D0D0C947D0D08
:100050000C947D0D0C947D0D0C947D0D0C947D0DF8
:100060000C947D0D0C947D0D0C947D0D0C947D0DE8
:100070000000000000000000000000000000000080
:100080000000000000000000000000000000000070
:100090000000000000000000000000000000000060
:1000A0000000000000000000000000000000000050
:1000B0000000000000000000000000000000000040
:1000C0000000000000000000000000000000000030
:1000D0000000000000000000000000000000000020
:1000E0000000000000000000000000000000000010
:1000F0000000000000000000000000000000000000
:1001000000000000000000000000000000000000EF
:1001100000000000000000000000000000000000DF
:1001200000000000000000000000000000000000CF
:1001300000000000000000000000000000000000BF
:1001400000000000000000000000000000000000AF
:10015000000000000000000000000000000000009F
:10016000000000000000000000000000000000008F
:10017000000000000000000000000000000000007F
:10018000000000000000000000000000000000006F
:10019000000000000000000000000000000000005F
:1001A000000000000000000000000000000000004F
:1001B000000000000000000000000000000000003F
:1001C000000000000000000000000000000000002F
:1001D000000000000000000000000000000000001F
:1001E000000000000000000000000000000000000F
:1001F00000000000000000000000000000000000FF
:1002000000000000000000000001010101010101E7
:1002100001000000000101010100000000000000D9
:1002200000000000000000000000000000000000CE
:1002300000000000000000000000000000000000BE
:1002400000000000000000000101010101010101A6
:100250000101010101010101010101000000000093
:10026000000000000000000000000000000000008E
:10027000000000000000000000000000000000007E
:100280000000000000000001010101010101010165
:100290000101010101010101010101000000000053
:1002A000000000000000000000000000000000004E
:1002B000000000000000000000000000000000003E
:1002C0000000000000000101010101010101010124
:1002D0000101010101010101010101010000000012
:1002E000000000000000000000000000000000000E
:1002F00000000000000000000000000000000000FE
:1003000000000000000101010101010101010101E2
:1003100001010101010101010101010100000000D1
:1003200000000000000000000000000000000000CD
:1003300000000000000000000000000000000000BD
:1003400000000000000101010101010101010101A2
:10035000010101010101010101010101010100008F
:10036000000000000000000000000000000000008D
:10037000000000000000000000000000000000007D
:100380000000000001010101010101010101010161
:10039000010101010101010101010101010101004E
:1003A000000000000000000000000000000000004D
:1003B000000000000000000000000000000000003D
:1003C0000000000101010101010101010101010120
:1003D000010101010101010101010101010101010D
:1003E000000000000000000000000000000000000D
:1003F00000000000000000000000000000000000FD
:1004000000000101010101010101010101010101DE
:1004100001010000010101010101010101000101CF
:1004200001000000000000000000000000000000CB
:1004300000000000000000000000000000000000BC
:10044000000101010101010101010101000001019F
:100450000101010000000100000101010100000094
:10046000010000000000000000000000000000008B
:10047000000000000000000000000000000000007C
:10048000000101010101010101010100000101015F
:100490000101010000000000000101010100000055
:1004A000000000000000000000000000000000004C
:1004B000000000000000000000000000000000003C
:1004C000010101010101010101010101010001011D
:1004D0000101000000010100000101010100010112
:1004E000010000000000000000000000000000000B
:1004F00000000000000000000000000000000000FC
:1005000001010101010101010101010101010101DB
:1005100001010101010101010101010101010101CB
:1005200000000000000000000000000000000000CB
:1005300000000000000000000000000000000001BA
:10054000010101010101010101010101010101019B
:10055000010101010101010101010101010101008C
:10056000000000000000000000000000000000008B
:10057000000000000000000000000000000000017A
:10058000010101010101010101010101010101015B
:10059000010101010101010101010101010000004E
:1005A000000000000000000000000000000000004B
:1005B000000000000000000000000000000000013A
:1005C000010101010101010101010101010101011B
:1005D000010101010101010101010101010100000D
:1005E000000000000000000000000000000000000B
:1005F00000000000000000000000000000000001FA
:1006000001010101010101010101010101010101DA
:1006100001010101010101010101010101010100CB
:1006200000000000000000000000000000000000CA
:1006300000000000000000000000000000000001B9
:10064000010101010101010101010101010101019A
:10065000010101010101010101010101010101008B
:10066000000000000000000000000000000000008A
:100670000000000000000000000000000000000179
:10068000010101010101010101010101010101015A
:10069000010101010101010101010101010101004B
:1006A000000000000000000000000000000000004A
:1006B0000000000000000000000000000000000139
:1006C000010101010101010101010101010101011A
:1006D000010101010101010101010101010101010A
:1006E000000000000000000000000000000000000A
:1006F00000000000000000000000000000000001F9
:1007000001010101010101010101010101010101D9
:1007100001010101010101010101010101010101C9
:1007200000000000000000000000000000000000C9
:1007300000000000000000000000000000000001B8
:100740000101010101010101010101010101010199
:10075000010101010101010101010101010101008A
:100760000000000000000000000000000000000089
:100770000000000000000000000000000000000178
:100780000101010101010101010101010101010159
:10079000010101010101010101010101010101004A
:1007A0000000000000000000000000000000000049
:1007B0000000000000000000000000000000000039
:1007C0000101010101010101010101010101010119
:1007D000010101010101010101010101010100000B
:1007E0000000000000000000000000000000000009
:1007F00000000000000000000000000000000000F9
:1008000000010101010101010101010101010101D9
:1008100001010101010101010101010100000000CC
:1008200000000000000000000000000000000000C8
:1008300000000000000000000000000000000000B8
:10084000000001010101010101010101010101019A
:10085000010101010101010101010000000000008E
:100860000000000000000000000000000000000088
:100870000000000000000000000000000000000078
:10088000000000000001010101010101010101015D
:100890000101010101010101000000000000000050
:1008A0000000000000000000000000000000000048
:1008B0000000000000000000000000000000000038
:1008C0000000000000000000000000010101010123
:1008D0000101010101000000000000000000000013
:1008E0000000000000000000000000000000000008
:1008F00000000000000000000000000000000000F8
:1009000000000000000000000000000000000000E7
:1009100000000000000000000000000000000000D7
:100B000000000000000000000000000000010101E2
:100B100001010000000000000000000000000000D3
:100B200000000000000000000000000000000000C5
:100B300000000000000000000000000000000000B5
:100B400000000000000000000000010101010100A0
:100B50000001010101000000000000000000000091
:100B60000000000000000000000000000000000085
:100B70000000000000000000000000000000000075
:100B80000000000000000000010101000000000062
:100B90000000000000010100000000000000000053
:100BA0000000000000000000000000000000000045
:100BB0000000000000000000000000000000000035
:100BC0000000000000000001000000000000000024
:100BD0000000000000000101000000000000000013
:100BE0000000000000000000000000000000000005
:100BF00000000000000000000000000000000000F5
:100C000000000000000001000000000000000000E3
:100C100000000000000000000100000000000000D3
:100C200000000000000000000000000000000000C4
:100C300000000000000000000000000000000000B4
:100C400000000000000100000000000000000000A3
:100C50000000000000000000000100000000000093
:100C60000000000000000000000000000000000084
:100C70000000000000000000000000000000000074
:100C80000000000000010000000000000000000063
:100C90000000000000000000000001000000000053
:100CA0000000000000000000000000000000000044
:100CB0000000000000000000000000000000000034
:100CC0000000000001010000000000000000000022
:100CD0000000000000000000000001010000000012
:100CE0000000000000000000000000000000000004
:100CF00000000000000000000000000000000000F4
:100D000000000000010000000000000000000101E0
:100D100001010101010101010100000100000000C9
:100D200000000000000000000000000000000000C3
:100D300000000000000000000000000000000000B3
:100D400000000000010000000000000000000000A2
:100D5000010101010000000000000001000000008E
:100D60000000000000000000000000000000000083
:100D70000000000000000000000000000000000073
:100D8000000000000100000000000000010101015E
:100D9000000000000101010101000001000000004D
:100DA0000000000000000000000000000000000043
:100DB0000000000000000000000000000000000033
:100DC0000000000001000000000000000000000121
:100DD000010100000000000001000000010000000F
:100DE0000000000000000000000000000000000003
:100DF00000000000000000000000000000000000F3
:100E000000000000010000000000000000010100DF
:100E100000000000000000000000010001000000D0
:100E200000000000000000000000000000000000C2
:100E300000000000000000000000000000000000B2
:100E400000000000010000000000000000000000A1
:100E50000000000000000001000000000100000090
:100E60000000000000000000000000000000000082
:100E70000000000000000000000000000000000072
:100E8000000000000100000000000000000001015F
:100E90000100000000000000000000000100000050
:100EA0000000000000000000000000000000000042
:100EB0000000000000000000000000000000000032
:100EC000000000000100000000000000000001011F
:100ED000010101000000000001010100010000000B
:100EE0000000000000000000000000000000000002
:100EF00000000000000000000000000000000000F2
:100F000000000000010000000000000000000101DE
:100F100001010100000000010101010001000000C9
:100F200000000000000000000000000000000000C1
:100F300000000000000000000000000000000000B1
:100F400000000000010000000000000000000000A0
:100F5000000000000000000000000100000100008F
:100F60000000000000000000000000000000000081
:100F70000000000000000000000000000000000071
:100F80000000000000010000000000000000000060
:100F9000000000000000010000000000000100004F
:100FA0000000000000000000000000000000000041
:100FB0000000000000000000000000000000000031
:100FC000000000000001000000010000000000001F
:100FD000000000000000000100000000000100000F
:100FE0000000000000000000000000000000000001
:100FF00000000000000000000000000000000000F1
:1010000000000000000001000001000000000000DE
:1010100000000000000000010100000000010000CD
:1010200000000000000000000000000000000000C0
:1010300000000000000000000000000000000000B0
:10104000000000000000010000000100000000009E
:10105000000001010000000001000000010000008C
:101060000000000000000000000000000000000080
:101070000000000000000000000000000000000070
:10108000000000000000010100000100000000005D
:10109000000001010001000100000000010000004B
:1010A0000000000000000000000000000000000040
:1010B0000000000000000000000000000000000030
:1010C000000000000000010100000101000000001C
:1010D000000000000000000100000001010000000D
:1010E0000000000000000000000000000000000000
:1010F00000000000000000000000000000000000F0
:1011000000000000000001010000010100000000DB
:1011100000000000000000000000000100000000CE
:1011200000000000000000000000000000000000BF
:1011300000000000000000000000000000000000AF
:10114000000000000000010100000100010000009B
:101150000001010101010101000001000000000087
:10116000000000000000000000000000000000007F
:10117000000000000000000000000000000000006F
:10118000000000000000010000000100000101005B
:10119000000000000000000000000100000000004E
:1011A000000000000000000000000000000000003F
:1011B000000000000000000000000000000000002F
:1011C000000000000000010000000000000001011C
:1011D000000000000000000000010100000000000D
:1011E00000000000000000000000000000000000FF
:1011F00000000000000000000000000000000000EF
:1012000000000000000001000000000000000001DC
:1012100001000000000000000001000000000000CC
:1012200000000000000000000000000000000000BE
:1012300000000000000000000000000000000000AE
:10124000000000000001000000000000000000009D
:101250000101010000000001010000000000000089
:10126000000000000000000000000000000000007E
:10127000000000000000000000000000000000006E
:10128000000000000001000000010100000000005B
:101290000000010101010100000000000000000049
:1012A000000000000000000000000000000000003E
:1012B000000000000000000000000000000000002E
:1012C000000000000100000001000000000000001C
:1012D000000001000001000000000000000000000C
:1012E00000000000000000000000000000000000FE
:1012F00000000000000000000000000000000000EE
:1013000000010101010000010100000000000000D7
:1013100000000000000001010101010101010000C5
:1013200000000000000000000000000000000000BD
:1013300000000000000000000000000000000001AC
:10134000010000000000000000000000000000009C
:10135000000000000000000000000000000000008D
:10136000000000000000000000000000000000007D
:10137000000000000000000000000000000000006D
:10138000000000000000000000000000000001015B
:10139000000100000000000000000000000000004C
:1013A000000000000000000000000000000000003D
:1013B000000000000000000000000000000000002D
:1013C000000000000000000000000000000000001D
:1013D000010000000000000000000000000000000C
:1013E00000000000000000000000000000000000FD
:1013F00000000000000000000000000000000000ED
:1014000000000000000000000000000000000000DC
:1014100000000000000000000000000000000000CC
:1014200000000000000000000000000000000000BC
:1014300000000000000000000000000000000000AC
:10144000000000000000000000000000000000009C
:10145000000000000000000000000000000000008C
:10146000000000000000000000000000000000007C
:1014700000000000005C00000C000C007C287C28B0
:1014800058DC68002410480028542840000C000054
:10149000007884008478000054385400107C1000D8
:1014A00080400000101010000040000060100C0090
:1014B00038543800487C40004864580044542C009C
:1014C0001C107C005C5424003854240064140C006C
:1014D00068542C0048543800004800008048000040
:1014E000102844002828280044281000045408002C
:1014F00038445C00781478007C5428003844280074
:101500007C4438007C5444007C140400384474004B
:101510007C107C00447C440020403C007C106C002B
:101520007C4040007C187C0078103C003844380037
:101530007C1408003844B8007C1468004854240027
:10154000047C04007C407C003C603C007C307C00DF
:101550006C106C000C700C0064544C00007C440057
:101560000C106000447C00000804080080808000AB
:1015700000040800304878007C48300030484800BB
:1015800030487C00306850001078140090A8780033
:101590007C08700050744000808074007C106800EB
:1015A000447C4000781078007808700030483000A3
:1015B000F82810003048F80078100800505828002B
:1015C000083C4800384078003840380078207800DF
:1015D0004830480098A07800486858001078840087
:1015E000007C00008478100008040804000000005B
:1015F0000000005F00000007000700147F147F1444
:10160000242A7F2A12231308646236495522500087
:1016100005030000001C2241000041221C00082A92
:101620001C2A0808083E0808005030000008080876
:101630000808006060000020100804023E5149457F
:101640003E00427F400042615149462141454B31B5
:101650001814127F1027454545393C4A4949300145
:10166000710905033649494936064949291E00369C
:1016700036000000563600000008142241141414ED
:10168000141441221408000201510906324979411B
:101690003E7E1111117E7F494949363E414141222A
:1016A0007F4141221C7F494949417F090901013E8F
:1016B000414151327F0808087F00417F41002040AE
:1016C000413F017F081422417F404040407F020497
:1016D000027F7F0408107F3E4141413E7F09090996
:1016E000063E4151215E7F09192946464949493143
:1016F00001017F01013F4040403F1F2040201F7FEC
:101700002018207F631408146303047804036151D4
:1017100049454300007F4141020408102041417FB8
:101720000000040201020440404040400001020465
:101730000020545454787F4844443838444444206A
:10174000384444487F3854545418087E090102082C
:101750001454543C7F0804047800447D4000204029
:10176000443D00007F10284400417F40007C041865
:1017700004787C0804047838444444387C141414F5
:1017800008081414187C7C08040408485454542095
:10179000043F4440203C4040207C1C2040201C3C16
:1017A0004030403C44281028440C5050503C446485
:1017B000544C44000836410000007F0000004136D0
:1017C0000800020103020100000000000000000008
:1017D000065F5F060000000007070007070000140F
:1017E0007F7F147F7F1400242E6B6B3A120000461B
:1017F0006630180C666200307A4F5D377A48000414
:1018000007030000000000001C3E634100000000D0
:1018100041633E1C000000082A3E1C1C3E2A0808AA
:10182000083E3E0808000000A0E06000000000083C
:101830000808080808000000006060000000006060
:1018400030180C060301003E7F594D7F3E000042D8
:10185000427F7F40400000627359496F660000225A
:101860006349497F360000181C16137F7F1000273C
:101870006745457D3900003C7E4B497930000003C7
:101880006371190F070000367F49497F3600000653
:101890004F49693F1E000000006C6C000000000012
:1018A000A0EC6C00000000081C366341000000142E
:1018B00014141414140000004163361C08000002C4
:1018C0000351590F0600003E7F415D5D1F1E007CE5
:1018D0007E13137E7C0000417F7F49497F36001CC8
:1018E0003E634141632200417F7F41637F1C004191
:1018F0007F7F495D416300417F7F491D0103001CDB
:101900003E6341517372007F7F08087F7F000000B3
:10191000417F7F41000000307040417F3F01004126
:101920007F7F081C776300417F7F41406070007FAC
:101930007F060C067F7F007F7F060C187F7F001CD0
:101940003E6341633E1C00417F7F49090F06001E34
:101950003F21717F5E0000417F7F19396F4600266D
:10196000674D597B32000003417F7F410300007FB8
:101970007F40407F7F00001F3F60603F1F00007F6F
:101980007F3018307F7F0063771C081C7763000767
:101990004F78784F0700006773594D476371000017
:1019A0007F7F41410000000103060C1830600000F9
:1019B00041417F7F000000080C0603060C080080F0
:1019C0008080808080808000000307040000002069
:1019D0007454543C784000413F7F44447C38003884
:1019E0007C44446C280000307848493F7F400038F0
:1019F0007C54545C180000487E7F49030200009824
:101A0000BCA4A4F87C0400417F7F08047C7800001B
:101A1000447D7D4000000040C484FD7D0000004105
:101A20007F7F10386C440000417F7F400000007CC5
:101A30007C0C180C7C78007C7C04047C78000038DA
:101A40007C44447C38000084FCF8A4243C18001832
:101A50003C24A4F8FC8400447C78441C1800004812
:101A60005C54547424000000043E7F442400003C75
:101A70007C40403C7C40001C3C60603C1C00003CC6
:101A80007C6030607C3C00446C3810386C44009CB6
:101A9000BCA0A0FC7C00004C64745C4C640000089A
:101AA000083E7741410000000000777700000041C8
:101AB00041773E0808000002030103020301000011
:101AC00011241FBECFEFD4E0DEBFCDBF13E0A0E0F6
:101AD000B1E0E0EDFCE302C005900D92A63CB10739
:101AE000D9F723E0A6ECB3E001C01D92A33EB207F4
:101AF000E1F70E9456160C94661E0C9400001F928B
:101B00000F920FB60F9211248F9381E08093D1032F
:101B10008F910F900FBE0F901F9018958091D10359
:101B2000882319F01092D10381E00895F89485B7C5
:101B3000826085BF85B78E7F85BF8BB780648BBF82
:101B4000789408950E947D0F0E94770F61E088E2EB
:101B50000E94480F65EB89E20E94480F63E48AE225
:101B60000E94480F43E063E08BE20E945F0F60E059
:101B70008FE00E94480F08950F931F93CF938C011D
:101B8000FC0160817181769567957695679576956C
:101B900067958091D2038295807F8F5C0E94480F69
:101BA00082E30E943A0FF80160816295660F607EC1
:101BB0008F71682B8091D2038295807F8E5C0E940A
:101BC000480F85E30E943A0F807FF8019281682FC9
:101BD000692B8091D2038295807F8B5C0E94480F95
:101BE000F80182818823A9F0C0E0F801EC0FF11D13
:101BF0008091D2039C2F20E1829F900D1124892F88
:101C000063818A5C0E94480FCF5FF8018281C81708
:101C100060F38091D2038F570E945A0FCF911F918A
:101C20000F9108950F931F93CF93DF93C82F0E94B6
:101C3000820F06EC13E0F80111821082C295C07F7A
:101C400081E68C0F0E943A0FD82F82E68C0F0E94FB
:101C50003A0F90E096958795929582958F70892797
:101C60009F7089272D2F30E0220F331F220F331F43
:101C7000220F331F822B932BF80120813181822B7D
:101C8000932B9183808385E60E943A0F8F70F80131
:101C90008283882371F0CA5909EC13E0DC2FD80F36
:101CA0008C2F0E943A0FF80181938F01CF5FCD13E3
:101CB000F7CF40E061E08CE20E945F0F40E062E01D
:101CC0008CE20E945F0F86EC93E0DF91CF911F9131
:101CD0000F910895EF92FF920F931F93CF93DF938D
:101CE000CDB7DEB72B970FB6F894DEBF0FBECDBFD2
:101CF0000E94C3150E949E15082F192FE82EF92E59
:101D00000E94A31528E02B83202F000F330B3323D1
:101D10001CF43195219531092C83212F110F330BA0
:101D200033231CF43195219531092D8326B322707C
:101D30002E83EE2014F021E101C020E0FF2014F0FA
:101D400031E101C030E02F83388789879A8780B3DB
:101D500020B3807190E09595879595958795959599
:101D6000879525FB992790F9892B8B8786E190E051
:101D70009A8389838FEF9FE50197F1F700C00000F8
:101D8000CE0101960E94BC0D2B960FB6F894DEBFD3
:101D90000FBECDBFDF91CF911F910F91FF90EF90BC
:101DA0000895CF93DF93CDB7DEB72B970FB6F89496
:101DB000DEBF0FBECDBF91E09B83813011F48C83D9
:101DC00006C0833011F48C8302C082E08C8386E0ED
:101DD00090E09A8389838FEF9FE50197F1F700C028
:101DE0000000CE0101960E94BC0D2B960FB6F89410
:101DF000DEBF0FBECDBFDF91CF910895CF93DF93AC
:101E0000CDB7DEB72B970FB6F894DEBF0FBECDBFB0
:101E100081E08B8384E090E09A8389831C82CE01E9
:101E200001960E94BC0D2B960FB6F894DEBF0FBE34
:101E3000CDBFDF91CF910895CF93DF93CDB7DEB7BC
:101E40002B970FB6F894DEBF0FBECDBF81E08B831A
:101E500083E090E09A8389831C82CE0101960E94E0
:101E6000BC0D2B960FB6F894DEBF0FBECDBFDF9131
:101E7000CF910895CF93C82FC49883E00E94951501
:101E80008C2F0E9495150E949915C49ACF910895A0
:101E9000CF93DF93D82FC62FC49882E00E94951568
:101EA0008D2F0E9495158C2F0E949515C49ADF9155
:101EB000CF910895C4980E949515C49A08951F93D0
:101EC000CF93DF93182FD62FC42FC49885E00E949C
:101ED0009515812F0E9495158D2F0E9495158C2F99
:101EE0000E949515C49ADF91CF911F910895C498CF
:101EF00080EC0E949515C49A08950E948F150E9447
:101F0000770F0895C49880EA0E9495150E9499154C
:101F1000C49A08950E94BE168AE00E94B41645E055
:101F20006FE171E080E00E9444178AE00E94B416DD
:101F300045E068E271E082E00E9444178AE00E9476
:101F4000B41645E066E371E083E00E9444178AE03E
:101F50000E94B41645E063E471E084E00E944417F7
:101F60008AE00E94B41645E060E571E086E00E94D8
:101F700044178AE00E94B41645E068E571E087E006
:101F80000E9444172FEF8FE796E121508040904048
:101F9000E1F700C000C0089581E090E0E0911A01EF
:101FA000F0911B01E80FF91F108201968530910511
:101FB000A9F70E94BE168AE00E94B41645E06AE6C0
:101FC00071E080E00E9444172FEF8FE796E12150E7
:101FD00080409040E1F700C000C00895EF920F9359
:101FE0000E94BE16E12C02E028E248E250E060E4E4
:101FF00070E080E79AE00E9439182FEF8FEF9EE0A3
:10200000215080409040E1F700C00000B199FECF20
:102010000F91EF900895EF920F931F93CF93DF935B
:102020000E94BE1645E06BE771E080E00E94441715
:10203000EE24E39401E020E048E250E060E470E048
:1020400080E79AE00E943918E12C20E448E250E051
:1020500060E470E080E790E00E94391810E00E9490
:10206000C31580B380B3D6B3D2708C2F0E943316C1
:10207000C82F8CEF8C0F823008F443C0C13001F5BB
:102080000E94BE1645E06BE771E080E00E944417B5
:10209000E12C01E020E048E250E060E470E080E7FD
:1020A0009AE00E943918EE24E39420E448E250E0DC
:1020B00060E470E080E790E00E94391811E021C0F0
:1020C000C1111FC00E94BE1645E06BE771E080E0C1
:1020D0000E944417EE24E39401E020E048E250E03F
:1020E00060E470E080E79AE00E943918E12C20E477
:1020F00048E250E060E470E080E790E00E94391828
:1021000010E08D2F0E94B315882309F4A8CF0E94F8
:10211000BE1611110CC045E063E871E083E00E9437
:102120004417E0911A01F0911B0110820CC045E0A8
:1021300060E971E083E00E944417E0911A01F09198
:102140001B0181E080832FEF8FE79AE021508040D0
:102150009040E1F700C000C0DF91CF911F910F9137
:10216000EF900895EF92FF920F931F93CF93DF9319
:1021700000D000D000D0CDB7DEB70E94BE168AE0F6
:102180000E94B416E0911A01F0911B012181828115
:1021900090E0982F8827820F911D9F938F930F2E89
:1021A000FCE9EF2EF1E0FF2EF02DFF92EF928E0171
:1021B0000F5F1F4F1F930F930E94F61A45E06FE9C0
:1021C00071E081E00E9444178AE00E94B41645E065
:1021D000B80182E00E944417E0911A01F0911B01BE
:1021E0002381848190E0982F8827820F911D9F93EF
:1021F0008F93FF92EF921F930F930E94F61A8AE03B
:102200000E94B41645E061EB71E084E00E9444173F
:102210008AE00E94B41645E0B80185E00E944417A8
:102220002FEF8FE796E1215080409040E1F700C00A
:1022300000C00FB6F894DEBF0FBECDBF26960FB616
:10224000F894DEBF0FBECDBFDF91CF911F910F91EC
:10225000FF90EF9008950E94BE1680E00E94AF1696
:102260008AE00E94B41645E062EC71E080E00E94D2
:10227000441745E069ED71E083E00E9444172FEFB9
:102280008FE796E1215080409040E1F700C000C008
:1022900048E061EB73E084E00E9444172FEF8FE782
:1022A00096E1215080409040E1F700C000C048E036
:1022B00068EA73E084E00E9444172FEF8FE796E10D
:1022C000215080409040E1F700C000C048E06FE935
:1022D00073E084E00E9444172FEF8FE796E12150CE
:1022E00080409040E1F700C000C00E94A8150E9405
:1022F000BE1680E00E94AF168AE00E94B41645E048
:1023000069EE71E080E00E9444172FEF8FE796E1BD
:10231000215080409040E1F700C000C00895BF9276
:10232000CF92DF92EF92FF920F931F93CF93DF93A1
:1023300000D000D000D0CDB7DEB70E94BE160E94FC
:10234000A81510E00F2EF4E6CF2ED12CF02DB7C03B
:102350000E946A0E0E948E0D882309F4B0C080E0AE
:102360000E94120E7C01DC018D919C9184309105BC
:1023700009F468C08730910509F498C0019709F005
:102380009EC00E94BE168AE00E94B41645E06DEF22
:1023900071E083E00E944417E0911A01F0911B0163
:1023A000808181110DC0D70113968C911397818381
:1023B000E0911A01F0911B0114968C9182830BC05D
:1023C0008081882341F0D70113968C9113978383E2
:1023D00014968C918483F7018481082E000C990B4C
:1023E000982F88272381820F911D27FD9A959F930F
:1023F0008F938CE991E09F938F938E010F5F1F4F16
:102400001F930F930E94F61A8AE00E94B41645E0CB
:1024100068E072E084E00E94441748E0B80185E07B
:102420000E944417FFEF2FE734E3F1502040304083
:10243000E1F700C000000F900F900F900F900F90E9
:102440000F903FC088E00E94AF1605E0010F812F7A
:102450000E94B41680E00E947E161F5F0113F7CF22
:10246000D70113962C9138E72303C0011124B6013C
:102470000E94F018162F0F2EF5E0BF2EF02DB60E8D
:10248000062F802F0E94B41680EF0E947E160F5FE9
:102490000B11F7CFD70114968C91882381F045E07A
:1024A00064E172E083E00E94441709C0F701638190
:1024B000062E000C770B45E080E00E944417859BB8
:1024C00047CF26960FB6F894DEBF0FBECDBFDF9183
:1024D000CF911F910F91FF90EF90DF90CF90BF9021
:1024E000089581E00E94D10E0E94BE1680E00E94F5
:1024F000AF168AE00E94B41645E069E172E080E020
:102500000E9444172FEF8FE796E1215080409040C2
:10251000E1F700C000C0089582E00E94D10E0E9441
:10252000BE1680E00E94AF168AE00E94B41645E015
:1025300060E372E080E00E9444172FEF8FE796E19E
:10254000215080409040E1F700C000C0089583E032
:102550000E94D10E0E94BE1680E00E94AF168AE053
:102560000E94B41645E069E472E080E00E944417DE
:102570002FEF8FE796E1215080409040E1F700C0B7
:1025800000C00895CF92DF92EF92FF920F931F93B6
:10259000CF93DF9300D000D000D0CDB7DEB70E943C
:1025A000BE168AE00E94B41645E060E672E080E064
:1025B0000E9444178AE00E94B41645E063E772E087
:1025C00081E00E9444178AE00E94B41645E06FE75C
:1025D00072E082E00E9444178AE00E94B41645E04F
:1025E00063E972E083E00E9444172FEF8FE795E2E2
:1025F000215080409040E1F700C0000010E00F2E15
:10260000FFE1CF2ED12CF02DEE24E39434C0EFEF78
:10261000FFE721E0E150F0402040E1F700C000C0BA
:102620000E94851AB6010E94F0188A3021F50E9496
:10263000FE0E0E94BE160F2D0FC0812F0E94B416F1
:10264000802F0E94AF168FEF0E947E161F5F1034FE
:10265000A1F70F5F083011F01F2DEFCF80B380710D
:102660000E94B315811106C080B380720E94B31519
:102670008823A1F31E2D80B380710E94B3158111B0
:1026800008C080B380720E94B315F82E882309F425
:10269000BECF111115C00E94BE168AE00E94B4166A
:1026A00045E060EA72E080E00E9444178FEF9FE708
:1026B000E6E181509040E040E1F700C000C06EC00C
:1026C000113009F057C0849B55C00E94BE160E946D
:1026D0001C0F80E090EF0197F1F780E00E94120E4E
:1026E000FC012081223099F70481002E000C110B8F
:1026F000102F00278381080F111D87FD1A951F9346
:102700000F9381EB92E09F938F930E94E01A8AE0EF
:102710000E94B41645E06DEB72E081E00E94441720
:102720008AE00E94B4161F930F938CE991E09F9367
:102730008F938E010F5F1F4F1F930F930E94F61A06
:1027400045E0B80182E00E94441745E060ED72E088
:1027500083E00E944417FFEF2FE785E2F15020400D
:102760008040E1F700C000000FB6F894DEBF0FBE56
:10277000CDBF14C00E94BE168AE00E94B41645E088
:102780006EED72E080E00E944417FFEF2FE786E1D4
:10279000F15020408040E1F700C000C026960FB6FF
:1027A000F894DEBF0FBECDBFDF91CF911F910F9187
:1027B000FF90EF90DF90CF900895CF93DF93EC01DF
:1027C00081E390E00E941819AAE0B1E0FC014AE11F
:1027D00051E0118A108A11A210A22D913D912193EE
:1027E0003193A417B507A9F7FC0110AAD78FC68F9C
:1027F000DF91CF910895CF93DF93EC0180E00E94A9
:10280000B41688A9E82FF0E0EE0FFF1FEC0FFD1FB4
:102810006081718145E00E94EB17DF91CF910895AF
:10282000FF920F931F93CF93DF93F82ED92F0E941F
:10283000D6160F2D1D2FC0E080E00E94B416F801BF
:10284000619171918F0145E08C2F0E944417CF5FF9
:10285000C83091F78F2D9D2F0E94FB13DF91CF91F0
:102860001F910F91FF900895CF93DF93DC016230A9
:1028700039F5ED91FC91119780A9815080ABCD91F4
:10288000DC91119798A9E92FF0E0EE0FFF1FEC0FF4
:10289000FD1F2081318122583140D1F5915098ABF4
:1028A000CD91DC91119798A9E92FF0E0EE0FFF1F71
:1028B000EC0FFD1F208131812258314079F328C06F
:1028C000633031F5ED91FC91119780A98F5F80AB5A
:1028D000CD91DC91119798A9E92FF0E0EE0FFF1F41
:1028E000EC0FFD1F208131812258314089F49F5F18
:1028F00098ABCD91DC91119798A9E92FF0E0EE0FFC
:10290000FF1FEC0FFD1F208131812258314079F3E8
:10291000ED91FC91119780A9883009F410AAED91EE
:10292000FC91119780A98F3F11F487E080AB645030
:10293000623020F08D919C910E941014DF91CF9114
:1029400008950F931F93CF93DF93EC01E881F981F2
:1029500080A9A82FB0E0AA0FBB1FAE0FBF1F909693
:10296000ED91FC919197309731F00995888199818B
:102970000E9410140CC050960D911C915197011596
:10298000110529F0C8010E94101419830883DF91F2
:10299000CF911F910F9108950E9481160E94BE163B
:1029A00080E090E00E94DD139093D4038093D303E2
:1029B0000E94DD138C018091D3039091D4030E9477
:1029C000DD13DC01E091D303F091D40383EF92E0B7
:1029D00091838083E091D303F091D4038FE891E158
:1029E00091A380A382E093E0938382838BE093E0C2
:1029F00095838483158B048B86E193E0978386838C
:102A00008BE291E197A386A386E293E0918780878A
:102A1000B18FA08F8BE292E011969C938E9381E709
:102A200092E191969C938E93909782E492E0139614
:102A30009C938E9312978CE892E193969C938E933D
:102A400092978BE592E015969C938E93149787EA64
:102A500092E195969C938E939497E091D303F09195
:102A6000D40381E393E09387828782EC92E193A77A
:102A700082A78FE393E0958784878EEE9FE095A7EA
:102A800084A78CE493E0978786878AE89FE097A7DE
:102A900086A784E593E0F801918380838BE090E141
:102AA00091A380A385E693E09383828382EB90E1F8
:102AB00093A382A38EE693E0958384838CEC9FE0BE
:102AC00095A384A382E891E091878087938782878A
:102AD000958784878091D3039091D4030E9410142A
:102AE0000E94A8150E94C31580B380B3C6B3C270FC
:102AF0008D2F0E943316D82F8CEF8D0F823028F047
:102B00006D2F83ED93E00E9434148C2F0E94B31537
:102B1000882341F383ED93E00E94A114E3CF80EB7F
:102B200087BB81E58DB9C49A08958FB9779BFECF95
:102B3000089580EF0E9495158FB108958091D70375
:102B40009091D80308958091D5039091D60308956C
:102B5000E0E0F4E181E08083808180931E01808148
:102B600080931D010895811107C080911C0181305F
:102B700041F410921C01089581E080931C0180E0D3
:102B8000089580E008950F931F93CF93E0E0F4E160
:102B900081E08083408120813081C081E0911E01ED
:102BA0004E1798F0F0E050E04E1B5F0B64E6649F18
:102BB000C001659F900D11246FEF70E06E1B7F0BBD
:102BC0000E94F0186093D7030FC06E2F70E050E0A2
:102BD000461B570BE4E6E49FC001E59F900D1124CE
:102BE0000E94F0186093D70360911D012617A8F08A
:102BF000462F50E0622F70E0641B750B24E6269F81
:102C0000C001279F900D11246FEF70E0641B750BBE
:102C10000E94F0186093D8030FC070E0422F50E07C
:102C2000461B570B24E6249FC001259F900D1124BD
:102C30000E94F0186093D803E5EDF3E024E6239FAB
:102C4000C00111240FEF10E0B8010E94F01860835A
:102C50002C9FC0011124B8010E94F0186183CF910C
:102C60001F910F9108959091D70321E3290F2336E7
:102C700028F42091D8032F5C233610F0843061F4BF
:102C8000903664F4913A64F08091D803813A54F01C
:102C9000803654F484E0089585E0089581E0089535
:102CA00080E0089583E0089582E008958FE190E048
:102CB0000E94E01885B7806885BF80B7877F80BF96
:102CC00080B78F7E80BF80B7806280BF8AB3886103
:102CD0008ABB0E94A20D0E94960D0E94CC14CBEBE1
:102CE000D3E00E946A0E80E090EF0197F1F7DF9346
:102CF000CF930E94E01A0F900F90F3CF80930012B1
:102D00000895E0E0F0E18EEA808381EA80838AED35
:102D1000808382E1808388EC808388EA80838FE3EC
:102D2000808385ED808380E8808381E8808380E5EF
:102D3000808389ED808381E2808380E2808382E0EA
:102D400080838BED808380E380838DEA8083108293
:102D500084EA808386EA80838FEA8083089587707F
:102D60008055809300100895982F9F70E0E0F0E167
:102D7000908382958F70805F808308951F93CF9397
:102D8000DF9310E0C0E0D2E1812F0E94AF1680E017
:102D90000E94B41680E890E018820197E9F71F5F5F
:102DA000183091F7DF91CF911F9108951F93CF9322
:102DB000DF9310E0C0E0D2E1812F0E94AF1680E0E7
:102DC0000E94B41680E890E018820197E9F71F5F2F
:102DD000183091F7DF91CF911F910895805268309C
:102DE000F1F490E09C01220F331F220F331F220FBA
:102DF000331F2953384E880F991F880F991F880F4A
:102E0000991F8153984EA0E0B2E1F9014591549188
:102E10004C932F5F3F4F82179307B9F708956530A2
:102E2000D1F490E09C01220F331F220F331F820F39
:102E3000931F20E030E0A0E0B2E1F901E80FF91FB4
:102E4000E451FA4E459154914C932F5F3F4F2530FA
:102E5000310599F708956430B1F490E0880F991F17
:102E6000880F991F20E030E0A0E0B2E1F901E80FFF
:102E7000F91FE059FB4E459154914C932F5F3F4F02
:102E80002430310599F708958F929F92AF92BF92A7
:102E9000CF92DF92EF92FF920F931F93CF93DF9326
:102EA000882E8B01942E0E94AF167801C0E0D0E0EE
:102EB000A92CB12C6894CC24C7F8D12C19C0C60118
:102EC000B5010E94F0189B01CE010E94F018892BD9
:102ED00041F4CE01B9010E94F018882D860F0E949E
:102EE000AF16692DF70181917F010E94EE162196A0
:102EF000F80101900020E9F73197E01BF10BCE17A4
:102F0000DF07E8F280E00E94B416DF91CF911F91B5
:102F10000F91FF90EF90DF90CF90BF90AF909F9078
:102F20008F90089580526830F9F490E09C01220F50
:102F3000331F220F331F220F331F2953384E880FA0
:102F4000991F880F991F880F991F8153984EA0E0F1
:102F5000B2E1F9014591549140954C932F5F3F4F59
:102F600082179307B1F708956530D9F490E09C017A
:102F7000220F331F220F331F820F931F20E030E0F8
:102F8000A0E0B2E1F901E80FF91FE451FA4E4591D2
:102F9000549140954C932F5F3F4F2530310591F769
:102FA00008956430B9F490E0880F991F880F991F35
:102FB00020E030E0A0E0B2E1F901E80FF91FE059AC
:102FC000FB4E4591549140954C932F5F3F4F2430D9
:102FD000310591F708958F929F92AF92BF92CF9251
:102FE000DF92EF92FF920F931F93CF93DF93882E80
:102FF0008B01942E0E94AF167801C0E0D0E0A92C7E
:10300000B12C6894CC24C7F8D12C19C0C601B501E5
:103010000E94F0189B01CE010E94F018892B41F408
:10302000CE01B9010E94F018882D860F0E94AF16BC
:10303000692DF70181917F010E9492172196F80175
:1030400001900020E9F73197E01BF10BCE17DF0765
:10305000E8F280E00E94B416DF91CF911F910F91AA
:10306000FF90EF90DF90CF90BF90AF909F908F90A8
:1030700008952F923F924F925F926F927F928F921C
:103080009F92AF92BF92CF92DF92EF92FF920F93F7
:103090001F93CF93DF93CDB7DEB727970FB6F89482
:1030A000DEBF0FBECDBFFA01FF230CF43796AF0190
:1030B0005595479555954795559547955A83498315
:1030C000141615060CF05AC02E2C2D833B01FB0163
:1030D000EE0FFF1FEE0FFF1FEE0FFF1FFC83EB83B2
:1030E000A82EB92E302E812C912C7F836E830F2E2B
:1030F000C12CF2E1DF2EF02D161417048CF57501AA
:10310000E60CF71C85014D8026C0849190E0022ECC
:1031100002C0880F991F0A94E2F7582A2F5F3F4F89
:103120004E815F81E40FF51F2830310571F7832D43
:103130000E94AF16842D0E94B416222021F05094D4
:10314000F601508202C0F601508243940F5F1F4F78
:103150000E151F0529F0F80120E030E0512CD5CFE5
:10316000FFEF8F1A9F0A33942B813C81A20EB31E6E
:1031700049815A818416950609F0BECF27960FB66D
:10318000F894DEBF0FBECDBFDF91CF911F910F919D
:10319000FF90EF90DF90CF90BF90AF909F908F9077
:1031A0007F906F905F904F903F902F9008955D9B20
:1031B000FECF8CB908955F9BFECF8CB190E008954F
:1031C00090BD89B988E18AB98EE88CBF80B58E7FC1
:1031D00080BD6BED78E187ED98E10E94951A089526
:1031E00097FB072E16F4009407D077FD09D00E94B4
:1031F000041907FC05D03EF4909581959F4F0895E2
:10320000709561957F4F0895AA1BBB1B51E107C0C4
:10321000AA1FBB1FA617B70710F0A61BB70B881F66
:10322000991F5A95A9F780959095BC01CD010895F5
:103230000F931F93CF93DF938230910510F482E0B8
:1032400090E0E091DB03F091DC0320E030E0A0E0CF
:10325000B0E0309719F14081518102811381481704
:103260005907C8F08417950769F4109731F0129642
:103270000C93129713961C9327C00093DB031093B3
:10328000DC0322C02115310519F04217530718F449
:103290009A01BD01EF01DF01F801DBCF21153105F6
:1032A000F9F0281B390B2430310580F48A819B8189
:1032B0006115710521F0FB019383828304C0909313
:1032C000DC038093DB03FE01329644C0FE01E20F73
:1032D000F31F8193919322503109398328833AC097
:1032E0002091D9033091DA03232B41F4209102017C
:1032F000309103013093DA032093D9032091000128
:10330000309101012115310541F42DB73EB74091AF
:10331000040150910501241B350BE091D903F09174
:10332000DA03E217F307A0F42E1B3F0B2817390727
:1033300078F0AC014E5F5F4F2417350748F04E0F11
:103340005F1F5093DA034093D9038193919302C096
:10335000E0E0F0E0CF01DF91CF911F910F91089550
:10336000CF93DF93009709F481C0FC013297138259
:103370001282A091DB03B091DC03109781F42081CD
:103380003181820F931F2091D9033091DA032817DE
:10339000390751F5F093DA03E093D90367C0ED01E3
:1033A00020E030E0CE17DF0740F44A815B819E01C8
:1033B00041155105F1F0EA01F5CFD383C283408175
:1033C0005181840F951FC817D90759F488819981B5
:1033D000840F951F0296918380838A819B819383BA
:1033E00082832115310529F4F093DC03E093DB039C
:1033F0003DC0E901FB83EA8349915991C40FD51F70
:10340000EC17FD0761F480819181840F951F02966E
:10341000E90199838883828193819B838A83E0E099
:10342000F0E012968D919C911397009719F0FD0191
:10343000DC01F7CF8D919C9111979D012E5F3F4F3D
:10344000820F931F2091D9033091DA03281739078F
:1034500069F4309729F41092DC031092DB0302C068
:1034600013821282B093DA03A093D903DF91CF9134
:1034700008958F929F92AF92BF92CF92DF92EF9278
:10348000FF92CF93DF93EC01688179818A819B81E0
:10349000611571058105910521F464E279ED8BE5F3
:1034A00097E02DE133EF41E050E00E94CC1D49014F
:1034B0005A019B01AC01A7EAB1E40E94EB1D6B012C
:1034C0007C01ACEEB4EFA50194010E94F91DDC0172
:1034D000CB018C0D9D1DAE1DBF1DB7FF03C0019715
:1034E000A109B04888839983AA83BB839F77DF9122
:1034F000CF91FF90EF90DF90CF90BF90AF909F90D3
:103500008F9008950E94391A089586E091E00E94F4
:10351000391A0895A0E0B0E0809306019093070166
:10352000A0930801B093090108950F931F93CF93BF
:10353000DF93009731F46115710519F480E090E094
:103540003AC08B01EC016EE070E081E090E00E94F7
:10355000F91CFC01892B91F380E883830115110587
:1035600071F01387028781E883838091DD03909156
:10357000DE03892B21F4F093DE03E093DD03209733
:10358000C9F0D187C0878381826083838091DF0304
:103590009091E003892B71F4F093E003E093DF0353
:1035A0008091E1039091E203892B21F4F093E203EF
:1035B000E093E103CF01DF91CF911F910F91089527
:1035C000A0E0B0E0E6EEFAE10C940E1EAE014B5F17
:1035D0005F4FFA0161917191AF018091DF0390918A
:1035E000E0030E94181BE2E00C942A1EAEE0B0E05B
:1035F000ECEFFAE10C940C1E0D891E8986E08C8399
:103600001A8309838FEF9FE79E838D83AE01475E08
:103610005F4F6F89788DCE0101960E94181BEF8154
:10362000F885E00FF11F10822E96E4E00C94281E1E
:10363000ABE0B0E0EEE1FBE10C94FE1D6C017B0120
:103640008A01FC0117821682838181FFCCC1CE01E1
:1036500001963C01F6019381F70193FD859193FF5B
:1036600081917F01882309F4BAC1853239F493FD31
:10367000859193FF81917F01853229F4B60190E015
:103680000E94321DE7CF912C212C312CFFE1F31544
:10369000D8F08B3279F038F4803279F08332A1F4AB
:1036A000232D20611DC08D3261F0803369F4232DFC
:1036B000216016C0832D8260382EE32DE4603E2EFB
:1036C0002AC0F32DF8601DC037FC2DC020ED280F57
:1036D0002A3040F08E32B9F436FC81C1232D2064AB
:1036E000322E19C036FE06C08AE0989E200D1124A5
:1036F000922E11C0EAE02E9E200D1124222EF32DD1
:10370000F0623F2E08C08C3621F4832D8068382E5D
:1037100002C0883641F4F70193FD859193FF8191B2
:103720007F018111B3CF982F9F7D9554933028F45A
:103730000C5F1F4F9FE399830DC0833631F08337B1
:1037400071F0833509F059C021C0F8018081898367
:103750000E5F1F4F88248394912C530113C02801BE
:10376000F2E04F0E511CF801A080B18036FE03C07C
:10377000692D70E002C06FEF7FEFC5010E94271D29
:103780004C018201F32DFF773F2E16C0280122E065
:10379000420E511CF801A080B18036FE03C0692D95
:1037A00070E002C06FEF7FEFC5010E94151D4C0154
:1037B000F32DF0683F2E820133FC1BC0822D90E078
:1037C00088169906B0F4B60180E290E00E94321D9E
:1037D0002A94F4CFF50137FC859137FE81915F0182
:1037E000B60190E00E94321D21102A9421E0821A35
:1037F00091088114910471F7E8C0843611F089367C
:1038000041F5F80137FE07C06081718182819381A3
:103810000C5F1F4F08C060817181072E000C880B60
:10382000990B0E5F1F4FF32DFF763F2E97FF09C0B8
:1038300090958095709561957F4F8F4F9F4FF06861
:103840003F2E2AE030E0A3010E946E1D882E8618CC
:1038500045C0853731F4232D2F7EB22E2AE030E08B
:1038600025C0932D997FB92E8F36C1F018F4883575
:1038700079F0B5C0803719F0883721F0B0C0E92F52
:10388000E061BE2EB4FE0DC0FB2DF460BF2E09C05A
:1038900034FE0AC0292F2660B22E06C028E030E090
:1038A00005C020E130E002C020E132E0F801B7FEBF
:1038B00007C060817181828193810C5F1F4F06C0B8
:1038C0006081718180E090E00E5F1F4FA3010E9434
:1038D0006E1D882E8618FB2DFF773F2E36FE0DC0FD
:1038E000232D2E7FA22E891458F434FE0BC032FCF7
:1038F00009C0832D8E7EA82E05C0B82CA32C03C032
:10390000B82C01C0B92CA4FE0FC0FE01E80DF11DBA
:103910008081803321F49A2D997EA92E09C0A2FEC0
:1039200006C0B394B39404C08A2D867809F0B3948A
:10393000A3FC11C0A0FE06C0B21488F4280C922C7F
:103940009B180EC0B21460F4B60180E290E00E94B1
:10395000321DB394F7CFB21418F42B1802C0982C70
:10396000212CA4FE10C0B60180E390E00E94321D1D
:10397000A2FE17C0A1FC03C088E790E002C088E562
:1039800090E0B6010CC08A2D867859F0A1FE02C0E5
:103990008BE201C080E2A7FC8DE2B60190E00E94BC
:1039A000321D891438F4B60180E390E00E94321D84
:1039B0009A94F7CF8A94F301E80DF11D8081B60146
:1039C00090E00E94321D8110F5CF222009F442CEF2
:1039D000B60180E290E00E94321D2A94F6CFF601F3
:1039E0008681978102C08FEF9FEF2B96E2E10C94C6
:1039F0001A1E0F931F93CF93DF93869F8001879F9B
:103A0000100D969F100D1124C8010E941819EC0189
:103A1000009729F0A80160E070E00E94201DCE010F
:103A2000DF91CF911F910F910895FC010590615096
:103A300070400110D8F7809590958E0F9F1F0895C4
:103A4000DC0101C06D9341505040E0F70895FC0146
:103A50006150704001900110D8F7809590958E0FBD
:103A60009F1F08950F931F93CF93DF93FB01238133
:103A700021FD03C08FEF9FEF2CC022FF16C04681AF
:103A80005781248135814217530744F4A081B181C5
:103A90009D012F5F3F4F318320838C932681378197
:103AA0002F5F3F4F3783268314C08B01EC01FB014E
:103AB0000084F185E02D0995892BE1F6D801169651
:103AC0008D919C911797019617969C938E931697BC
:103AD000CE01DF91CF911F910F910895FA01AA278E
:103AE000283051F1203181F1E8946F936E7F6E5F41
:103AF0007F4F8F4F9F4FAF4FB1E03ED0B4E03CD0EF
:103B0000670F781F891F9A1FA11D680F791F8A1FD1
:103B1000911DA11D6A0F711D811D911DA11D20D038
:103B200009F468943F912AE0269F11243019305DF2
:103B30003193DEF6CF010895462F4770405D4193E3
:103B4000B3E00FD0C9F7F6CF462F4F70405D4A3330
:103B500018F0495D31FD4052419302D0A9F7EACFF8
:103B6000B4E0A6959795879577956795BA95C9F727
:103B700000976105710508959B01AC010A2E06941A
:103B80005795479537952795BA95C9F7620F731FD3
:103B9000841F951FA01D0895052E97FB1EF4009409
:103BA0000E94E31D57FD07D00E94351E07FC03D07D
:103BB0004EF40C94E31D50954095309521953F4F60
:103BC0004F4F5F4F089590958095709561957F4F09
:103BD0008F4F9F4F08950E94571EA59F900DB49F31
:103BE000900DA49F800D911D11240895B7FF0C9492
:103BF000EB1D0E94EB1D821B930B08952F923F92A9
:103C00004F925F926F927F928F929F92AF92BF92EC
:103C1000CF92DF92EF92FF920F931F93CF93DF9398
:103C2000CDB7DEB7CA1BDB0B0FB6F894DEBF0FBEF5
:103C3000CDBF09942A88398848885F846E847D8442
:103C40008C849B84AA84B984C884DF80EE80FD8044
:103C50000C811B81AA81B981CE0FD11D0FB6F894BA
:103C6000DEBF0FBECDBFED010895A1E21A2EAA1B43
:103C7000BB1BFD010DC0AA1FBB1FEE1FFF1FA2171C
:103C8000B307E407F50720F0A21BB30BE40BF50B19
:103C9000661F771F881F991F1A9469F760957095A2
:103CA000809590959B01AC01BD01CF010895A29F25
:103CB000B001B39FC001A39F700D811D1124911D00
:103CC000B29F700D811D1124911D0895F894FFCFAE
:103CD0000000E3032000010000009803A103AA03F1
:103CE0008201820182018201B303001801A0A04D6C
:103CF0004144452042593A0042656E64696B204C4C
:103D00006F766C6965004D61676E6520486F7664FB
:103D100061720054686F6D6173204E79687573002D
:103D200054544B3431353500417574756D6E203205
:103D30003032302C204E544E5500486973636F72F8
:103D400065732064656C657465640043484F4F5328
:103D5000452100576F6A616B2063686F73656E0061
:103D6000506570652063686F73656E002575007718
:103D70006F6A616B20686967682073636F72653A68
:103D8000007065706520686967682073636F72658D
:103D90003A00506C65617365206C657420676F2014
:103DA0006F6620737469636B0043616C6962726152
:103DB00074696E6720696E3A004A6F79737469633B
:103DC0006B2063616C696272617465640047414D88
:103DD00045204F5645522100596F75722073636F0D
:103DE00072653A0053484F540044696666696375CA
:103DF0006C74792073657420746F20656173790029
:103E0000446966666963756C74792073657420749F
:103E10006F206D656469756D0044696666696375D8
:103E20006C74792073657420746F2068617264000B
:103E30004966206C656674206C69676874732075C8
:103E4000702C00636C69636B206C6566742E00498E
:103E500066207269676874206C696768747320757E
:103E6000702C00636C69636B2072696768742E0044
:103E70004661696C2E20546F6F206561726C792EDB
:103E800000617364677364666720256400596F7509
:103E9000207265616374696F6E2074696D653A00A4
:103EA000206D696C6C697365636F6E647300536F2A
:103EB0006D657468696E672077656E742077726FC0
:103EC0006E6700506C61792070696E672D706F6E3F
:103ED000670047726170686963730043686172616B
:103EE00063746572730043616C696272617465200A
:103EF000737469636B00446966666963756C747991
:103F0000005265616374696F6E2074657374004458
:103F1000726177206120776F6A616B00437265641C
:103F20006974730043686F6F7365206368617261C1
:103F30006374657200486973636F726573005265DC
:103F40007365742073636F7265730048656C6C6F82
:103F500020776F726C6421004A6F79737469636BA8
:103F60002D72657475726E004F7074696F6E2031BA
:103F7000004F7074696F6E2032004F7074696F6EFD
:103F80002033003C2D204261636B006D656E75200F
:063F90006661696C00008F
:00000001FF
