:100000000C9460030C947D030C947D030C947D038D
:100010000C947D030C947D030C947D030C947D0360
:100020000C947D030C947D030C947D030C947D0350
:100030000C947D030C947D030C947D030C947D0340
:100040000C947D030C947D030C947D030C947D0330
:100050000C947D030C947D030C947D030C947D0320
:100060000C947D030C947D030C947D030C947D0310
:1000700000000000005C00000C000C007C287C28C4
:1000800058DC68002410480028542840000C000068
:10009000007884008478000054385400107C1000EC
:1000A00080400000101010000040000060100C00A4
:1000B00038543800487C40004864580044542C00B0
:1000C0001C107C005C5424003854240064140C0080
:1000D00068542C0048543800004800008048000054
:1000E0001028440028282800442810000454080040
:1000F00038445C00781478007C5428003844280088
:100100007C4438007C5444007C140400384474005F
:100110007C107C00447C440020403C007C106C003F
:100120007C4040007C187C0078103C00384438004B
:100130007C1408003844B8007C146800485424003B
:10014000047C04007C407C003C603C007C307C00F3
:100150006C106C000C700C0064544C00007C44006B
:100160000C106000447C00000804080080808000BF
:1001700000040800304878007C48300030484800CF
:1001800030487C00306850001078140090A8780047
:100190007C08700050744000808074007C106800FF
:1001A000447C4000781078007808700030483000B7
:1001B000F82810003048F80078100800505828003F
:1001C000083C4800384078003840380078207800F3
:1001D0004830480098A0780048685800107884009B
:1001E000007C00008478100008040804000000006F
:1001F0000000005F00000007000700147F147F1458
:10020000242A7F2A1223130864623649552250009B
:1002100005030000001C2241000041221C00082AA6
:100220001C2A0808083E080800503000000808088A
:100230000808006060000020100804023E51494593
:100240003E00427F400042615149462141454B31C9
:100250001814127F1027454545393C4A4949300159
:10026000710905033649494936064949291E0036B0
:100270003600000056360000000814224114141401
:10028000141441221408000201510906324979412F
:100290003E7E1111117E7F494949363E414141223E
:1002A0007F4141221C7F494949417F090901013EA3
:1002B000414151327F0808087F00417F41002040C2
:1002C000413F017F081422417F404040407F0204AB
:1002D000027F7F0408107F3E4141413E7F090909AA
:1002E000063E4151215E7F09192946464949493157
:1002F00001017F01013F4040403F1F2040201F7F00
:100300002018207F631408146303047804036151E8
:1003100049454300007F4141020408102041417FCC
:100320000000040201020440404040400001020479
:100330000020545454787F4844443838444444207E
:10034000384444487F3854545418087E0901020840
:100350001454543C7F0804047800447D400020403D
:10036000443D00007F10284400417F40007C041879
:1003700004787C0804047838444444387C14141409
:1003800008081414187C7C080404084854545420A9
:10039000043F4440203C4040207C1C2040201C3C2A
:1003A0004030403C44281028440C5050503C446499
:1003B000544C44000836410000007F0000004136E4
:1003C000080002010302010000000000000000001C
:1003D000065F5F0600000000070700070700001423
:1003E0007F7F147F7F1400242E6B6B3A120000462F
:1003F0006630180C666200307A4F5D377A48000428
:1004000007030000000000001C3E634100000000E4
:1004100041633E1C000000082A3E1C1C3E2A0808BE
:10042000083E3E0808000000A0E060000000000850
:100430000808080808000000006060000000006074
:1004400030180C060301003E7F594D7F3E000042EC
:10045000427F7F40400000627359496F660000226E
:100460006349497F360000181C16137F7F10002750
:100470006745457D3900003C7E4B497930000003DB
:100480006371190F070000367F49497F3600000667
:100490004F49693F1E000000006C6C000000000026
:1004A000A0EC6C00000000081C3663410000001442
:1004B00014141414140000004163361C08000002D8
:1004C0000351590F0600003E7F415D5D1F1E007CF9
:1004D0007E13137E7C0000417F7F49497F36001CDC
:1004E0003E634141632200417F7F41637F1C0041A5
:1004F0007F7F495D416300417F7F491D0103001CEF
:100500003E6341517372007F7F08087F7F000000C7
:10051000417F7F41000000307040417F3F0100413A
:100520007F7F081C776300417F7F41406070007FC0
:100530007F060C067F7F007F7F060C187F7F001CE4
:100540003E6341633E1C00417F7F49090F06001E48
:100550003F21717F5E0000417F7F19396F46002681
:10056000674D597B32000003417F7F410300007FCC
:100570007F40407F7F00001F3F60603F1F00007F83
:100580007F3018307F7F0063771C081C776300077B
:100590004F78784F0700006773594D47637100002B
:1005A0007F7F41410000000103060C18306000000D
:1005B00041417F7F000000080C0603060C08008004
:1005C000808080808080800000030704000000207D
:1005D0007454543C784000413F7F44447C38003898
:1005E0007C44446C280000307848493F7F40003804
:1005F0007C54545C180000487E7F49030200009838
:10060000BCA4A4F87C0400417F7F08047C7800002F
:10061000447D7D4000000040C484FD7D0000004119
:100620007F7F10386C440000417F7F400000007CD9
:100630007C0C180C7C78007C7C04047C78000038EE
:100640007C44447C38000084FCF8A4243C18001846
:100650003C24A4F8FC8400447C78441C1800004826
:100660005C54547424000000043E7F442400003C89
:100670007C40403C7C40001C3C60603C1C00003CDA
:100680007C6030607C3C00446C3810386C44009CCA
:10069000BCA0A0FC7C00004C64745C4C64000008AE
:1006A000083E7741410000000000777700000041DC
:1006B00041773E0808000002030103020301000025
:1006C00011241FBECFEFD4E0DEBFCDBF12E0A0E00B
:1006D000B1E0E2EFFAE102C005900D92AC30B10753
:1006E000D9F722E0ACE0B2E001C01D92A631B2071A
:1006F000E1F70E94DD040C94770D0C940000CF9379
:10070000DF93EC0181E290E00E941408AAE0B1E0DE
:10071000FC014AE151E0118A108A2D913D9121930B
:100720003193A417B507B9F7FC0110A2D78FC68F74
:10073000DF91CF910895CF93DF93EC0180E00E9489
:10074000090688A1E82FF0E0EE0FFF1FEC0FFD1F58
:100750006081718148E00E943D07DF91CF9108954B
:10076000FF920F931F93CF93DF93F82ED92F0E9400
:100770002B060F2D1D2FC0E080E00E940906F80116
:10078000619171918F0148E08C2F0E949906CF5F93
:10079000C83091F78F2D9D2F0E949B03DF91CF9141
:1007A0001F910F91FF9008950F931F93CF938C018A
:1007B000C62F6230B9F4DC01ED91FC91119780A154
:1007C000815080A3ED91FC9180A11F928F938FE1C6
:1007D00091E09F938F930E94DC090F900F900F90F0
:1007E0000F9018C06330B1F4DC01ED91FC911197CA
:1007F00080A18F5F80A3ED91FC9180A11F928F93C8
:1008000085E291E09F938F930E94DC090F900F90F7
:100810000F900F90D801ED91FC9180A1883009F4E0
:1008200010A2D801ED91FC9180A18F3F11F487E0D7
:1008300080A3C450C23028F0F801808191810E94C9
:10084000B003CF911F910F9108950F931F93CF93F2
:10085000DF93DC01CD91DC91119798A1E92FF0E0B5
:100860003896EE0FFF1FEC0FFD1F0081118101155F
:10087000110531F0ED01C8010E94B003198308830E
:10088000DF91CF911F910F910895FC0120911C01E0
:10089000621790F030E070E0621B730B54E6569FD5
:1008A000C001579F900D11246FEF70E0621B730B16
:1008B0000E94EC07608310C0A22FB0E0262F30E02A
:1008C0002A1B3B0B54E6529FC001539F900D1124ED
:1008D000BD010E94EC07608360911B01461798F0F0
:1008E000262F30E050E0421B530B64E6649FC001AA
:1008F000659F900D11246FEF70E0621B730B0E94D7
:10090000EC076183089570E050E0461B570B24E626
:10091000249FC001259F900D11240E94EC07618344
:100920000895CF93DF93FC0124E6269FC001112494
:10093000CFEFD0E0BE010E94EC076083249FC0018E
:100940001124BE010E94EC076183DF91CF910895CD
:10095000CF9381110BC0C0911A01C13061F4109284
:100960001A0182E490E00E94F20906C081E08093BF
:100970001A01C0E001C0C0E08C2FCF910895962FDE
:10098000272F6F5C633618F47F5C733610F0843069
:1009900051F4903654F4913A54F0213A54F0203600
:1009A00054F484E0089585E0089581E0089580E09E
:1009B000089583E0089582E00895CF93DF9300D0F7
:1009C00000D000D0CDB7DEB7A0901D01B0901E01C1
:1009D00085B7806885BF80B7877F80BF80B78F7EEF
:1009E00080BF80B7806280BF8AB388618ABB8FE195
:1009F00090E00E94DC070E9488072FE382E49FE0DA
:100A0000215080409040E1F700C000008BE090E072
:100A10000E9414086C018BE090E00E941408FC0115
:100A20008DE691E09287818710861382128211826F
:100A3000108281E791E0D6011A969C938E931997C4
:100A400018961C92189711961C921E921796FC935A
:100A5000EE931697D582C4828BE090E00E94140832
:100A6000FC0187E791E09287818781E08087D6014A
:100A70001396FC93EE931297D182C0821382128256
:100A80008BE090E00E941408FC018EE791E09287D1
:100A9000818782E0808701C06C01D60112968D911A
:100AA0009C9113970097C1F71396FC93EE931297BE
:100AB000D182C08213821282C5010E94D605C5016F
:100AC0000E94130687E00E9404060CE510E08AE00D
:100AD00090E00E94F20901501109C9F780E090E00E
:100AE0000E947F039E838D830E947F03FC0184E824
:100AF00091E0918380838AE891E09383828380E907
:100B000091E09583848386E991E0978386838AE0E8
:100B100092E09187808793878287958784879787DC
:100B200086878D819E81DC015196FC93EE935097D0
:100B30000E94B00385010F5F1B4F6894CC24C2F85C
:100B4000F801C08260814081D080B08080B380B3E2
:100B500086B38270F82E50E070E0CE0101960E94BC
:100B600045044B2D6D2DCE0103960E94910489EF13
:100B700090E00197F1F700C0000069817A818E2D25
:100B80000E94BF04E82E8CEF8E0D823028F06E2D6F
:100B9000CE0105960E94D4038F2D0E94A8048823BD
:100BA00079F2CE0105960E942504CACFE0E0F0E17B
:100BB0008EEA808381EA80838AED808382E180836C
:100BC00088EC808388EA80838FE3808385ED80834F
:100BD00080E8808381E8808380E5808389ED80835D
:100BE00081E2808380E2808382E080838BED80835A
:100BF00080E380838DEA8083108284EA808386EAA2
:100C000080838FEA808308958770805580930010D9
:100C10000895982F9F70E0E0F0E1908382958F70A7
:100C2000805F808308951F93CF93DF9310E0C0E02F
:100C3000D2E1812F0E94040680E00E94090680E82C
:100C400090E018820197E9F71F5F183091F7DF9164
:100C5000CF911F9108951F93CF93DF9310E0C0E0D1
:100C6000D2E1812F0E94040680E00E94090680E8FC
:100C700090E018820197E9F71F5F183091F7DF9134
:100C8000CF911F91089580526830F1F490E09C015B
:100C9000220F331F220F331F220F331F29533C4FC4
:100CA000880F991F880F991F880F991F81539C4F98
:100CB000A0E0B2E1F901459154914C932F5F3F4F71
:100CC00082179307B9F708956530D1F490E09C013D
:100CD000220F331F220F331F820F931F20E030E0BB
:100CE000A0E0B2E1F901E80FF91FE451FE4F459190
:100CF00054914C932F5F3F4F2530310599F708955C
:100D00006430B1F490E0880F991F880F991F20E09C
:100D100030E0A0E0B2E1F901E80FF91FE059FF4F20
:100D2000459154914C932F5F3F4F2430310599F7F3
:100D300008958F929F92AF92BF92CF92DF92EF92DF
:100D4000FF920F931F93CF93DF93882E8B01942EE6
:100D50000E9404067801C0E0D0E0A92CB12C689470
:100D6000CC24C7F8D12C19C0C601B5010E94EC07EC
:100D70009B01CE010E94EC07892B41F4CE01B90101
:100D80000E94EC07882D860F0E940406692DF7014A
:100D900081917F010E9443062196F8010190002075
:100DA000E9F73197E01BF10BCE17DF07E8F2DF918F
:100DB000CF911F910F91FF90EF90DF90CF90BF9058
:100DC000AF909F908F90089580526830F9F490E032
:100DD0009C01220F331F220F331F220F331F295371
:100DE0003C4F880F991F880F991F880F991F8153B7
:100DF0009C4FA0E0B2E1F9014591549140954C938C
:100E00002F5F3F4F82179307B1F708956530D9F4EC
:100E100090E09C01220F331F220F331F820F931F7C
:100E200020E030E0A0E0B2E1F901E80FF91FE45161
:100E3000FE4F4591549140954C932F5F3F4F253085
:100E4000310591F708956430B9F490E0880F991F47
:100E5000880F991F20E030E0A0E0B2E1F901E80F2F
:100E6000F91FE059FF4F4591549140954C932F5FE6
:100E70003F4F2430310591F708958F929F92AF92A2
:100E8000BF92CF92DF92EF92FF920F931F93CF9377
:100E9000DF93882E8B01942E0E9404067801C0E017
:100EA000D0E0A92CB12C6894CC24C7F8D12C19C05F
:100EB000C601B5010E94EC079B01CE010E94EC0720
:100EC000892B41F4CE01B9010E94EC07882D860FD1
:100ED0000E940406692DF70181917F010E94E406BA
:100EE0002196F80101900020E9F73197E01BF10B02
:100EF000CE17DF07E8F2DF91CF911F910F91FF909E
:100F0000EF90DF90CF90BF90AF909F908F9008951B
:100F1000EF92FF920F931F93CF93DF938CE991E0B1
:100F20000E94F9090E9481097C010E948609C0E0A3
:100F3000D8E100E010E00E94810988839881891738
:100F400011F00F5F1F4F2196C11580E2D80799F766
:100F5000C7010E948609C0E0D8E1E12CF12C0E9473
:100F600081099881981719F08FEFE81AF80A2196ED
:100F7000C11580E2D80799F7FF92EF921F930F9364
:100F800082EB91E09F938F930E94DC090F900F906A
:100F90000F900F900F900F90DF91CF911F910F91B5
:100FA000FF90EF9008955D9BFECF8CB908955F9BF5
:100FB000FECF8CB190E0089590BD89B988E18AB9DF
:100FC0008EE88CBF80B58E7F80BD67ED77E083EDC6
:100FD00097E00E949109089597FB072E16F400945C
:100FE00007D077FD09D00E94000807FC05D03EF429
:100FF000909581959F4F0895709561957F4F0895C5
:10100000AA1BBB1B51E107C0AA1FBB1FA617B7072E
:1010100010F0A61BB70B881F991F5A95A9F780954A
:101020009095BC01CD0108950F931F93CF93DF934B
:101030008230910510F482E090E0E0910E02F09190
:101040000F0220E030E0A0E0B0E0309719F14081DD
:1010500051810281138148175907C8F084179507F9
:1010600069F4109731F012960C93129713961C9313
:1010700027C000930E0210930F0222C021153105E4
:1010800019F04217530718F49A01BD01EF01DF016F
:10109000F801DBCF21153105F9F0281B390B24307D
:1010A000310580F48A819B816115710521F0FB0176
:1010B0009383828304C090930F0280930E02FE01FB
:1010C000329644C0FE01E20FF31F819391932250A8
:1010D0003109398328833AC020910C0230910D02E6
:1010E000232B41F4209102013091030130930D0232
:1010F00020930C022091000130910101211531054E
:1011000041F42DB73EB74091040150910501241BD5
:10111000350BE0910C02F0910D02E217F307A0F4F9
:101120002E1B3F0B2817390778F0AC014E5F5F4F3D
:101130002417350748F04E0F5F1F50930D02409360
:101140000C028193919302C0E0E0F0E0CF01DF91C7
:10115000CF911F910F910895CF93DF93009709F4DA
:1011600081C0FC01329713821282A0910E02B091CD
:101170000F02109781F420813181820F931F2091FB
:101180000C0230910D022817390751F5F0930D022A
:10119000E0930C0267C0ED0120E030E0CE17DF07DE
:1011A00040F44A815B819E0141155105F1F0EA014D
:1011B000F5CFD383C28340815181840F951FC81717
:1011C000D90759F488819981840F951F02969183DC
:1011D00080838A819B81938382832115310529F441
:1011E000F0930F02E0930E023DC0E901FB83EA8316
:1011F00049915991C40FD51FEC17FD0761F4808107
:101200009181840F951F0296E901998388838281D9
:1012100093819B838A83E0E0F0E012968D919C910C
:101220001397009719F0FD01DC01F7CF8D919C9188
:1012300011979D012E5F3F4F820F931F20910C024B
:1012400030910D022817390769F4309729F410926C
:101250000F0210920E0202C013821282B0930D028E
:10126000A0930C02DF91CF9108958F929F92AF923D
:10127000BF92CF92DF92EF92FF92CF93DF93EC0178
:10128000688179818A819B8161157105810591054C
:1012900021F464E279ED8BE597E02DE133EF41E055
:1012A00050E00E94DD0C49015A019B01AC01A7EA04
:1012B000B1E40E94FC0C6B017C01ACEEB4EFA50123
:1012C00094010E940A0DDC01CB018C0D9D1DAE1D09
:1012D000BF1DB7FF03C00197A109B0488883998358
:1012E000AA83BB839F77DF91CF91FF90EF90DF9030
:1012F000CF90BF90AF909F908F9008950E94350936
:10130000089586E091E00E9435090895A0E0B0E0DC
:101310008093060190930701A0930801B0930901FF
:1013200008950F931F93CF93DF93009731F46115C6
:10133000710519F480E090E03AC08B01EC016EE099
:1013400070E081E090E00E940A0CFC01892B91F38F
:1013500080E883830115110571F01387028781E806
:1013600083838091100290911102892B21F4F093D4
:101370001102E09310022097C9F0D187C0878381C2
:10138000826083838091120290911302892B71F401
:10139000F0931302E09312028091140290911502CF
:1013A000892B21F4F0931502E0931402CF01DF9111
:1013B000CF911F910F910895A0E0B0E0E2EEF9E027
:1013C0000C941F0DAE014B5F5F4FFA01619171915B
:1013D000AF0180911202909113020E94290AE2E06B
:1013E0000C943B0D60911202709113020E94430C09
:1013F00008950F931F93CF93DF93E0911202F09122
:101400001302238121FF1BC08C01D0E0C0E0F80152
:1014100081918F016091120270911302DB01189685
:10142000ED91FC911997882331F00995892B79F377
:10143000DFEFCFEFECCF8AE00995892B19F08FEF22
:101440009FEF02C08D2F9C2FDF91CF911F910F91A5
:101450000895ABE0B0E0EFE2FAE00C940F0D6C0100
:101460007B018A01FC0117821682838181FFCCC136
:10147000CE0101963C01F6019381F70193FD859120
:1014800093FF81917F01882309F4BAC1853239F431
:1014900093FD859193FF81917F01853229F4B601F7
:1014A00090E00E94430CE7CF912C212C312CFFE1DE
:1014B000F315D8F08B3279F038F4803279F083323A
:1014C000A1F4232D20611DC08D3261F0803369F4B9
:1014D000232D216016C0832D8260382EE32DE46019
:1014E0003E2E2AC0F32DF8601DC037FC2DC020ED24
:1014F000280F2A3040F08E32B9F436FC81C1232DFA
:101500002064322E19C036FE06C08AE0989E200D57
:101510001124922E11C0EAE02E9E200D1124222EBD
:10152000F32DF0623F2E08C08C3621F4832D8068A5
:10153000382E02C0883641F4F70193FD859193FF60
:1015400081917F018111B3CF982F9F7D9554933066
:1015500028F40C5F1F4F9FE399830DC0833631F051
:10156000833771F0833509F059C021C0F8018081BB
:1015700089830E5F1F4F88248394912C530113C0DD
:101580002801F2E04F0E511CF801A080B18036FE18
:1015900003C0692D70E002C06FEF7FEFC5010E94AC
:1015A000380C4C018201F32DFF773F2E16C0280125
:1015B00022E0420E511CF801A080B18036FE03C02B
:1015C000692D70E002C06FEF7FEFC5010E94260C0D
:1015D0004C01F32DF0683F2E820133FC1BC0822D9D
:1015E00090E088169906B0F4B60180E290E00E947F
:1015F000430C2A94F4CFF50137FC859137FE819195
:101600005F01B60190E00E94430C21102A9421E072
:10161000821A91088114910471F7E8C0843611F0A0
:10162000893641F5F80137FE07C0608171818281FA
:1016300093810C5F1F4F08C060817181072E000CE1
:10164000880B990B0E5F1F4FF32DFF763F2E97FFF0
:1016500009C090958095709561957F4F8F4F9F4FF2
:10166000F0683F2E2AE030E0A3010E947F0C882E14
:10167000861845C0853731F4232D2F7EB22E2AE0FF
:1016800030E025C0932D997FB92E8F36C1F018F424
:10169000883579F0B5C0803719F0883721F0B0C0AF
:1016A000E92FE061BE2EB4FE0DC0FB2DF460BF2E0D
:1016B00009C034FE0AC0292F2660B22E06C028E0D9
:1016C00030E005C020E130E002C020E132E0F80166
:1016D000B7FE07C060817181828193810C5F1F4FCB
:1016E00006C06081718180E090E00E5F1F4FA30112
:1016F0000E947F0C882E8618FB2DFF773F2E36FE2A
:101700000DC0232D2E7FA22E891458F434FE0BC059
:1017100032FC09C0832D8E7EA82E05C0B82CA32CC8
:1017200003C0B82C01C0B92CA4FE0FC0FE01E80D07
:10173000F11D8081803321F49A2D997EA92E09C054
:10174000A2FE06C0B394B39404C08A2D867809F033
:10175000B394A3FC11C0A0FE06C0B21488F4280CF8
:10176000922C9B180EC0B21460F4B60180E290E097
:101770000E94430CB394F7CFB21418F42B1802C094
:10178000982C212CA4FE10C0B60180E390E00E94AA
:10179000430CA2FE17C0A1FC03C088E790E002C082
:1017A00088E590E0B6010CC08A2D867859F0A1FE3C
:1017B00002C08BE201C080E2A7FC8DE2B60190E09E
:1017C0000E94430C891438F4B60180E390E00E9433
:1017D000430C9A94F7CF8A94F301E80DF11D8081B0
:1017E000B60190E00E94430C8110F5CF222009F44D
:1017F00042CEB60180E290E00E94430C2A94F6CFDC
:10180000F6018681978102C08FEF9FEF2B96E2E170
:101810000C942B0D0F931F93CF93DF93869F800122
:10182000879F100D969F100D1124C8010E94140867
:10183000EC01009729F0A80160E070E00E94310CF3
:10184000CE01DF91CF911F910F910895FC0105907A
:10185000615070400110D8F7809590958E0F9F1FB2
:101860000895DC0101C06D9341505040E0F70895A8
:10187000FC016150704001900110D8F7809590955F
:101880008E0F9F1F08950F931F93CF93DF93FB013C
:10189000238121FD03C08FEF9FEF2CC022FF16C0D4
:1018A00046815781248135814217530744F4A08132
:1018B000B1819D012F5F3F4F318320838C9326811F
:1018C00037812F5F3F4F3783268314C08B01EC0194
:1018D000FB010084F185E02D0995892BE1F6D80103
:1018E00016968D919C911797019617969C938E93BF
:1018F0001697CE01DF91CF911F910F910895FA01B4
:10190000AA27283051F1203181F1E8946F936E7F3E
:101910006E5F7F4F8F4F9F4FAF4FB1E03ED0B4E02F
:101920003CD0670F781F891F9A1FA11D680F791F70
:101930008A1F911DA11D6A0F711D811D911DA11D81
:1019400020D009F468943F912AE0269F1124301991
:10195000305D3193DEF6CF010895462F4770405D2C
:101960004193B3E00FD0C9F7F6CF462F4F70405DDB
:101970004A3318F0495D31FD4052419302D0A9F736
:10198000EACFB4E0A6959795879577956795BA9530
:10199000C9F700976105710508959B01AC010A2EF6
:1019A00006945795479537952795BA95C9F7620FCD
:1019B000731F841F951FA01D0895052E97FB1EF40D
:1019C00000940E94F40C57FD07D00E94460D07FCBE
:1019D00003D04EF40C94F40C50954095309521951D
:1019E0003F4F4F4F5F4F089590958095709561954B
:1019F0007F4F8F4F9F4F08950E94680DA59F900DB8
:101A0000B49F900DA49F800D911D11240895B7FFE0
:101A10000C94FC0C0E94FC0C821B930B08952F92DB
:101A20003F924F925F926F927F928F929F92AF926E
:101A3000BF92CF92DF92EF92FF920F931F93CF93BB
:101A4000DF93CDB7DEB7CA1BDB0B0FB6F894DEBF52
:101A50000FBECDBF09942A88398848885F846E8478
:101A60007D848C849B84AA84B984C884DF80EE80C2
:101A7000FD800C811B81AA81B981CE0FD11D0FB6CB
:101A8000F894DEBF0FBECDBFED010895A1E21A2E7E
:101A9000AA1BBB1BFD010DC0AA1FBB1FEE1FFF1F12
:101AA000A217B307E407F50720F0A21BB30BE40B62
:101AB000F50B661F771F881F991F1A9469F76095A9
:101AC0007095809590959B01AC01BD01CF01089563
:101AD000A29FB001B39FC001A39F700D811D11246F
:101AE000911DB29F700D811D1124911D0895F894D0
:021AF000FFCF26
:101AF200000016022000010000002D0135013D0109
:101B020045014D0155015D01650101A0A0001025AF
:101B12006420757000256420646F776E006F7074A6
:101B2200696F6E31006F7074696F6E32006F70741E
:101B3200696F6E33006F7074696F6E34006F70740A
:101B4200696F6E35006F7074696F6E36006F7074F6
:101B5200696F6E37006F7074696F6E38006B6964FD
:101B6200006669727374007365636F6E64007468F3
:101B7200697264006C616B7331006C616B7332006B
:101B82006C616B7333006C616B73340053746172FC
:101B920074696E67205352414D20746573742E2E02
:101BA2002E005352414D207465737420636F6D7023
:101BB2006C657465642077697468200A2534642032
:101BC2006572726F727320696E2077726974652014
:101BD200706861736520616E64200A253464206533
:101BE20072726F727320696E2072657472696576A3
:0C1BF200616C2070686173650A0A0000D5
:00000001FF
