S00F00006963655F6963652E7372656354
S11300000C9438000C9455000C9455000C94550035
S11300100C9455000C9455000C9455000C94550008
S11300200C9455000C9455000C9455000C945500F8
S11300300C9455000C9455000C9455000C945500E8
S11300400C9455000C9455000C9455000C945500D8
S11300500C9455000C9455000C9455000C945500C8
S11300600C9455000C9455000C9455000C945500B8
S113007011241FBECFEFD4E0DEBFCDBF12E0A0E05D
S1130080B1E0EEE6FFE002C005900D92A63BB10799
S1130090D9F722E0A6EBB2E001C01D92A03CB20762
S11300A0E1F70E9466010C94B5070C940000EF92EE
S11300B0FF920F931F93CF93DF938EE292E00E94FF
S11300C016030E94A5027C010E94AA02C0E0D8E1A6
S11300D000E010E00E94A50288839881891711F03E
S11300E00F5F1F4F2196C11580E2D80799F7C7010A
S11300F00E94AA02C0E0D8E1E12CF12C0E94A502E2
S11301009881981719F08FEFE81AF80A2196C1150B
S113011080E2D80799F7FF92EF921F930F9384E43C
S113012092E09F938F930E9400030F900F900F9083
S11301300F900F900F90DF91CF911F910F91FF902F
S1130140EF900895FC0120910D01261790F430E002
S113015070E0621B730B54E6569FC001579F900DCD
S113016011246FEF70E0621B730B0E9431026083F5
S113017012C0621780F4A22FB0E0262F30E02A1BB1
S11301803B0B54E6529FC001539F900D1124BD01B7
S11301900E943102608360910C01641798F4262F49
S11301A030E050E0421B530B64E6649FC001659F3E
S11301B0900D11246FEF70E0621B730B0E943102EB
S11301C061830895461768F470E050E0461B570BAE
S11301D024E6249FC001259F900D11240E94310222
S11301E061830895CF93DF93FC0124E6269FC00129
S11301F01124CFEFD0E0BE010E9431026083249F1E
S1130200C0011124BE010E9431026183DF91CF91AC
S11302100895E0E0F0E18EEA808381EA80838AED4C
S1130220808382E1808388EC808388EA80838FE303
S1130230808385ED808380E8808381E8808380E506
S1130240808389ED808381E2808380E2808382E001
S113025080838BED808380E380838DEA80831082AA
S113026084EA808386EA80838FEA80830895862FD8
S11302708F70E0E0F0E1808362956F70605F60836F
S11302800895CF92DF92EF92FF921F93CF93DF9363
S11302906C0110EBE12C6894FF24F4F8C0E0D2E187
S11302A0F701108360E0C6010E94370180E890E006
S11302B018820197E9F71F5F183B91F7DF91CF91FF
S11302C01F91FF90EF90DF90CF900895CF93DF932D
S11302D0CDB7DEB7C452D1400FB6F894DEBF0FBE1F
S11302E0CDBF20900A0130900B0185B7806885BF8F
S11302F080B7877F80BF80B78F7E80BF80B78062E2
S113030080BF8AB388618ABB8FE190E00E9421029A
S11303100E9457002FEF8FE791E0215080409040DA
S1130320E1F700C000C0C1010E94090180E291E030
S1130330EEE0F1E0DE01159601900D920197E1F7F0
S1130340C1010E9441010F2EF0EB6F2EF02D882485
S11303508394912C412C6894552454F80F2EC12C6D
S1130360F2E1DF2EF02DF201608254010F2EF5E050
S1130370EF2EF12CF02DEC0EFD1EE80CF91C10E014
S1130380612FC1010E943701F7018081F60180834A
S11303901F5FEA0CFB1C143299F7FFEF8F1A9F0AB8
S11303A0639428EB6212DFCF81010F5F1B4F6894C7
S11303B0BB24B2F80F2EFDE9CF2EF2E0DF2EF02D94
S11303C0F801B08260814081A0809080F0B2E0B2F8
S11303D0CE0101960E94A200492D6A2DCE010396FA
S11303E00E94F2008E2D80721F928F938F2D807148
S11303F01F928F938C811F928F938B811F928F9367
S11304008A81282F082E000C330B3F938F93898108
S1130410282F082E000C330B3F938F93DF92CF923B
S11304200E9400030FB6F894DEBF0FBECDBFC8CF45
S11304305D9BFECF8CB908955F9BFECF8CB190E09D
S1130440089590BD89B988E18AB98EE88CBF80B5DA
S11304508E7F80BD6CE172E088E192E00E94B5027B
S1130460089597FB072E16F4009407D077FD09D062
S11304700E94450207FC05D03EF4909581959F4F5C
S11304800895709561957F4F0895AA1BBB1B51E198
S113049007C0AA1FBB1FA617B70710F0A61BB70BF0
S11304A0881F991F5A95A9F780959095BC01CD0195
S11304B008958F929F92AF92BF92CF92DF92EF9264
S11304C0FF92CF93DF93EC01688179818A819B81CC
S11304D0611571058105910521F464E279ED8BE5DF
S11304E097E02DE133EF41E050E00E941B07490102
S11304F05A019B01AC01A7EAB1E40E943A076B01DF
S11305007C01ACEEB4EFA50194010E944807DC0124
S1130510CB018C0D9D1DAE1DBF1DB7FF03C0019700
S1130520A109B04888839983AA83BB839F77DF910D
S1130530CF91FF90EF90DF90CF90BF90AF909F90BE
S11305408F9008950E945902089580E091E00E94DE
S113055059020895A0E0B0E0809300019093010156
S1130560A0930201B093030108950F931F93CF93B7
S1130570DF93009731F46115710519F480E090E080
S11305803AC08B01EC016EE070E081E090E00E94E3
S11305902705FC01892B91F380E88383011511055C
S11305A071F01387028781E883838091B60290916A
S11305B0B702892B21F4F093B702E093B602209797
S11305C0C9F0D187C0878381826083838091B80218
S11305D09091B902892B71F4F093B902E093B802B7
S11305E08091BA029091BB02892B21F4F093BB0253
S11305F0E093BA02CF01DF91CF911F910F9108953B
S1130600A0E0B0E0E6E0F3E00C945D07AE014B5FE0
S11306105F4FFA0161917191AF018091B80290919D
S1130620B9020E944603E2E00C9479070F931F93EA
S1130630CF93DF93E091B802F091B902238121FFB7
S11306401BC08C01D0E0C0E0F80181918F01609162
S1130650B8027091B902DB011896ED91FC911997DB
S1130660882331F00995892B79F3DFEFCFEFECCFB5
S11306708AE00995892B19F08FEF9FEF02C08D2F27
S11306809C2FDF91CF911F910F910895ABE0B0E0C3
S1130690ECE4F3E00C944D076C017B018A01FC014E
S11306A017821682838181FFCCC1CE0101963C0161
S11306B0F6019381F70193FD859193FF81917F0169
S11306C0882309F4BAC1853239F493FD859193FFE7
S11306D081917F01853229F4B60190E00E94810660
S11306E0E7CF912C212C312CFFE1F315D8F08B327C
S11306F079F038F4803279F08332A1F4232D20612B
S11307001DC08D3261F0803369F4232D216016C041
S1130710832D8260382EE32DE4603E2E2AC0F32D13
S1130720F8601DC037FC2DC020ED280F2A3040F0A2
S11307308E32B9F436FC81C1232D2064322E19C0C7
S113074036FE06C08AE0989E200D1124922E11C018
S1130750EAE02E9E200D1124222EF32DF0623F2E6E
S113076008C08C3621F4832D8068382E02C0883668
S113077041F4F70193FD859193FF81917F018111EC
S1130780B3CF982F9F7D9554933028F40C5F1F4F5F
S11307909FE399830DC0833631F0833771F083353D
S11307A009F059C021C0F801808189830E5F1F4F71
S11307B088248394912C530113C02801F2E04F0E36
S11307C0511CF801A080B18036FE03C0692D70E091
S11307D002C06FEF7FEFC5010E9476064C018201D3
S11307E0F32DFF773F2E16C0280122E0420E511C44
S11307F0F801A080B18036FE03C0692D70E002C00C
S11308006FEF7FEFC5010E9464064C01F32DF06881
S11308103F2E820133FC1BC0822D90E0881699067E
S1130820B0F4B60180E290E00E9481062A94F4CFED
S1130830F50137FC859137FE81915F01B60190E0A7
S11308400E94810621102A9421E0821A91088114C1
S1130850910471F7E8C0843611F0893641F5F80146
S113086037FE07C060817181828193810C5F1F4FC5
S113087008C060817181072E000C880B990B0E5FF4
S11308801F4FF32DFF763F2E97FF09C0909580955B
S1130890709561957F4F8F4F9F4FF0683F2E2AE0F0
S11308A030E0A3010E94BD06882E861845C0853716
S11308B031F4232D2F7EB22E2AE030E025C0932D73
S11308C0997FB92E8F36C1F018F4883579F0B5C008
S11308D0803719F0883721F0B0C0E92FE061BE2ECF
S11308E0B4FE0DC0FB2DF460BF2E09C034FE0AC057
S11308F0292F2660B22E06C028E030E005C020E192
S113090030E002C020E132E0F801B7FE07C06081A8
S11309107181828193810C5F1F4F06C06081718158
S113092080E090E00E5F1F4FA3010E94BD06882E59
S11309308618FB2DFF773F2E36FE0DC0232D2E7F0C
S1130940A22E891458F434FE0BC032FC09C0832D46
S11309508E7EA82E05C0B82CA32C03C0B82C01C0D1
S1130960B92CA4FE0FC0FE01E80DF11D8081803377
S113097021F49A2D997EA92E09C0A2FE06C0B39433
S1130980B39404C08A2D867809F0B394A3FC11C0F3
S1130990A0FE06C0B21488F4280C922C9B180EC03A
S11309A0B21460F4B60180E290E00E948106B39430
S11309B0F7CFB21418F42B1802C0982C212CA4FEE3
S11309C010C0B60180E390E00E948106A2FE17C029
S11309D0A1FC03C088E790E002C088E590E0B6017E
S11309E00CC08A2D867859F0A1FE02C08BE201C0AA
S11309F080E2A7FC8DE2B60190E00E948106891492
S1130A0038F4B60180E390E00E9481069A94F7CF0F
S1130A108A94F301E80DF11D8081B60190E00E94F3
S1130A2081068110F5CF222009F442CEB60180E27E
S1130A3090E00E9481062A94F6CFF6018681978180
S1130A4002C08FEF9FEF2B96E2E10C9469070F939E
S1130A501F93CF93DF93869F8001879F100D969FEE
S1130A60100D1124C8010E944305EC01009729F0E0
S1130A70A80160E070E00E946F06CE01DF91CF9183
S1130A801F910F9108950F931F93CF93DF9382309B
S1130A90910510F482E090E0E091BE02F091BF0273
S1130AA020E030E0A0E0B0E0309719F140815181BE
S1130AB00281138148175907C8F08417950769F410
S1130AC0109731F012960C93129713961C9327C02B
S1130AD00093BE021093BF0222C02115310519F004
S1130AE04217530718F49A01BD01EF01DF01F80121
S1130AF0DBCF21153105F9F0281B390B24303105E2
S1130B0080F48A819B816115710521F0FB01938337
S1130B10828304C09093BF028093BE02FE0132968A
S1130B2044C0FE01E20FF31F8193919322503109D7
S1130B30398328833AC02091BC023091BD02232B13
S1130B4041F420910601309107013093BD022093B6
S1130B50BC0220910401309105012115310541F4B5
S1130B602DB73EB74091080150910901241B350B64
S1130B70E091BC02F091BD02E217F307A0F42E1B32
S1130B803F0B2817390778F0AC014E5F5F4F2417ED
S1130B90350748F04E0F5F1F5093BD024093BC02CF
S1130BA08193919302C0E0E0F0E0CF01DF91CF9117
S1130BB01F910F910895CF93DF93009709F481C09B
S1130BC0FC01329713821282A091BE02B091BF023F
S1130BD0109781F420813181820F931F2091BC02F0
S1130BE03091BD022817390751F5F093BD02E09307
S1130BF0BC0267C0ED0120E030E0CE17DF0740F40F
S1130C004A815B819E0141155105F1F0EA01F5CF5E
S1130C10D383C28340815181840F951FC817D9079C
S1130C2059F488819981840F951F0296918380835A
S1130C308A819B81938382832115310529F4F09362
S1130C40BF02E093BE023DC0E901FB83EA83499100
S1130C505991C40FD51FEC17FD0761F48081918170
S1130C60840F951F0296E901998388838281938179
S1130C709B838A83E0E0F0E012968D919C91139718
S1130C80009719F0FD01DC01F7CF8D919C9111972C
S1130C909D012E5F3F4F820F931F2091BC02309124
S1130CA0BD022817390769F4309729F41092BF025E
S1130CB01092BE0202C013821282B093BD02A093AE
S1130CC0BC02DF91CF910895FC0105906150704002
S1130CD00110D8F7809590958E0F9F1F0895DC0121
S1130CE001C06D9341505040E0F70895FC016150FC
S1130CF0704001900110D8F7809590958E0F9F1F3A
S1130D0008950F931F93CF93DF93FB01238121FD5C
S1130D1003C08FEF9FEF2CC022FF16C0468157817E
S1130D20248135814217530744F4A081B1819D0188
S1130D302F5F3F4F318320838C93268137812F5F30
S1130D403F4F3783268314C08B01EC01FB010084E1
S1130D50F185E02D0995892BE1F6D80116968D9140
S1130D609C911797019617969C938E931697CE0194
S1130D70DF91CF911F910F910895FA01AA2728308E
S1130D8051F1203181F1E8946F936E7F6E5F7F4F54
S1130D908F4F9F4FAF4FB1E03ED0B4E03CD0670FD0
S1130DA0781F891F9A1FA11D680F791F8A1F911D23
S1130DB0A11D6A0F711D811D911DA11D20D009F473
S1130DC068943F912AE0269F11243019305D3193B5
S1130DD0DEF6CF010895462F4770405D4193B3E09E
S1130DE00FD0C9F7F6CF462F4F70405D4A3318F045
S1130DF0495D31FD4052419302D0A9F7EACFB4E0F6
S1130E00A6959795879577956795BA95C9F70097AD
S1130E106105710508959B01AC010A2E069457954E
S1130E20479537952795BA95C9F7620F731F841FA5
S1130E30951FA01D0895052E97FB1EF400940E9493
S1130E40320757FD07D00E94840707FC03D04EF4F5
S1130E500C94320750954095309521953F4F4F4F54
S1130E605F4F089590958095709561957F4F8F4F52
S1130E709F4F08950E94A607A59F900DB49F900DC3
S1130E80A49F800D911D11240895B7FF0C943A0777
S1130E900E943A07821B930B08952F923F924F9220
S1130EA05F926F927F928F929F92AF92BF92CF92F6
S1130EB0DF92EF92FF920F931F93CF93DF93CDB7FF
S1130EC0DEB7CA1BDB0B0FB6F894DEBF0FBECDBF77
S1130ED009942A88398848885F846E847D848C8448
S1130EE09B84AA84B984C884DF80EE80FD800C8151
S1130EF01B81AA81B981CE0FD11D0FB6F894DEBF34
S1130F000FBECDBFED010895A1E21A2EAA1BBB1B93
S1130F10FD010DC0AA1FBB1FEE1FFF1FA217B307C1
S1130F20E407F50720F0A21BB30BE40BF50B661FD7
S1130F30771F881F991F1A9469F76095709580959B
S1130F4090959B01AC01BD01CF010895A29FB00112
S1130F50B39FC001A39F700D811D1124911DB29FE9
S1110F60700D811D1124911D0895F894FFCF8A
S1130F6E010000000000C00220000010A49C00003C
S1130F7E0007C00000000000003E780000000000E2
S1130F8E00E0060000000000010003000000000065
S1130F9E0200008000000000040000400000000079
S1130FAE04000020000000000C00003000000000CF
S1130FBE0803FF90000000000800F010000000007D
S1130FCE080F0F90000000000801C0880000000008
S1130FDE08060028000000000800010800000000B8
S1130FEE08038008000000000803E0E80000000089
S1130FFE0803E1E8000000000800002400000000DF
S113100E040002040000000004400104000000007B
S113101E024001840000000002203088000000001D
S113102E0320350800000000033001180000000002
S113103E033000100000000003287F200000000091
S113104E02260020000000000203006000000000E1
S113105E02018040000000000400E1800000000056
S113106E04603E0000000000088024000000000020
S113107E798003FC000000018000000000000000E5
S113108E00034000000000000000800000005374C4
S113109E617274696E67205352414D207465737486
S11310AE2E2E2E005352414D207465737420636F9F
S11310BE6D706C657465642077697468200A2534D4
S11310CE64206572726F727320696E207772697410
S11310DE6520706861736520616E64200A2534642E
S11310EE206572726F727320696E207265747269F4
S11310FE6576616C2070686173650A0A0025642C3C
S113110E25642C25642C2564207C7C7C2025642C71
S109111E2564200D000011
S9030000FC
