S01700006963655F6963655F61726475696E6F2E73726563FB
S21408000010090020510508004D0508004D05080098
S2140800104D0508004D0508004D05080000000000C5
S2140800200000000000000000000000004D05080069
S2140800304D050800000000004D050800610D080089
S2140800404D0508004D0508004D0508004D0508003B
S2140800504D0508004D0508004D0508004D0508002B
S214080060C11008004D050800000000004D050800F6
S2140800704D0508004D0508004D0508000000000065
S214080080000000004D0508004D0508004D05080055
S2140800904D0508004D0508004D0508004D050800EB
S2140800A04D050800000000004D0508004D05080035
S2140800B0510E08005D0F08004D0508004D050800A4
S2140800C04D0508004D0508004D0508004D050800BB
S2140800D04D0508009D0108004D0508004D0508005F
S2140800E04D0508004D0508004D050800F9030800F1
S2140800F04D05080010B5054C237833B9044B13B1E9
S2140801000448AFF300800123237010BD5804002074
S21408011000000000C01B08000C4B43B10C4810B58B
S2140801200C49AFF300800C48036823B910BD0A4891
S214080130036833B97047094B002BF7D0BDE8104069
S2140801401847064B002BF5D0184700BF00000000E4
S214080150C01B08005C040020C01B0800000000004C
S21408016020230B4AC2F800310A4A53600A4B02227F
S2140801701A61802159601A604FF080625A621A6CC0
S2140801801A641A6C42F010021A640F225A647047F6
S21408019000060E4000E100E000000C4010B50D4BD4
S2140801A01C6804F548740C4B9847844209D3002011
S2140801B00A4B98470A4B1B6B20220A4BC3F884212C
S2140801C010BD044C237901332371034B98472060F4
S2140801D0EDE700BF74040020710D08000107080051
S2140801E000000C4000E100E02DE9F043551808290E
S2140801F098BF082A64D80E46082D61DC324A136870
S21408020023F0010313601369304B4FF440745C64A9
S2140802101C6F24F003041C6703245C605C66A3F56B
S21408022000632B4CC3F80C41D3F8004144F4006437
S214080230C3F800415061A94240DC0A460024A146A2
S214080240DFF884804FF0005C4FF0807E0127530172
S21408025003F1402000F53020C0F804924344C3F868
S21408026008C2C0F800E2D3F81C0240F40000C3F845
S2140802701C0207FA02F31C4301329542E7DA81B101
S214080280002311494FF000554FF0407001EB431220
S214080290C2F8085203F110025201885001339E42F8
S2140802A0F4D1094B5C604FF400610A4A51601A6841
S2140802B042F001021A600020BDE8F0830024DEE761
S2140802C00120BDE8F08300BF00400B40000E0E4042
S2140802D02B10001000E100E008B502220121014BB6
S2140802E0984708BDE90108004B0103F1402303F5D0
S2140802F03023D3F8103213F4000F36D003881C4A84
S21408030002EA834242F000524B0103F1402303F510
S2140803103023C3F808228378072B84BF072383700B
S214080320827943791B0443EA0263C278134302794D
S21408033043EA0223490101F1402101F53021C1F8C1
S2140803401432827A437A1B0443EA0263C27913435F
S214080350027A43EA0223C1F8183283781B0443F46E
S2140803600003C1F81C32002070470120704700BF08
S2140803700000FC1F4B0103F1402303F53023D3F89C
S214080380103213F4000F33D030B44B0103F140237E
S21408039003F53023D3F81422D3F81842D3F80852BA
S2140803A0C5F38A450580D3F81032C3F30343837038
S2140803B01D465BB103300023032BD9BF0270120A17
S2140803C00470240A01330130AB42F5D1094B01F120
S2140803D0100252014FF08070985003EB4111D1F88B
S2140803E01C3243F40003C1F81C32002030BC7047AE
S2140803F00120704700400B402DE9F04184B03D4B8A
S2140804001E6916F0060F41D016F0020F4CD116F0F2
S214080410040F4ED0022101A8374B9847BDF80410A8
S214080420A1F110039BB2EE2B47D8344D2846344C26
S214080430A0479DF80C102846A0479DF80A30112BB7
S2140804400FBF9DF907309DF807305B425BB22D4A17
S21408045013709DF80B30112B0FBF9DF908209DF8DF
S2140804600820524252B2274B5A709DF809209A70BB
S2140804709DF80C20DA709DF80D201A719DF90E2053
S21408048002F00201597102F001029A7116F0010F8A
S21408049002D00122174B9A604FF400621A4BC3F839
S2140804A0842104B0BDE8F081012101A8124B9847C9
S2140804B0B4E71648124B9847B0E71548104CA047C3
S2140804C09DF806101348A0479DF8063073B10DF145
S2140804D007050024DFF84480094F15F8011B40463D
S2140804E0B84701349DF80630A342F6DC0A48044BA8
S2140804F09847CBE700400B4075030800E81A080049
S214080500290D08009C04002000E100E0BC1A080041
S214080510F81A08000C1B0800F41A0800281B080024
S2140805204022094BC3F80021A3F5C3335A6842F4A6
S21408053080325A605A6822F001025A6002221A6112
S21408054040F2FF521A62704700060E40FEE70000AF
S21408055008B5184B184A9A4210D0184B154A9A42B2
S2140805600CD2013B9B1A23F00303043313441249AD
S21408057051F8040B42F8040B9A42F9D1104B114A71
S2140805809A420AD2013B9B1A23F00303043313440E
S214080590002142F8041B9342FBD10B4B23F0604327
S2140805A023F07F03094A9360094B9847094B9847FD
S2140805B0FEE700BF00000020C01B0800540400200F
S2140805C00C050020580400200000080000ED00E09C
S2140805D04D1908008D0808004FF48063204A136000
S2140805E002F5007213601F4B1B6A13F0807F07D159
S2140805F01D4A1C4B1A621A46936E13F0010FFBD065
S2140806001A4A184B1A621A46936E13F4803FFBD0A8
S214080610144A136B23F0030343F001031363936E2A
S21408062013F0080FFBD0124A0E4B9A621A46936EC6
S21408063013F0020FFBD011220A4B1A631A46936E68
S21408064013F0080FFBD01222064B1A631A46936E55
S21408065013F0080FFBD0074A074B1A60704700BF15
S214080660000A0E4000060E40090837000908370140
S214080670013F0D2000BD01050000002010B5174BF6
S21408068093F9000000280FDB154B98470022154BFE
S214080690154CA0470022154B154CA047154B9847FC
S2140806A0C0B2154B984710BD0028B8BF40420C4B47
S2140806B0984700220B4B0C4CA04702460B460020DE
S2140806C00A490E4CA0470B4B9847C0B20A4B9847AE
S2140806D0024B93F900000028E5DBD5E79C040020D0
S2140806E0CD1308000000E03F99140800008046403B
S2140806F0351108000D190800F50D0800311108001D
S21408070000284FF48062064BB4BF5A631A63002869
S214080710B8BF404280B2A3F5CA331862704700BF1C
S21408072000140E40204B1A6842F480621A601A6958
S21408073042F480621A611A6842F400721A601A69F2
S21408074042F400721A614FF400721A634FF4806222
S2140807505A634FF40051154A11611A6B42F00202AF
S2140807601A63A3F500731A6842F480721A601A684E
S21408077042F080021A601A6842F040021A601A684C
S21408078042F020021A601A6842F010021A601A68CC
S21408079042F008021A601A6842F004021A601A68E0
S2140807A042F002021A60704700140E4000060E401F
S2140807B0284B1A6842F004021A601A6942F00402CA
S2140807C01A611A6842F002021A601A6942F00202B6
S2140807D01A611A6842F001021A601A6942F00102A8
S2140807E01A615A6B42F001025A635A6B42F00402CD
S2140807F05A634FF44863013BFDD1174BDA6B520836
S21408080014490B6B43F004030B634FF44863013B36
S214080810FDD1114BD96B03F50073586B40F00200FD
S2140808205863186B40F002001863186B40F001001C
S214080830186313029BB2C1F347021343C3F50A5366
S2140808403833064A82FB0312DB17C3EB2213044A2B
S2140808501370704700140E4000120E40E9A28B2E4B
S2140808607B040020034648B9074A1078012801D0BF
S214080870184670470022044B1A7070470122024B34
S2140808801A700020704700BF040000202DE9F041D0
S21408089084B0524B9847524A536843F40043536017
S2140808A0504B98475048514B98475148514B98479A
S2140808B0514B98476420514B9847514B9847514B9A
S2140808C098476420504B9847504B9847504B98474A
S2140808D0504B9847504B1A6842F400521A601A69EF
S2140808E042F400521A611A6B42F400521A63A3F5D6
S2140808F080631A6842F400221A601A6942F40022D9
S2140809001A611A6842F480121A601A6942F4801250
S2140809101A610023ADF8043008238DF806303F4BE3
S21408092098473F4C3C4D54E03E4B19783E48314B77
S21408093098473E4B1B78002B3BD13D4B98478DF88C
S21408094007003C4B98473C4BA3FB0023DB0803EB14
S2140809508303B0EB430F33D0C4F83080374B013BEA
S214080960FDD166634FF480132363344B013BFDD1FE
S214080970636B43F480136363B847314B9847072289
S2140809808DF806202F4BD9788DF80710ADF804207F
S21408099098782D4B98470028C6D06B6B43F40053C5
S2140809A06B63264B013BFDD12B6B43F400532B6343
S2140809B0BAE726480F4B9847254B013BFDD1BCE7C5
S2140809C0002101A8234B98479DF807102248094B99
S2140809D098474FF40026B046204FBDE7D9050800D3
S2140809E0501A0E403510080061052900D902080083
S2140809F02C1B0800290D08009D0D0800F50D0800A1
S214080A00890F0800E10F08002D0E08006101080094
S214080A10210508002507080000120E404D0D0800A5
S214080A20000E0E4078040020341B08007A040020CC
S214080A307D0D0800710D0800CDCCCCCC006A1800DE
S214080A40B10708009C04002065080800441B08003D
S214080A5000127A00E9020800541B08007D06080008
S214080A602DE9F8430D46161E48DD0A78002A35D0CB
S214080A700A460024013412F8011F0029FAD1A642BA
S214080A802DDC002403F00202002A0CBF4FF02008D9
S214080A904FF0300813F0010323D1002C28DD26463A
S214080AA05FFA88F9184F4846B847013EFBD12878C0
S214080AB088B1154FB847013415F8010F0028F9D149
S214080AC0002E08DD35465FFA88F80F4F4046B847CF
S214080AD0013DFBD134442046BDE8F8830024341B8E
S214080AE0D0E72646287808B10024E2E70024E7E79E
S214080AF026461C46DBE74FF02008D8E713F001042B
S214080B00F9D04FF02008EDE79D100800F0B585B045
S214080B10074681B30C460BB10A2A38D000238DF855
S214080B200F300026002946D00DF10F050C993A39EA
S214080B30B4FBF2F302FB1343092BC8BF5B18303330
S214080B4005F8013DB4FBF2F4002CF1D156B10A9B2E
S214080B501BB10B9B13F0020F25D12D2305F8013C82
S214080B60013D00260B9B0A9A29463846144CA04796
S214080B70304405B0F0BD30238DF8043000238DF8DE
S214080B8005300B9B0A9A01A90D4CA047F1E70029EE
S214080B90C4DA4C4200238DF80F300DF10F05002CF7
S214080BA0D5D00126C0E72D20064B98470A9B013B67
S214080BB00A930126D6E71E460DF10F05D2E700BFB9
S214080BC0610A08009D1008002DE9F04F87B080469E
S214080BD00B78002B00F094808B46174600254E4E67
S214080BE0DFF83CA1DFF83C9146E0002270E0396867
S214080BF004374A48002908BF01464046D0470544FE
S214080C0035E0396804376120029001930092012389
S214080C100A224046C847054429E039680437612057
S214080C20029001930092002310224046C8470544CC
S214080C301DE0396804374120029001930092002392
S214080C4010224046C847054411E039680437612039
S214080C5002900193009200230A224046C8470544A2
S214080C6005E0A3469BF80000B04701355C4604F152
S214080C70010B6378002B44D0252BF3D10BF101042C
S214080C809BF80130002B3CD0252BEAD02D2B06BF35
S214080C900BF10204012300232278302A05D143F001
S214080CA0020314F8012F302AF9D02178A1F1300276
S214080CB0D2B2092A99D8002202EB8202303901EB17
S214080CC0420214F8011FA1F13000C0B20928F3D976
S214080CD073298CD0642994D078299ED05829A8D016
S214080CE07529B2D06329C2D1396804378DF8141033
S214080CF000218DF8151005A94046D0470544B6E7EB
S214080D000025B8F1000F03D0D8F8003000221A707A
S214080D10284607B0BDE8F08F9D100800641B080041
S214080D20610A08000D0B08000FB400B583B004AACA
S214080D3052F8041B01920020034B984703B05DF855
S214080D4004EB04B0704700BFC90B0800034B03222E
S214080D501A6042F604125A60704700BF10E000E0BE
S214080D60024A136801331360704700BF7C040020F2
S214080D70014B1868704700BF7C040020054B1868B4
S214080D80054BA3FB00308009FF2828BF0020C0B20F
S214080D90704700BF7C040020D34D6210114A1369C7
S214080DA043F000631361104B5A6842F000725A60B1
S214080DB01A6F42F000721A675A6842F000625A6068
S214080DC01A6F42F000621A67A3F5C223074A5A60F0
S214080DD0074ADA6101221A601A6842F004021A60A9
S214080DE0704700BF00060E4000100E4000C00909FC
S214080DF040D10C00642828BF6420094B03FB00F38D
S214080E0003F5422303F55363064A5361064B03FB77
S214080E1000F000F54B2000F553609061704700BF66
S214080E205CFEFFFF000008405CFDFFFF642828BF4B
S214080E306420054B03FB00F000F5422000F55360E4
S214080E40024BC3F8940070475CFEFFFF00000840A2
S214080E502DE9F04F87B0344CD4E900ABC4E902ABB7
S214080E60324F97F90300324B1B78C01A314B98471C
S214080E7002460B46CDE90023C4E900232E4ED4E9EA
S214080E800423B047CDE904010A460146C4E9041222
S214080E90DFF8BC80D8E90001284DD8E90223CDE95F
S214080EA00201A847DDE90423A847CDE90401D8E9EB
S214080EB00423DDE90001A84702460B46DDE90401E4
S214080EC0B047CDE90401DDE90223D8E90601DFF8D9
S214080ED08480C0478046894652465B46DDE9000165
S214080EE0DFF874A0D04702460B4640464946A84756
S214080EF002460B46DDE90401B047114B9847A0614E
S214080F0097F9053023B100240025074BC3E90445AB
S214080F100C4B98470C4B1B6E4FF080520B4BC3F88C
S214080F20802107B0BDE8F08F800400209C040020D4
S214080F307B040020CD13080035110800991408001A
S214080F40BD180800010708000000084000E100E09E
S214080F5008000020ED1608003111080008B50648FC
S214080F60064B9847064BD3F8A0304FF00052054B77
S214080F70C3F8802108BD00BF6C1B0800290D0800B7
S214080F800000084000E100E0114A136943F080536E
S214080F9013614FF080520F4B1A600F4B5A6842F09D
S214080FA001025A601A6F42F001021A67A3F5C223BB
S214080FB04FF41C225A64094ADA655A6E42F0100247
S214080FC05A6601221A641A6C42F004021A647047C0
S214080FD000060E4000E100E000100E4040D10C0074
S214080FE00F4A136943F0005313610E4B5A6842F0D8
S214080FF080525A601A6F42F080521A670A4B0B4AA0
S214081000C3F884200A4AC3F89C200122C3F880202B
S214081010D3F8802042F00402C3F88020704700BF4F
S21408102000060E4000120E400000084000C00909E5
S21408103040D10C00164B00221A705A70154B4FF40C
S2140810404071596459601A6F186F024022F4407252
S2140810501A6759664FF48072A3F500631A6103F5A0
S2140810600073AC21196040F2232119624FF4006125
S214081070596040F20221C3F820114FF0FF31D960C1
S214081080E121996004490A6050221A60704700BF3F
S214081090A4040020000E0E4000E100E0074B5B6948
S2140810A013F0020F08D0054BD8611A46536913F49B
S2140810B0007FFBD0002070470120704700080E40D4
S2140810C008B5154B5B6913F0E00F03D04FF4A87111
S2140810D0114A116013F0010F12D010484278531CC1
S2140810E0594203F03F0301F03F0158BF4B420178D5
S2140810F08B4206D00849886908490A4490704B70A4
S21408110008BD0748074B9847034B9A69034B59781D
S2140811100B449A7008BD00BF00080E40A4040020C7
S214081120781B0800290D080081F0004102E000BF86
S21408113083F0004330B54FEA41044FEA430594EA8A
S214081140050F08BF90EA020F1FBF54EA000C55EAC5
S214081150020C7FEA645C7FEA655C00F0E2804FEA96
S2140811605454D4EB5555B8BF6D420CDD2C4480EA78
S214081170020281EA030382EA000083EA010180EAA8
S214081180020281EA0303362D88BF30BD11F0004FF6
S2140811904FEA01314FF4801C4CEA113102D040422C
S2140811A061EB410113F0004F4FEA03334CEA133367
S2140811B002D0524263EB430394EA050F00F0A7807F
S2140811C0A4F10104D5F1200E0DDB02FA0EFC22FA7A
S2140811D005F2801841F1000103FA0EF2801843FA6E
S2140811E005F359410EE0A5F120050EF1200E012A5F
S2140811F003FA0EFC28BF4CF0020C43FA05F3C0189D
S21408120051EBE37101F0004507D54FF0000EDCF115
S214081210000C7EEB00006EEB0101B1F5801F1BD3BE
S214081220B1F5001F0CD349085FEA30004FEA3C0CC2
S21408123004F101044FEA445212F5800F80F09A80B8
S214081240BCF1004F08BF5FEA500C50F1000041EBBC
S214081250045141EA050130BD5FEA4C0C404141EBC0
S214081260010111F4801FA4F10104E9D191F0000FE7
S21408127004BF01460020B1FA81F308BF2033A3F16A
S2140812800B03B3F120020CDA0C3208DD02F1140C61
S214081290C2F10C0201FA0CF021FA02F10CE002F19C
S2140812A01402D8BFC2F1200C01FA02F120FA0CFC95
S2140812B0DCBF41EA0C019040E41AA2BF01EB0451DE
S2140812C0294330BD6FEA04041F3C1CDA0C340EDCDC
S2140812D004F11404C4F1200220FA04F001FA02F31F
S2140812E040EA030021FA04F345EA030130BDC4F1DD
S2140812F00C04C4F1200220FA02F001FA04F340EAD2
S2140813000300294630BD21FA04F0294630BD94F082
S214081310000F83F4801306BF81F480110134013D69
S2140813204EE77FEA645C18BF7FEA655C29D094EADA
S214081330050F08BF90EA020F05D054EA000C04BF58
S2140813401946104630BD91EA030F1EBF0021002043
S21408135030BD5FEA545C05D14000494128BF41F0E2
S214081360004130BD14F580043CBF01F5801130BD46
S21408137001F0004545F0FE4141F470014FF00000D1
S21408138030BD7FEA645C1ABF194610467FEA655C82
S2140813901CBF0B46024650EA013406BF52EA033524
S2140813A091EA030F41F4002130BD00BF90F0000F12
S2140813B004BF0021704730B54FF4806404F132044E
S2140813C04FF000054FF0000150E700BF90F0000F07
S2140813D004BF0021704730B54FF4806404F132042E
S2140813E010F0004548BF40424FF000013EE700BFFE
S2140813F042004FEAE2014FEA31014FEA02701FBF8E
S21408140012F07F4393F07F4F81F06051704792F05F
S214081410000F14BF93F07F4F704730B54FF46074D9
S21408142001F0004521F0004120E700BF50EA010224
S21408143008BF704730B54FF000050AE050EA0102D1
S21408144008BF704730B511F0004502D5404261EB41
S21408145041014FF4806404F132045FEA915C3FF482
S214081460DCAE4FF003025FEADC0C18BF03325FEA1B
S214081470DC0C18BF033202EBDC02C2F1200300FAD0
S21408148003FC20FA02F001FA03FE40EA0E0021FAF5
S21408149002F11444C1E600BF70B54FF0FF0C4CF4DF
S2140814A0E06C1CEA11541DBF1CEA135594EA0C0F95
S2140814B095EA0C0F00F0DEF82C4481EA030621EAD0
S2140814C04C5123EA4C5350EA013518BF52EA03350B
S2140814D041F4801143F4801338D0A0FB02CE4FF0BD
S2140814E00005E1FB02E506F00042E0FB03E54FF0ED
S2140814F00006E1FB03569CF0000F18BF4EF0010EE5
S214081500A4F1FF04B6F5007F64F5407404D25FEAE0
S2140815104E0E6D4146EB060642EAC62141EA555193
S2140815204FEAC52040EA5E504FEACE2EB4F1FD0CD5
S21408153088BFBCF5E06F1ED8BEF1004F08BF5FEA53
S214081540500E50F1000041EB045170BD06F0004605
S21408155046EA010140EA020081EA0301B4EB5C04B2
S214081560C2BFD4EB0C0541EA045170BD41F48011AA
S2140815704FF0000E013C00F3AB8014F1360FDEBFCF
S214081580002001F0004170BDC4F10004203C35DAAB
S2140815900C341BDC04F11404C4F1200500FA05F32E
S2140815A020FA04F001FA05F240EA020001F00042CF
S2140815B021F0004110EBD37021FA04F642EB060145
S2140815C05EEA430E08BF20EAD37070BDC4F10C046F
S2140815D0C4F1200500FA04F320FA05F001FA04F233
S2140815E040EA020001F0004110EBD37041F100011F
S2140815F05EEA430E08BF20EAD37070BDC4F120052A
S21408160000FA05F24EEA020E20FA04F301FA05F291
S21408161043EA020321FA04F001F0004121FA04F239
S21408162020EA020000EBD3705EEA430E08BF20EA09
S214081630D37070BD94F0000F0FD101F00046400043
S21408164041EB010111F4801F08BF013CF7D041EAC5
S214081650060195F0000F18BF704703F000465200C9
S21408166043EB030313F4801F08BF013DF7D043EA9A
S2140816700603704794EA0C0F0CEA135518BF95EA50
S2140816800C0F0CD050EA410618BF52EA4306D1D1D7
S21408169081EA030101F000414FF0000070BD50EAF6
S2140816A0410606BF1046194652EA430619D094EA80
S2140816B00C0F02D150EA013613D195EA0C0F05D16A
S2140816C052EA03361CBF104619460AD181EA0301BE
S2140816D001F0004141F0FE4141F470014FF0000076
S2140816E070BD41F0FE4141F4780170BD70B54FF011
S2140816F0FF0C4CF4E06C1CEA11541DBF1CEA135591
S21408170094EA0C0F95EA0C0F00F0A7F8A4EB050472
S21408171081EA030E52EA03354FEA013100F0888069
S2140817204FEA03334FF0805545EA131343EA126332
S2140817304FEA022245EA111545EA10654FEA0026E7
S2140817400EF000419D4208BF964244F1FD0404F5A0
S214081750407402D25B084FEA3202B61A65EB0305FC
S2140817605B084FEA32024FF480104FF4002CB6EBB9
S214081770020E75EB030E22BFB61A754640EA0C0039
S2140817805B084FEA3202B6EB020E75EB030E22BF79
S214081790B61A754640EA5C005B084FEA3202B6EBBA
S2140817A0020E75EB030E22BFB61A754640EA9C0079
S2140817B05B084FEA3202B6EB020E75EB030E22BF49
S2140817C0B61A754640EADC0055EA060E18D04FEA07
S2140817D0051545EA16754FEA06164FEAC30343EAA7
S2140817E052734FEAC2025FEA1C1CC0D111F4801F74
S2140817F00BD141EA00014FF000004FF0004CB6E76D
S21408180011F4801F04BF01430020B4F1FD0C88BF0B
S214081810BCF5E06F3FF6AFAEB5EB030C04BFB6EB16
S214081820020C5FEA500C50F1000041EB045170BD09
S2140818300EF0004E4EEA113114EB5C04C2BFD4EB36
S2140818400C0541EA045170BD41F480114FF0000EBA
S214081850013C90E645EA060E8DE60CEA135594EA36
S2140818600C0F08BF95EA0C0F3FF43BAF94EA0C0F39
S2140818700AD150EA01347FF434AF95EA0C0F7FF4AE
S21408188025AF104619462CE795EA0C0F06D152EA02
S21408189003353FF4FDAE1046194622E750EA4106E6
S2140818A018BF52EA43067FF4C5AE50EA41047FF4F7
S2140818B00DAF52EA43057FF4EBAE12E74FEA41025A
S2140818C012F5001215D211D56FF47873B3EB625285
S2140818D012D94FEAC12343F0004343EA505311F0AC
S2140818E0004F23FA02F018BF404270474FF000003E
S2140818F0704750EA013005D111F0004008BF6FF07C
S214081900004070474FF00000704700BF4A0011D2F1
S21408191012F5001211D20DD56FF47873B3EB62523C
S2140819200ED44FEAC12343F0004343EA505323FA48
S21408193002F070474FF00000704750EA013002D1BD
S2140819404FF0FF3070474FF00000704770B50F4EED
S2140819500F4D761BB61018BF002405D0013455F875
S214081960043B9847A642F9D10A4E0B4D00F016F9EB
S214081970761BB61018BF002406D0013455F8043B71
S2140819809847A642F9D170BD70BD00BFA81B0800D5
S214081990A81B0800B01B0800A81B0800024B13B1C0
S2140819A0024800F005B8704700000000BD1908009E
S2140819B0002301461A46184600F01EB838B50A4CE9
S2140819C00A4D641BA4100AD004F18043013B05EBC2
S2140819D08305013C55F804399847002CF9D1BDE831
S2140819E0384000F0E5B800BFC01B0800BC1B080064
S2140819F0704700BF704700BF2DE9F8432C4D0646D8
S214081A00286898460F469146FFF7F2FF294B1C6850
S214081A10D4F84831002B3ED05A681F2A1CDC02F145
S214081A20010E76B1012103EB8204C4F88890D3F83E
S214081A30880191400843022EC3F88801C4F808813B
S214081A4023D00232C3F804E0286843F82270FFF770
S214081A50D1FF0020BDE8F883174B0BB34FF4C870CE
S214081A60AFF300800346D8B10020D4F848114FF0F1
S214081A70010E586019600246C4F84831C3F8880158
S214081A80C3F88C01002EDCD0CCE7D3F88C010143D8
S214081A90C3F88C11D5E704F5A673C4F84831BBE73C
S214081AA02868FFF7A7FF4FF0FF30BDE8F88300BFB0
S214081AB050040020981B08000000000043414E30E8
S214081AC0206D6573736167652061727269766564F7
S214081AD020696E206E6F6E2D75736564206D616962
S214081AE06C626F780A0D00004A6F79737469636BCD
S214081AF0202564200A0D00006D65737361676520F4
S214081B0069643A2025640A0D000000006D65737349
S214081B106167652064617461206C656E6774683AF5
S214081B202025640A0D0000002564200068656C6C9A
S214081B306F0A0D00676F616C73203A2025642020B9
S214081B40200A0D00746F5F696E6372656D656E744A
S214081B5000000000646174612073656E743A202585
S214081B6064000000286E756C6C2900007774726635
S214081B7066666666660A0D004552523A2055415218
S214081B80542052582062756666657220697320660E
S214081B90756C6C0A0D00000028000020F8B500BF20
S214081BA0F8BC08BC9E4670479D1908001901080035
S214081BB0F8B500BFF8BC08BC9E467047F50008009C
S214081BC000093D00010000007B14AE47E17A943F0F
S214081BD00000000000003440000000000000344010
S214081BE0000000000000F03F000000001403002082
S214081BF07C030020E4030020000000000000000032
S214081C0000000000000000000000000000000000C7
S214081C1000000000000000000000000000000000B7
S214081C2000000000000000000000000000000000A7
S214081C300000000000000000000000000000000097
S214081C400000000000000000000000000000000087
S214081C500000000000000000000000000000000077
S214081C600000000000000000000000000000000067
S214081C700000000000000000000000000000000057
S214081C800000000000000000000000000000000047
S214081C9001000000000000000E33CDAB34126DE6E4
S214081CA0ECDE05000B00000000000000000000004D
S214081CB00000000000000000000000000000000017
S214081CC00000000000000000000000000000000007
S214081CD000000000000000000000000000000000F7
S214081CE000000000000000000000000000000000E7
S208082010E8040020B3
S804080000F3
